{
	"contracts/hospital.sol": {
		"Hospital": {
			"abi": [
				{
					"inputs": [],
					"stateMutability": "nonpayable",
					"type": "constructor"
				},
				{
					"anonymous": false,
					"inputs": [
						{
							"indexed": false,
							"internalType": "address",
							"name": "pacient",
							"type": "address"
						},
						{
							"indexed": false,
							"internalType": "uint256",
							"name": "serviceId",
							"type": "uint256"
						},
						{
							"indexed": false,
							"internalType": "uint256",
							"name": "date",
							"type": "uint256"
						},
						{
							"indexed": false,
							"internalType": "uint256",
							"name": "totalCost",
							"type": "uint256"
						},
						{
							"indexed": false,
							"internalType": "string",
							"name": "doctor",
							"type": "string"
						},
						{
							"indexed": false,
							"internalType": "string",
							"name": "treatmentDetails",
							"type": "string"
						}
					],
					"name": "AppointmentMade",
					"type": "event"
				},
				{
					"anonymous": false,
					"inputs": [
						{
							"indexed": false,
							"internalType": "address",
							"name": "patient",
							"type": "address"
						},
						{
							"indexed": false,
							"internalType": "string",
							"name": "patientName",
							"type": "string"
						},
						{
							"indexed": false,
							"internalType": "uint256",
							"name": "age",
							"type": "uint256"
						},
						{
							"indexed": false,
							"internalType": "bool",
							"name": "registered",
							"type": "bool"
						}
					],
					"name": "PatientRegistration",
					"type": "event"
				},
				{
					"anonymous": false,
					"inputs": [
						{
							"indexed": false,
							"internalType": "address",
							"name": "pacient",
							"type": "address"
						},
						{
							"indexed": false,
							"internalType": "uint256",
							"name": "amount",
							"type": "uint256"
						},
						{
							"indexed": false,
							"internalType": "uint256",
							"name": "date",
							"type": "uint256"
						}
					],
					"name": "PaymentReceived",
					"type": "event"
				},
				{
					"anonymous": false,
					"inputs": [
						{
							"indexed": false,
							"internalType": "uint256",
							"name": "serviceId",
							"type": "uint256"
						},
						{
							"indexed": false,
							"internalType": "string",
							"name": "serviceName",
							"type": "string"
						},
						{
							"indexed": false,
							"internalType": "uint256",
							"name": "price",
							"type": "uint256"
						},
						{
							"indexed": false,
							"internalType": "string",
							"name": "doctor",
							"type": "string"
						}
					],
					"name": "ServiceMenuAdded",
					"type": "event"
				},
				{
					"inputs": [
						{
							"internalType": "uint256",
							"name": "",
							"type": "uint256"
						}
					],
					"name": "AppointmentSchedule",
					"outputs": [
						{
							"internalType": "address",
							"name": "patient",
							"type": "address"
						},
						{
							"internalType": "string",
							"name": "patientName",
							"type": "string"
						},
						{
							"internalType": "uint256",
							"name": "amount",
							"type": "uint256"
						},
						{
							"internalType": "string",
							"name": "treatmentDetails",
							"type": "string"
						},
						{
							"internalType": "uint256",
							"name": "serviceId",
							"type": "uint256"
						},
						{
							"internalType": "uint256",
							"name": "date",
							"type": "uint256"
						},
						{
							"internalType": "string",
							"name": "doctor",
							"type": "string"
						}
					],
					"stateMutability": "view",
					"type": "function"
				},
				{
					"inputs": [
						{
							"internalType": "string",
							"name": "_patientName",
							"type": "string"
						},
						{
							"internalType": "string",
							"name": "_medHistory",
							"type": "string"
						},
						{
							"internalType": "uint256",
							"name": "_age",
							"type": "uint256"
						},
						{
							"internalType": "bool",
							"name": "_registered",
							"type": "bool"
						}
					],
					"name": "RegisterPatient",
					"outputs": [],
					"stateMutability": "nonpayable",
					"type": "function"
				},
				{
					"inputs": [
						{
							"internalType": "string",
							"name": "_serviceName",
							"type": "string"
						},
						{
							"internalType": "uint256",
							"name": "_price",
							"type": "uint256"
						},
						{
							"internalType": "string",
							"name": "_doctorName",
							"type": "string"
						}
					],
					"name": "addServiceMenu",
					"outputs": [],
					"stateMutability": "nonpayable",
					"type": "function"
				},
				{
					"inputs": [],
					"name": "adminBalance",
					"outputs": [
						{
							"internalType": "uint256",
							"name": "",
							"type": "uint256"
						}
					],
					"stateMutability": "view",
					"type": "function"
				},
				{
					"inputs": [],
					"name": "administrator",
					"outputs": [
						{
							"internalType": "address",
							"name": "",
							"type": "address"
						}
					],
					"stateMutability": "view",
					"type": "function"
				},
				{
					"inputs": [],
					"name": "appointmentCount",
					"outputs": [
						{
							"internalType": "uint256",
							"name": "",
							"type": "uint256"
						}
					],
					"stateMutability": "view",
					"type": "function"
				},
				{
					"inputs": [
						{
							"internalType": "uint256",
							"name": "_patientId",
							"type": "uint256"
						}
					],
					"name": "getAppointments",
					"outputs": [
						{
							"internalType": "address",
							"name": "patient",
							"type": "address"
						},
						{
							"internalType": "string",
							"name": "patientName",
							"type": "string"
						},
						{
							"internalType": "uint256",
							"name": "amount",
							"type": "uint256"
						},
						{
							"internalType": "string",
							"name": "treatmentDetails",
							"type": "string"
						},
						{
							"internalType": "uint256",
							"name": "serviceId",
							"type": "uint256"
						},
						{
							"internalType": "uint256",
							"name": "date",
							"type": "uint256"
						},
						{
							"internalType": "string",
							"name": "doctor",
							"type": "string"
						}
					],
					"stateMutability": "view",
					"type": "function"
				},
				{
					"inputs": [
						{
							"internalType": "uint256",
							"name": "_serviceId",
							"type": "uint256"
						}
					],
					"name": "getServicesMenu",
					"outputs": [
						{
							"internalType": "string",
							"name": "name",
							"type": "string"
						},
						{
							"internalType": "uint256",
							"name": "price",
							"type": "uint256"
						}
					],
					"stateMutability": "view",
					"type": "function"
				},
				{
					"inputs": [
						{
							"internalType": "uint256",
							"name": "_serviceId",
							"type": "uint256"
						},
						{
							"internalType": "string",
							"name": "_patientName",
							"type": "string"
						},
						{
							"internalType": "string",
							"name": "_treatmentDetails",
							"type": "string"
						},
						{
							"internalType": "uint256",
							"name": "_date",
							"type": "uint256"
						},
						{
							"internalType": "string",
							"name": "_doctor",
							"type": "string"
						}
					],
					"name": "makeAppointment",
					"outputs": [],
					"stateMutability": "payable",
					"type": "function"
				},
				{
					"inputs": [
						{
							"internalType": "address",
							"name": "_doctor",
							"type": "address"
						}
					],
					"name": "newDoctor",
					"outputs": [],
					"stateMutability": "nonpayable",
					"type": "function"
				},
				{
					"inputs": [
						{
							"internalType": "address",
							"name": "",
							"type": "address"
						}
					],
					"name": "patients",
					"outputs": [
						{
							"internalType": "string",
							"name": "patientName",
							"type": "string"
						},
						{
							"internalType": "string",
							"name": "medHistory",
							"type": "string"
						},
						{
							"internalType": "uint256",
							"name": "age",
							"type": "uint256"
						},
						{
							"internalType": "bool",
							"name": "registered",
							"type": "bool"
						}
					],
					"stateMutability": "view",
					"type": "function"
				},
				{
					"inputs": [
						{
							"internalType": "address",
							"name": "",
							"type": "address"
						}
					],
					"name": "registeredDoctors",
					"outputs": [
						{
							"internalType": "bool",
							"name": "",
							"type": "bool"
						}
					],
					"stateMutability": "view",
					"type": "function"
				},
				{
					"inputs": [],
					"name": "serviceMenuCount",
					"outputs": [
						{
							"internalType": "uint256",
							"name": "",
							"type": "uint256"
						}
					],
					"stateMutability": "view",
					"type": "function"
				},
				{
					"inputs": [
						{
							"internalType": "uint256",
							"name": "",
							"type": "uint256"
						}
					],
					"name": "services",
					"outputs": [
						{
							"internalType": "string",
							"name": "serviceName",
							"type": "string"
						},
						{
							"internalType": "uint256",
							"name": "price",
							"type": "uint256"
						},
						{
							"internalType": "string",
							"name": "doctorName",
							"type": "string"
						}
					],
					"stateMutability": "view",
					"type": "function"
				},
				{
					"inputs": [],
					"name": "withdrawBalance",
					"outputs": [],
					"stateMutability": "nonpayable",
					"type": "function"
				}
			],
			"devdoc": {
				"kind": "dev",
				"methods": {},
				"version": 1
			},
			"evm": {
				"assembly": "    /* \"contracts/hospital.sol\":90:6422  contract Hospital{... */\n  mstore(0x40, 0x80)\n    /* \"contracts/hospital.sol\":2836:2927  constructor(){... */\n  callvalue\n  dup1\n  iszero\n  tag_1\n  jumpi\n  0x00\n  dup1\n  revert\ntag_1:\n  pop\n    /* \"contracts/hospital.sol\":2872:2882  msg.sender */\n  caller\n    /* \"contracts/hospital.sol\":2856:2869  administrator */\n  0x00\n  dup1\n    /* \"contracts/hospital.sol\":2856:2882  administrator = msg.sender */\n  0x0100\n  exp\n  dup2\n  sload\n  dup2\n  0xffffffffffffffffffffffffffffffffffffffff\n  mul\n  not\n  and\n  swap1\n  dup4\n  0xffffffffffffffffffffffffffffffffffffffff\n  and\n  mul\n  or\n  swap1\n  sstore\n  pop\n    /* \"contracts/hospital.sol\":90:6422  contract Hospital{... */\n  dataSize(sub_0)\n  dup1\n  dataOffset(sub_0)\n  0x00\n  codecopy\n  0x00\n  return\nstop\n\nsub_0: assembly {\n        /* \"contracts/hospital.sol\":90:6422  contract Hospital{... */\n      mstore(0x40, 0x80)\n      jumpi(tag_1, lt(calldatasize, 0x04))\n      shr(0xe0, calldataload(0x00))\n      dup1\n      0x97da3119\n      gt\n      tag_17\n      jumpi\n      dup1\n      0xac0f2f7c\n      gt\n      tag_18\n      jumpi\n      dup1\n      0xac0f2f7c\n      eq\n      tag_13\n      jumpi\n      dup1\n      0xc22c4f43\n      eq\n      tag_14\n      jumpi\n      dup1\n      0xeebc3fb2\n      eq\n      tag_15\n      jumpi\n      dup1\n      0xf53d0a8e\n      eq\n      tag_16\n      jumpi\n      jump(tag_1)\n    tag_18:\n      dup1\n      0x97da3119\n      eq\n      tag_9\n      jumpi\n      dup1\n      0x9858befb\n      eq\n      tag_10\n      jumpi\n      dup1\n      0xa58190df\n      eq\n      tag_11\n      jumpi\n      dup1\n      0xa95ab538\n      eq\n      tag_12\n      jumpi\n      jump(tag_1)\n    tag_17:\n      dup1\n      0x3f308cd2\n      gt\n      tag_19\n      jumpi\n      dup1\n      0x3f308cd2\n      eq\n      tag_5\n      jumpi\n      dup1\n      0x59c9920a\n      eq\n      tag_6\n      jumpi\n      dup1\n      0x5fd8c710\n      eq\n      tag_7\n      jumpi\n      dup1\n      0x6701a995\n      eq\n      tag_8\n      jumpi\n      jump(tag_1)\n    tag_19:\n      dup1\n      0x6c174f\n      eq\n      tag_2\n      jumpi\n      dup1\n      0x0869cfbc\n      eq\n      tag_3\n      jumpi\n      dup1\n      0x230a545a\n      eq\n      tag_4\n      jumpi\n    tag_1:\n      0x00\n      dup1\n      revert\n        /* \"contracts/hospital.sol\":3498:4014  function RegisterPatient(string memory _patientName,  string memory _medHistory, uint256 _age, bool _registered) public {... */\n    tag_2:\n      callvalue\n      dup1\n      iszero\n      tag_20\n      jumpi\n      0x00\n      dup1\n      revert\n    tag_20:\n      pop\n      tag_21\n      0x04\n      dup1\n      calldatasize\n      sub\n      dup2\n      add\n      swap1\n      tag_22\n      swap2\n      swap1\n      tag_23\n      jump\t// in\n    tag_22:\n      tag_24\n      jump\t// in\n    tag_21:\n      stop\n        /* \"contracts/hospital.sol\":1211:1254  mapping(address => Patient) public patients */\n    tag_3:\n      callvalue\n      dup1\n      iszero\n      tag_25\n      jumpi\n      0x00\n      dup1\n      revert\n    tag_25:\n      pop\n      tag_26\n      0x04\n      dup1\n      calldatasize\n      sub\n      dup2\n      add\n      swap1\n      tag_27\n      swap2\n      swap1\n      tag_28\n      jump\t// in\n    tag_27:\n      tag_29\n      jump\t// in\n    tag_26:\n      mload(0x40)\n      tag_30\n      swap5\n      swap4\n      swap3\n      swap2\n      swap1\n      tag_31\n      jump\t// in\n    tag_30:\n      mload(0x40)\n      dup1\n      swap2\n      sub\n      swap1\n      return\n        /* \"contracts/hospital.sol\":1127:1155  uint public serviceMenuCount */\n    tag_4:\n      callvalue\n      dup1\n      iszero\n      tag_32\n      jumpi\n      0x00\n      dup1\n      revert\n    tag_32:\n      pop\n      tag_33\n      tag_34\n      jump\t// in\n    tag_33:\n      mload(0x40)\n      tag_35\n      swap2\n      swap1\n      tag_36\n      jump\t// in\n    tag_35:\n      mload(0x40)\n      dup1\n      swap2\n      sub\n      swap1\n      return\n        /* \"contracts/hospital.sol\":1417:1466  mapping(address => bool) public registeredDoctors */\n    tag_5:\n      callvalue\n      dup1\n      iszero\n      tag_37\n      jumpi\n      0x00\n      dup1\n      revert\n    tag_37:\n      pop\n      tag_38\n      0x04\n      dup1\n      calldatasize\n      sub\n      dup2\n      add\n      swap1\n      tag_39\n      swap2\n      swap1\n      tag_28\n      jump\t// in\n    tag_39:\n      tag_40\n      jump\t// in\n    tag_38:\n      mload(0x40)\n      tag_41\n      swap2\n      swap1\n      tag_42\n      jump\t// in\n    tag_41:\n      mload(0x40)\n      dup1\n      swap2\n      sub\n      swap1\n      return\n        /* \"contracts/hospital.sol\":1259:1314  mapping(uint => Appointment) public AppointmentSchedule */\n    tag_6:\n      callvalue\n      dup1\n      iszero\n      tag_43\n      jumpi\n      0x00\n      dup1\n      revert\n    tag_43:\n      pop\n      tag_44\n      0x04\n      dup1\n      calldatasize\n      sub\n      dup2\n      add\n      swap1\n      tag_45\n      swap2\n      swap1\n      tag_46\n      jump\t// in\n    tag_45:\n      tag_47\n      jump\t// in\n    tag_44:\n      mload(0x40)\n      tag_48\n      swap8\n      swap7\n      swap6\n      swap5\n      swap4\n      swap3\n      swap2\n      swap1\n      tag_49\n      jump\t// in\n    tag_48:\n      mload(0x40)\n      dup1\n      swap2\n      sub\n      swap1\n      return\n        /* \"contracts/hospital.sol\":5118:5297  function withdrawBalance() public onlyAdmin{... */\n    tag_7:\n      callvalue\n      dup1\n      iszero\n      tag_50\n      jumpi\n      0x00\n      dup1\n      revert\n    tag_50:\n      pop\n      tag_51\n      tag_52\n      jump\t// in\n    tag_51:\n      stop\n        /* \"contracts/hospital.sol\":4119:5046  function makeAppointment (uint _serviceId, string memory _patientName , string memory _treatmentDetails, uint _date, string memory _doctor  ) public payable patientRegistered(msg.sender) {... */\n    tag_8:\n      tag_53\n      0x04\n      dup1\n      calldatasize\n      sub\n      dup2\n      add\n      swap1\n      tag_54\n      swap2\n      swap1\n      tag_55\n      jump\t// in\n    tag_54:\n      tag_56\n      jump\t// in\n    tag_53:\n      stop\n        /* \"contracts/hospital.sol\":5375:5684  function getServicesMenu(uint _serviceId) public view returns ( string memory name, uint price){... */\n    tag_9:\n      callvalue\n      dup1\n      iszero\n      tag_57\n      jumpi\n      0x00\n      dup1\n      revert\n    tag_57:\n      pop\n      tag_58\n      0x04\n      dup1\n      calldatasize\n      sub\n      dup2\n      add\n      swap1\n      tag_59\n      swap2\n      swap1\n      tag_46\n      jump\t// in\n    tag_59:\n      tag_60\n      jump\t// in\n    tag_58:\n      mload(0x40)\n      tag_61\n      swap3\n      swap2\n      swap1\n      tag_62\n      jump\t// in\n    tag_61:\n      mload(0x40)\n      dup1\n      swap2\n      sub\n      swap1\n      return\n        /* \"contracts/hospital.sol\":268:292  uint public adminBalance */\n    tag_10:\n      callvalue\n      dup1\n      iszero\n      tag_63\n      jumpi\n      0x00\n      dup1\n      revert\n    tag_63:\n      pop\n      tag_64\n      tag_65\n      jump\t// in\n    tag_64:\n      mload(0x40)\n      tag_66\n      swap2\n      swap1\n      tag_36\n      jump\t// in\n    tag_66:\n      mload(0x40)\n      dup1\n      swap2\n      sub\n      swap1\n      return\n        /* \"contracts/hospital.sol\":2977:3442  function addServiceMenu (string memory _serviceName, uint _price, string memory _doctorName ) public onlyAdmin {... */\n    tag_11:\n      callvalue\n      dup1\n      iszero\n      tag_67\n      jumpi\n      0x00\n      dup1\n      revert\n    tag_67:\n      pop\n      tag_68\n      0x04\n      dup1\n      calldatasize\n      sub\n      dup2\n      add\n      swap1\n      tag_69\n      swap2\n      swap1\n      tag_70\n      jump\t// in\n    tag_69:\n      tag_71\n      jump\t// in\n    tag_68:\n      stop\n        /* \"contracts/hospital.sol\":5775:5880  function newDoctor(address _doctor) public onlyAdmin {... */\n    tag_12:\n      callvalue\n      dup1\n      iszero\n      tag_72\n      jumpi\n      0x00\n      dup1\n      revert\n    tag_72:\n      pop\n      tag_73\n      0x04\n      dup1\n      calldatasize\n      sub\n      dup2\n      add\n      swap1\n      tag_74\n      swap2\n      swap1\n      tag_28\n      jump\t// in\n    tag_74:\n      tag_75\n      jump\t// in\n    tag_73:\n      stop\n        /* \"contracts/hospital.sol\":5932:6413  function getAppointments(uint _patientId) public view onlyDoctor returns ( address patient,string memory patientName,uint256 amount,string memory treatmentDetails,... */\n    tag_13:\n      callvalue\n      dup1\n      iszero\n      tag_76\n      jumpi\n      0x00\n      dup1\n      revert\n    tag_76:\n      pop\n      tag_77\n      0x04\n      dup1\n      calldatasize\n      sub\n      dup2\n      add\n      swap1\n      tag_78\n      swap2\n      swap1\n      tag_46\n      jump\t// in\n    tag_78:\n      tag_79\n      jump\t// in\n    tag_77:\n      mload(0x40)\n      tag_80\n      swap8\n      swap7\n      swap6\n      swap5\n      swap4\n      swap3\n      swap2\n      swap1\n      tag_49\n      jump\t// in\n    tag_80:\n      mload(0x40)\n      dup1\n      swap2\n      sub\n      swap1\n      return\n        /* \"contracts/hospital.sol\":1079:1124  mapping(uint => servicesMenu) public services */\n    tag_14:\n      callvalue\n      dup1\n      iszero\n      tag_81\n      jumpi\n      0x00\n      dup1\n      revert\n    tag_81:\n      pop\n      tag_82\n      0x04\n      dup1\n      calldatasize\n      sub\n      dup2\n      add\n      swap1\n      tag_83\n      swap2\n      swap1\n      tag_46\n      jump\t// in\n    tag_83:\n      tag_84\n      jump\t// in\n    tag_82:\n      mload(0x40)\n      tag_85\n      swap4\n      swap3\n      swap2\n      swap1\n      tag_86\n      jump\t// in\n    tag_85:\n      mload(0x40)\n      dup1\n      swap2\n      sub\n      swap1\n      return\n        /* \"contracts/hospital.sol\":1385:1413  uint public appointmentCount */\n    tag_15:\n      callvalue\n      dup1\n      iszero\n      tag_87\n      jumpi\n      0x00\n      dup1\n      revert\n    tag_87:\n      pop\n      tag_88\n      tag_89\n      jump\t// in\n    tag_88:\n      mload(0x40)\n      tag_90\n      swap2\n      swap1\n      tag_36\n      jump\t// in\n    tag_90:\n      mload(0x40)\n      dup1\n      swap2\n      sub\n      swap1\n      return\n        /* \"contracts/hospital.sol\":161:189  address public administrator */\n    tag_16:\n      callvalue\n      dup1\n      iszero\n      tag_91\n      jumpi\n      0x00\n      dup1\n      revert\n    tag_91:\n      pop\n      tag_92\n      tag_93\n      jump\t// in\n    tag_92:\n      mload(0x40)\n      tag_94\n      swap2\n      swap1\n      tag_95\n      jump\t// in\n    tag_94:\n      mload(0x40)\n      dup1\n      swap2\n      sub\n      swap1\n      return\n        /* \"contracts/hospital.sol\":3498:4014  function RegisterPatient(string memory _patientName,  string memory _medHistory, uint256 _age, bool _registered) public {... */\n    tag_24:\n        /* \"contracts/hospital.sol\":3638:3646  patients */\n      0x04\n        /* \"contracts/hospital.sol\":3638:3658  patients[msg.sender] */\n      0x00\n        /* \"contracts/hospital.sol\":3647:3657  msg.sender */\n      caller\n        /* \"contracts/hospital.sol\":3638:3658  patients[msg.sender] */\n      0xffffffffffffffffffffffffffffffffffffffff\n      and\n      0xffffffffffffffffffffffffffffffffffffffff\n      and\n      dup2\n      mstore\n      0x20\n      add\n      swap1\n      dup2\n      mstore\n      0x20\n      add\n      0x00\n      keccak256\n        /* \"contracts/hospital.sol\":3638:3669  patients[msg.sender].registered */\n      0x03\n      add\n      0x00\n      swap1\n      sload\n      swap1\n      0x0100\n      exp\n      swap1\n      div\n      0xff\n      and\n        /* \"contracts/hospital.sol\":3637:3669  !patients[msg.sender].registered */\n      iszero\n        /* \"contracts/hospital.sol\":3629:3704  require(!patients[msg.sender].registered, \"Patient profile already exists\") */\n      tag_97\n      jumpi\n      mload(0x40)\n      0x08c379a000000000000000000000000000000000000000000000000000000000\n      dup2\n      mstore\n      0x04\n      add\n      tag_98\n      swap1\n      tag_99\n      jump\t// in\n    tag_98:\n      mload(0x40)\n      dup1\n      swap2\n      sub\n      swap1\n      revert\n    tag_97:\n        /* \"contracts/hospital.sol\":3740:3901  Patient({... */\n      mload(0x40)\n      dup1\n      0x80\n      add\n      0x40\n      mstore\n      dup1\n        /* \"contracts/hospital.sol\":3776:3788  _patientName */\n      dup6\n        /* \"contracts/hospital.sol\":3740:3901  Patient({... */\n      dup2\n      mstore\n      0x20\n      add\n        /* \"contracts/hospital.sol\":3815:3826  _medHistory */\n      dup5\n        /* \"contracts/hospital.sol\":3740:3901  Patient({... */\n      dup2\n      mstore\n      0x20\n      add\n        /* \"contracts/hospital.sol\":3845:3849  _age */\n      dup4\n        /* \"contracts/hospital.sol\":3740:3901  Patient({... */\n      dup2\n      mstore\n      0x20\n      add\n        /* \"contracts/hospital.sol\":3875:3879  true */\n      0x01\n        /* \"contracts/hospital.sol\":3740:3901  Patient({... */\n      iszero\n      iszero\n      dup2\n      mstore\n      pop\n        /* \"contracts/hospital.sol\":3717:3725  patients */\n      0x04\n        /* \"contracts/hospital.sol\":3717:3737  patients[msg.sender] */\n      0x00\n        /* \"contracts/hospital.sol\":3726:3736  msg.sender */\n      caller\n        /* \"contracts/hospital.sol\":3717:3737  patients[msg.sender] */\n      0xffffffffffffffffffffffffffffffffffffffff\n      and\n      0xffffffffffffffffffffffffffffffffffffffff\n      and\n      dup2\n      mstore\n      0x20\n      add\n      swap1\n      dup2\n      mstore\n      0x20\n      add\n      0x00\n      keccak256\n        /* \"contracts/hospital.sol\":3717:3901  patients[msg.sender] = Patient({... */\n      0x00\n      dup3\n      add\n      mload\n      dup2\n      0x00\n      add\n      swap1\n      dup2\n      tag_100\n      swap2\n      swap1\n      tag_101\n      jump\t// in\n    tag_100:\n      pop\n      0x20\n      dup3\n      add\n      mload\n      dup2\n      0x01\n      add\n      swap1\n      dup2\n      tag_102\n      swap2\n      swap1\n      tag_101\n      jump\t// in\n    tag_102:\n      pop\n      0x40\n      dup3\n      add\n      mload\n      dup2\n      0x02\n      add\n      sstore\n      0x60\n      dup3\n      add\n      mload\n      dup2\n      0x03\n      add\n      exp(0x0100, 0x00)\n      dup2\n      sload\n      dup2\n      0xff\n      mul\n      not\n      and\n      swap1\n      dup4\n      iszero\n      iszero\n      mul\n      or\n      swap1\n      sstore\n      pop\n      swap1\n      pop\n      pop\n        /* \"contracts/hospital.sol\":3911:3975  PatientRegistration(msg.sender, _patientName, _age, _registered) */\n      0x03ee6e1c88dfd296bc0441d5939af9c0cdc2da7741f9d428223baf353c86db52\n        /* \"contracts/hospital.sol\":3931:3941  msg.sender */\n      caller\n        /* \"contracts/hospital.sol\":3943:3955  _patientName */\n      dup6\n        /* \"contracts/hospital.sol\":3957:3961  _age */\n      dup5\n        /* \"contracts/hospital.sol\":3963:3974  _registered */\n      dup5\n        /* \"contracts/hospital.sol\":3911:3975  PatientRegistration(msg.sender, _patientName, _age, _registered) */\n      mload(0x40)\n      tag_103\n      swap5\n      swap4\n      swap3\n      swap2\n      swap1\n      tag_104\n      jump\t// in\n    tag_103:\n      mload(0x40)\n      dup1\n      swap2\n      sub\n      swap1\n      log1\n        /* \"contracts/hospital.sol\":3498:4014  function RegisterPatient(string memory _patientName,  string memory _medHistory, uint256 _age, bool _registered) public {... */\n      pop\n      pop\n      pop\n      pop\n      jump\t// out\n        /* \"contracts/hospital.sol\":1211:1254  mapping(address => Patient) public patients */\n    tag_29:\n      mstore(0x20, 0x04)\n      dup1\n      0x00\n      mstore\n      keccak256(0x00, 0x40)\n      0x00\n      swap2\n      pop\n      swap1\n      pop\n      dup1\n      0x00\n      add\n      dup1\n      sload\n      tag_105\n      swap1\n      tag_106\n      jump\t// in\n    tag_105:\n      dup1\n      0x1f\n      add\n      0x20\n      dup1\n      swap2\n      div\n      mul\n      0x20\n      add\n      mload(0x40)\n      swap1\n      dup2\n      add\n      0x40\n      mstore\n      dup1\n      swap3\n      swap2\n      swap1\n      dup2\n      dup2\n      mstore\n      0x20\n      add\n      dup3\n      dup1\n      sload\n      tag_107\n      swap1\n      tag_106\n      jump\t// in\n    tag_107:\n      dup1\n      iszero\n      tag_108\n      jumpi\n      dup1\n      0x1f\n      lt\n      tag_109\n      jumpi\n      0x0100\n      dup1\n      dup4\n      sload\n      div\n      mul\n      dup4\n      mstore\n      swap2\n      0x20\n      add\n      swap2\n      jump(tag_108)\n    tag_109:\n      dup3\n      add\n      swap2\n      swap1\n      0x00\n      mstore\n      keccak256(0x00, 0x20)\n      swap1\n    tag_110:\n      dup2\n      sload\n      dup2\n      mstore\n      swap1\n      0x01\n      add\n      swap1\n      0x20\n      add\n      dup1\n      dup4\n      gt\n      tag_110\n      jumpi\n      dup3\n      swap1\n      sub\n      0x1f\n      and\n      dup3\n      add\n      swap2\n    tag_108:\n      pop\n      pop\n      pop\n      pop\n      pop\n      swap1\n      dup1\n      0x01\n      add\n      dup1\n      sload\n      tag_111\n      swap1\n      tag_106\n      jump\t// in\n    tag_111:\n      dup1\n      0x1f\n      add\n      0x20\n      dup1\n      swap2\n      div\n      mul\n      0x20\n      add\n      mload(0x40)\n      swap1\n      dup2\n      add\n      0x40\n      mstore\n      dup1\n      swap3\n      swap2\n      swap1\n      dup2\n      dup2\n      mstore\n      0x20\n      add\n      dup3\n      dup1\n      sload\n      tag_112\n      swap1\n      tag_106\n      jump\t// in\n    tag_112:\n      dup1\n      iszero\n      tag_113\n      jumpi\n      dup1\n      0x1f\n      lt\n      tag_114\n      jumpi\n      0x0100\n      dup1\n      dup4\n      sload\n      div\n      mul\n      dup4\n      mstore\n      swap2\n      0x20\n      add\n      swap2\n      jump(tag_113)\n    tag_114:\n      dup3\n      add\n      swap2\n      swap1\n      0x00\n      mstore\n      keccak256(0x00, 0x20)\n      swap1\n    tag_115:\n      dup2\n      sload\n      dup2\n      mstore\n      swap1\n      0x01\n      add\n      swap1\n      0x20\n      add\n      dup1\n      dup4\n      gt\n      tag_115\n      jumpi\n      dup3\n      swap1\n      sub\n      0x1f\n      and\n      dup3\n      add\n      swap2\n    tag_113:\n      pop\n      pop\n      pop\n      pop\n      pop\n      swap1\n      dup1\n      0x02\n      add\n      sload\n      swap1\n      dup1\n      0x03\n      add\n      0x00\n      swap1\n      sload\n      swap1\n      0x0100\n      exp\n      swap1\n      div\n      0xff\n      and\n      swap1\n      pop\n      dup5\n      jump\t// out\n        /* \"contracts/hospital.sol\":1127:1155  uint public serviceMenuCount */\n    tag_34:\n      sload(0x03)\n      dup2\n      jump\t// out\n        /* \"contracts/hospital.sol\":1417:1466  mapping(address => bool) public registeredDoctors */\n    tag_40:\n      mstore(0x20, 0x07)\n      dup1\n      0x00\n      mstore\n      keccak256(0x00, 0x40)\n      0x00\n      swap2\n      pop\n      sload\n      swap1\n      0x0100\n      exp\n      swap1\n      div\n      0xff\n      and\n      dup2\n      jump\t// out\n        /* \"contracts/hospital.sol\":1259:1314  mapping(uint => Appointment) public AppointmentSchedule */\n    tag_47:\n      mstore(0x20, 0x05)\n      dup1\n      0x00\n      mstore\n      keccak256(0x00, 0x40)\n      0x00\n      swap2\n      pop\n      swap1\n      pop\n      dup1\n      0x00\n      add\n      0x00\n      swap1\n      sload\n      swap1\n      0x0100\n      exp\n      swap1\n      div\n      0xffffffffffffffffffffffffffffffffffffffff\n      and\n      swap1\n      dup1\n      0x01\n      add\n      dup1\n      sload\n      tag_116\n      swap1\n      tag_106\n      jump\t// in\n    tag_116:\n      dup1\n      0x1f\n      add\n      0x20\n      dup1\n      swap2\n      div\n      mul\n      0x20\n      add\n      mload(0x40)\n      swap1\n      dup2\n      add\n      0x40\n      mstore\n      dup1\n      swap3\n      swap2\n      swap1\n      dup2\n      dup2\n      mstore\n      0x20\n      add\n      dup3\n      dup1\n      sload\n      tag_117\n      swap1\n      tag_106\n      jump\t// in\n    tag_117:\n      dup1\n      iszero\n      tag_118\n      jumpi\n      dup1\n      0x1f\n      lt\n      tag_119\n      jumpi\n      0x0100\n      dup1\n      dup4\n      sload\n      div\n      mul\n      dup4\n      mstore\n      swap2\n      0x20\n      add\n      swap2\n      jump(tag_118)\n    tag_119:\n      dup3\n      add\n      swap2\n      swap1\n      0x00\n      mstore\n      keccak256(0x00, 0x20)\n      swap1\n    tag_120:\n      dup2\n      sload\n      dup2\n      mstore\n      swap1\n      0x01\n      add\n      swap1\n      0x20\n      add\n      dup1\n      dup4\n      gt\n      tag_120\n      jumpi\n      dup3\n      swap1\n      sub\n      0x1f\n      and\n      dup3\n      add\n      swap2\n    tag_118:\n      pop\n      pop\n      pop\n      pop\n      pop\n      swap1\n      dup1\n      0x02\n      add\n      sload\n      swap1\n      dup1\n      0x03\n      add\n      dup1\n      sload\n      tag_121\n      swap1\n      tag_106\n      jump\t// in\n    tag_121:\n      dup1\n      0x1f\n      add\n      0x20\n      dup1\n      swap2\n      div\n      mul\n      0x20\n      add\n      mload(0x40)\n      swap1\n      dup2\n      add\n      0x40\n      mstore\n      dup1\n      swap3\n      swap2\n      swap1\n      dup2\n      dup2\n      mstore\n      0x20\n      add\n      dup3\n      dup1\n      sload\n      tag_122\n      swap1\n      tag_106\n      jump\t// in\n    tag_122:\n      dup1\n      iszero\n      tag_123\n      jumpi\n      dup1\n      0x1f\n      lt\n      tag_124\n      jumpi\n      0x0100\n      dup1\n      dup4\n      sload\n      div\n      mul\n      dup4\n      mstore\n      swap2\n      0x20\n      add\n      swap2\n      jump(tag_123)\n    tag_124:\n      dup3\n      add\n      swap2\n      swap1\n      0x00\n      mstore\n      keccak256(0x00, 0x20)\n      swap1\n    tag_125:\n      dup2\n      sload\n      dup2\n      mstore\n      swap1\n      0x01\n      add\n      swap1\n      0x20\n      add\n      dup1\n      dup4\n      gt\n      tag_125\n      jumpi\n      dup3\n      swap1\n      sub\n      0x1f\n      and\n      dup3\n      add\n      swap2\n    tag_123:\n      pop\n      pop\n      pop\n      pop\n      pop\n      swap1\n      dup1\n      0x04\n      add\n      sload\n      swap1\n      dup1\n      0x05\n      add\n      sload\n      swap1\n      dup1\n      0x06\n      add\n      dup1\n      sload\n      tag_126\n      swap1\n      tag_106\n      jump\t// in\n    tag_126:\n      dup1\n      0x1f\n      add\n      0x20\n      dup1\n      swap2\n      div\n      mul\n      0x20\n      add\n      mload(0x40)\n      swap1\n      dup2\n      add\n      0x40\n      mstore\n      dup1\n      swap3\n      swap2\n      swap1\n      dup2\n      dup2\n      mstore\n      0x20\n      add\n      dup3\n      dup1\n      sload\n      tag_127\n      swap1\n      tag_106\n      jump\t// in\n    tag_127:\n      dup1\n      iszero\n      tag_128\n      jumpi\n      dup1\n      0x1f\n      lt\n      tag_129\n      jumpi\n      0x0100\n      dup1\n      dup4\n      sload\n      div\n      mul\n      dup4\n      mstore\n      swap2\n      0x20\n      add\n      swap2\n      jump(tag_128)\n    tag_129:\n      dup3\n      add\n      swap2\n      swap1\n      0x00\n      mstore\n      keccak256(0x00, 0x20)\n      swap1\n    tag_130:\n      dup2\n      sload\n      dup2\n      mstore\n      swap1\n      0x01\n      add\n      swap1\n      0x20\n      add\n      dup1\n      dup4\n      gt\n      tag_130\n      jumpi\n      dup3\n      swap1\n      sub\n      0x1f\n      and\n      dup3\n      add\n      swap2\n    tag_128:\n      pop\n      pop\n      pop\n      pop\n      pop\n      swap1\n      pop\n      dup8\n      jump\t// out\n        /* \"contracts/hospital.sol\":5118:5297  function withdrawBalance() public onlyAdmin{... */\n    tag_52:\n        /* \"contracts/hospital.sol\":2249:2262  administrator */\n      0x00\n      dup1\n      sload\n      swap1\n      0x0100\n      exp\n      swap1\n      div\n      0xffffffffffffffffffffffffffffffffffffffff\n      and\n        /* \"contracts/hospital.sol\":2235:2262  msg.sender == administrator */\n      0xffffffffffffffffffffffffffffffffffffffff\n      and\n        /* \"contracts/hospital.sol\":2235:2245  msg.sender */\n      caller\n        /* \"contracts/hospital.sol\":2235:2262  msg.sender == administrator */\n      0xffffffffffffffffffffffffffffffffffffffff\n      and\n      eq\n        /* \"contracts/hospital.sol\":2227:2306  require(msg.sender == administrator, \"only the admin can perform this action.\") */\n      tag_132\n      jumpi\n      mload(0x40)\n      0x08c379a000000000000000000000000000000000000000000000000000000000\n      dup2\n      mstore\n      0x04\n      add\n      tag_133\n      swap1\n      tag_134\n      jump\t// in\n    tag_133:\n      mload(0x40)\n      dup1\n      swap2\n      sub\n      swap1\n      revert\n    tag_132:\n        /* \"contracts/hospital.sol\":5164:5175  uint amount */\n      0x00\n        /* \"contracts/hospital.sol\":5178:5190  adminBalance */\n      sload(0x01)\n        /* \"contracts/hospital.sol\":5164:5190  uint amount = adminBalance */\n      swap1\n      pop\n        /* \"contracts/hospital.sol\":5208:5209  0 */\n      0x00\n        /* \"contracts/hospital.sol\":5193:5205  adminBalance */\n      0x01\n        /* \"contracts/hospital.sol\":5193:5209  adminBalance = 0 */\n      dup2\n      swap1\n      sstore\n      pop\n        /* \"contracts/hospital.sol\":5220:5233  administrator */\n      0x00\n      dup1\n      sload\n      swap1\n      0x0100\n      exp\n      swap1\n      div\n      0xffffffffffffffffffffffffffffffffffffffff\n      and\n        /* \"contracts/hospital.sol\":5212:5243  payable(administrator).transfer */\n      0xffffffffffffffffffffffffffffffffffffffff\n      and\n        /* \"contracts/hospital.sol\":5212:5251  payable(administrator).transfer(amount) */\n      0x08fc\n        /* \"contracts/hospital.sol\":5244:5250  amount */\n      dup3\n        /* \"contracts/hospital.sol\":5212:5251  payable(administrator).transfer(amount) */\n      swap1\n      dup2\n      iszero\n      mul\n      swap1\n      mload(0x40)\n      0x00\n      mload(0x40)\n      dup1\n      dup4\n      sub\n      dup2\n      dup6\n      dup9\n      dup9\n      call\n      swap4\n      pop\n      pop\n      pop\n      pop\n      iszero\n      dup1\n      iszero\n      tag_137\n      jumpi\n      returndatasize\n      0x00\n      dup1\n      returndatacopy\n      revert(0x00, returndatasize)\n    tag_137:\n      pop\n        /* \"contracts/hospital.sol\":5161:5297  {... */\n      pop\n        /* \"contracts/hospital.sol\":5118:5297  function withdrawBalance() public onlyAdmin{... */\n      jump\t// out\n        /* \"contracts/hospital.sol\":4119:5046  function makeAppointment (uint _serviceId, string memory _patientName , string memory _treatmentDetails, uint _date, string memory _doctor  ) public payable patientRegistered(msg.sender) {... */\n    tag_56:\n        /* \"contracts/hospital.sol\":4294:4304  msg.sender */\n      caller\n        /* \"contracts/hospital.sol\":2514:2522  patients */\n      0x04\n        /* \"contracts/hospital.sol\":2514:2532  patients[_patient] */\n      0x00\n        /* \"contracts/hospital.sol\":2523:2531  _patient */\n      dup3\n        /* \"contracts/hospital.sol\":2514:2532  patients[_patient] */\n      0xffffffffffffffffffffffffffffffffffffffff\n      and\n      0xffffffffffffffffffffffffffffffffffffffff\n      and\n      dup2\n      mstore\n      0x20\n      add\n      swap1\n      dup2\n      mstore\n      0x20\n      add\n      0x00\n      keccak256\n        /* \"contracts/hospital.sol\":2514:2543  patients[_patient].registered */\n      0x03\n      add\n      0x00\n      swap1\n      sload\n      swap1\n      0x0100\n      exp\n      swap1\n      div\n      0xff\n      and\n        /* \"contracts/hospital.sol\":2506:2599  require(patients[_patient].registered, \"This patient is not registered and couldant be fund\") */\n      tag_139\n      jumpi\n      mload(0x40)\n      0x08c379a000000000000000000000000000000000000000000000000000000000\n      dup2\n      mstore\n      0x04\n      add\n      tag_140\n      swap1\n      tag_141\n      jump\t// in\n    tag_140:\n      mload(0x40)\n      dup1\n      swap2\n      sub\n      swap1\n      revert\n    tag_139:\n        /* \"contracts/hospital.sol\":4330:4346  serviceMenuCount */\n      sload(0x03)\n        /* \"contracts/hospital.sol\":4317:4327  _serviceId */\n      dup7\n        /* \"contracts/hospital.sol\":4317:4346  _serviceId < serviceMenuCount */\n      lt\n        /* \"contracts/hospital.sol\":4309:4366  require(_serviceId < serviceMenuCount, \"Invalid service\") */\n      tag_143\n      jumpi\n      mload(0x40)\n      0x08c379a000000000000000000000000000000000000000000000000000000000\n      dup2\n      mstore\n      0x04\n      add\n      tag_144\n      swap1\n      tag_145\n      jump\t// in\n    tag_144:\n      mload(0x40)\n      dup1\n      swap2\n      sub\n      swap1\n      revert\n    tag_143:\n        /* \"contracts/hospital.sol\":4406:4433  servicesMenu memory service */\n      0x00\n        /* \"contracts/hospital.sol\":4436:4444  services */\n      0x02\n        /* \"contracts/hospital.sol\":4436:4456  services[_serviceId] */\n      0x00\n        /* \"contracts/hospital.sol\":4445:4455  _serviceId */\n      dup9\n        /* \"contracts/hospital.sol\":4436:4456  services[_serviceId] */\n      dup2\n      mstore\n      0x20\n      add\n      swap1\n      dup2\n      mstore\n      0x20\n      add\n      0x00\n      keccak256\n        /* \"contracts/hospital.sol\":4406:4456  servicesMenu memory service = services[_serviceId] */\n      mload(0x40)\n      dup1\n      0x60\n      add\n      0x40\n      mstore\n      swap1\n      dup2\n      0x00\n      dup3\n      add\n      dup1\n      sload\n      tag_146\n      swap1\n      tag_106\n      jump\t// in\n    tag_146:\n      dup1\n      0x1f\n      add\n      0x20\n      dup1\n      swap2\n      div\n      mul\n      0x20\n      add\n      mload(0x40)\n      swap1\n      dup2\n      add\n      0x40\n      mstore\n      dup1\n      swap3\n      swap2\n      swap1\n      dup2\n      dup2\n      mstore\n      0x20\n      add\n      dup3\n      dup1\n      sload\n      tag_147\n      swap1\n      tag_106\n      jump\t// in\n    tag_147:\n      dup1\n      iszero\n      tag_148\n      jumpi\n      dup1\n      0x1f\n      lt\n      tag_149\n      jumpi\n      0x0100\n      dup1\n      dup4\n      sload\n      div\n      mul\n      dup4\n      mstore\n      swap2\n      0x20\n      add\n      swap2\n      jump(tag_148)\n    tag_149:\n      dup3\n      add\n      swap2\n      swap1\n      0x00\n      mstore\n      keccak256(0x00, 0x20)\n      swap1\n    tag_150:\n      dup2\n      sload\n      dup2\n      mstore\n      swap1\n      0x01\n      add\n      swap1\n      0x20\n      add\n      dup1\n      dup4\n      gt\n      tag_150\n      jumpi\n      dup3\n      swap1\n      sub\n      0x1f\n      and\n      dup3\n      add\n      swap2\n    tag_148:\n      pop\n      pop\n      pop\n      pop\n      pop\n      dup2\n      mstore\n      0x20\n      add\n      0x01\n      dup3\n      add\n      sload\n      dup2\n      mstore\n      0x20\n      add\n      0x02\n      dup3\n      add\n      dup1\n      sload\n      tag_151\n      swap1\n      tag_106\n      jump\t// in\n    tag_151:\n      dup1\n      0x1f\n      add\n      0x20\n      dup1\n      swap2\n      div\n      mul\n      0x20\n      add\n      mload(0x40)\n      swap1\n      dup2\n      add\n      0x40\n      mstore\n      dup1\n      swap3\n      swap2\n      swap1\n      dup2\n      dup2\n      mstore\n      0x20\n      add\n      dup3\n      dup1\n      sload\n      tag_152\n      swap1\n      tag_106\n      jump\t// in\n    tag_152:\n      dup1\n      iszero\n      tag_153\n      jumpi\n      dup1\n      0x1f\n      lt\n      tag_154\n      jumpi\n      0x0100\n      dup1\n      dup4\n      sload\n      div\n      mul\n      dup4\n      mstore\n      swap2\n      0x20\n      add\n      swap2\n      jump(tag_153)\n    tag_154:\n      dup3\n      add\n      swap2\n      swap1\n      0x00\n      mstore\n      keccak256(0x00, 0x20)\n      swap1\n    tag_155:\n      dup2\n      sload\n      dup2\n      mstore\n      swap1\n      0x01\n      add\n      swap1\n      0x20\n      add\n      dup1\n      dup4\n      gt\n      tag_155\n      jumpi\n      dup3\n      swap1\n      sub\n      0x1f\n      and\n      dup3\n      add\n      swap2\n    tag_153:\n      pop\n      pop\n      pop\n      pop\n      pop\n      dup2\n      mstore\n      pop\n      pop\n      swap1\n      pop\n        /* \"contracts/hospital.sol\":4541:4555  uint totalCost */\n      0x00\n        /* \"contracts/hospital.sol\":4558:4565  service */\n      dup2\n        /* \"contracts/hospital.sol\":4558:4571  service.price */\n      0x20\n      add\n      mload\n        /* \"contracts/hospital.sol\":4541:4571  uint totalCost = service.price */\n      swap1\n      pop\n        /* \"contracts/hospital.sol\":4595:4604  totalCost */\n      dup1\n        /* \"contracts/hospital.sol\":4582:4591  msg.value */\n      callvalue\n        /* \"contracts/hospital.sol\":4582:4604  msg.value == totalCost */\n      eq\n        /* \"contracts/hospital.sol\":4574:4634  require(msg.value == totalCost, \"incorrect payment amount.\") */\n      tag_156\n      jumpi\n      mload(0x40)\n      0x08c379a000000000000000000000000000000000000000000000000000000000\n      dup2\n      mstore\n      0x04\n      add\n      tag_157\n      swap1\n      tag_158\n      jump\t// in\n    tag_157:\n      mload(0x40)\n      dup1\n      swap2\n      sub\n      swap1\n      revert\n    tag_156:\n        /* \"contracts/hospital.sol\":4717:4815  Appointment(msg.sender, _patientName, totalCost , _treatmentDetails, _serviceId, _date , _doctor ) */\n      mload(0x40)\n      dup1\n      0xe0\n      add\n      0x40\n      mstore\n      dup1\n        /* \"contracts/hospital.sol\":4729:4739  msg.sender */\n      caller\n        /* \"contracts/hospital.sol\":4717:4815  Appointment(msg.sender, _patientName, totalCost , _treatmentDetails, _serviceId, _date , _doctor ) */\n      0xffffffffffffffffffffffffffffffffffffffff\n      and\n      dup2\n      mstore\n      0x20\n      add\n        /* \"contracts/hospital.sol\":4741:4753  _patientName */\n      dup9\n        /* \"contracts/hospital.sol\":4717:4815  Appointment(msg.sender, _patientName, totalCost , _treatmentDetails, _serviceId, _date , _doctor ) */\n      dup2\n      mstore\n      0x20\n      add\n        /* \"contracts/hospital.sol\":4755:4764  totalCost */\n      dup3\n        /* \"contracts/hospital.sol\":4717:4815  Appointment(msg.sender, _patientName, totalCost , _treatmentDetails, _serviceId, _date , _doctor ) */\n      dup2\n      mstore\n      0x20\n      add\n        /* \"contracts/hospital.sol\":4767:4784  _treatmentDetails */\n      dup8\n        /* \"contracts/hospital.sol\":4717:4815  Appointment(msg.sender, _patientName, totalCost , _treatmentDetails, _serviceId, _date , _doctor ) */\n      dup2\n      mstore\n      0x20\n      add\n        /* \"contracts/hospital.sol\":4786:4796  _serviceId */\n      dup10\n        /* \"contracts/hospital.sol\":4717:4815  Appointment(msg.sender, _patientName, totalCost , _treatmentDetails, _serviceId, _date , _doctor ) */\n      dup2\n      mstore\n      0x20\n      add\n        /* \"contracts/hospital.sol\":4798:4803  _date */\n      dup7\n        /* \"contracts/hospital.sol\":4717:4815  Appointment(msg.sender, _patientName, totalCost , _treatmentDetails, _serviceId, _date , _doctor ) */\n      dup2\n      mstore\n      0x20\n      add\n        /* \"contracts/hospital.sol\":4806:4813  _doctor */\n      dup6\n        /* \"contracts/hospital.sol\":4717:4815  Appointment(msg.sender, _patientName, totalCost , _treatmentDetails, _serviceId, _date , _doctor ) */\n      dup2\n      mstore\n      pop\n        /* \"contracts/hospital.sol\":4678:4697  AppointmentSchedule */\n      0x05\n        /* \"contracts/hospital.sol\":4678:4715  AppointmentSchedule[appointmentCount] */\n      0x00\n        /* \"contracts/hospital.sol\":4698:4714  appointmentCount */\n      sload(0x06)\n        /* \"contracts/hospital.sol\":4678:4715  AppointmentSchedule[appointmentCount] */\n      dup2\n      mstore\n      0x20\n      add\n      swap1\n      dup2\n      mstore\n      0x20\n      add\n      0x00\n      keccak256\n        /* \"contracts/hospital.sol\":4678:4815  AppointmentSchedule[appointmentCount]= Appointment(msg.sender, _patientName, totalCost , _treatmentDetails, _serviceId, _date , _doctor ) */\n      0x00\n      dup3\n      add\n      mload\n      dup2\n      0x00\n      add\n      exp(0x0100, 0x00)\n      dup2\n      sload\n      dup2\n      0xffffffffffffffffffffffffffffffffffffffff\n      mul\n      not\n      and\n      swap1\n      dup4\n      0xffffffffffffffffffffffffffffffffffffffff\n      and\n      mul\n      or\n      swap1\n      sstore\n      pop\n      0x20\n      dup3\n      add\n      mload\n      dup2\n      0x01\n      add\n      swap1\n      dup2\n      tag_159\n      swap2\n      swap1\n      tag_101\n      jump\t// in\n    tag_159:\n      pop\n      0x40\n      dup3\n      add\n      mload\n      dup2\n      0x02\n      add\n      sstore\n      0x60\n      dup3\n      add\n      mload\n      dup2\n      0x03\n      add\n      swap1\n      dup2\n      tag_160\n      swap2\n      swap1\n      tag_101\n      jump\t// in\n    tag_160:\n      pop\n      0x80\n      dup3\n      add\n      mload\n      dup2\n      0x04\n      add\n      sstore\n      0xa0\n      dup3\n      add\n      mload\n      dup2\n      0x05\n      add\n      sstore\n      0xc0\n      dup3\n      add\n      mload\n      dup2\n      0x06\n      add\n      swap1\n      dup2\n      tag_161\n      swap2\n      swap1\n      tag_101\n      jump\t// in\n    tag_161:\n      pop\n      swap1\n      pop\n      pop\n        /* \"contracts/hospital.sol\":4838:4847  msg.value */\n      callvalue\n        /* \"contracts/hospital.sol\":4822:4834  adminBalance */\n      0x01\n      0x00\n        /* \"contracts/hospital.sol\":4822:4847  adminBalance += msg.value */\n      dup3\n      dup3\n      sload\n      tag_162\n      swap2\n      swap1\n      tag_163\n      jump\t// in\n    tag_162:\n      swap3\n      pop\n      pop\n      dup2\n      swap1\n      sstore\n      pop\n        /* \"contracts/hospital.sol\":4902:4989  AppointmentMade ( msg.sender, _serviceId, _date, totalCost, _doctor, _treatmentDetails) */\n      0x707725ccac2042cfcafe3472728783204e19bc16e50d3e27e7f0fd9290407f6a\n        /* \"contracts/hospital.sol\":4920:4930  msg.sender */\n      caller\n        /* \"contracts/hospital.sol\":4932:4942  _serviceId */\n      dup10\n        /* \"contracts/hospital.sol\":4944:4949  _date */\n      dup8\n        /* \"contracts/hospital.sol\":4951:4960  totalCost */\n      dup5\n        /* \"contracts/hospital.sol\":4962:4969  _doctor */\n      dup9\n        /* \"contracts/hospital.sol\":4971:4988  _treatmentDetails */\n      dup12\n        /* \"contracts/hospital.sol\":4902:4989  AppointmentMade ( msg.sender, _serviceId, _date, totalCost, _doctor, _treatmentDetails) */\n      mload(0x40)\n      tag_164\n      swap7\n      swap6\n      swap5\n      swap4\n      swap3\n      swap2\n      swap1\n      tag_165\n      jump\t// in\n    tag_164:\n      mload(0x40)\n      dup1\n      swap2\n      sub\n      swap1\n      log1\n        /* \"contracts/hospital.sol\":4997:5042  PaymentReceived(msg.sender, msg.value, _date) */\n      0x5677b5d4cf976ac32defbd95a6a5aaf0d1fee450a11fc26f3c11aae6e6c33d06\n        /* \"contracts/hospital.sol\":5013:5023  msg.sender */\n      caller\n        /* \"contracts/hospital.sol\":5025:5034  msg.value */\n      callvalue\n        /* \"contracts/hospital.sol\":5036:5041  _date */\n      dup8\n        /* \"contracts/hospital.sol\":4997:5042  PaymentReceived(msg.sender, msg.value, _date) */\n      mload(0x40)\n      tag_166\n      swap4\n      swap3\n      swap2\n      swap1\n      tag_167\n      jump\t// in\n    tag_166:\n      mload(0x40)\n      dup1\n      swap2\n      sub\n      swap1\n      log1\n        /* \"contracts/hospital.sol\":4306:5046  {... */\n      pop\n      pop\n        /* \"contracts/hospital.sol\":4119:5046  function makeAppointment (uint _serviceId, string memory _patientName , string memory _treatmentDetails, uint _date, string memory _doctor  ) public payable patientRegistered(msg.sender) {... */\n      pop\n      pop\n      pop\n      pop\n      pop\n      pop\n      jump\t// out\n        /* \"contracts/hospital.sol\":5375:5684  function getServicesMenu(uint _serviceId) public view returns ( string memory name, uint price){... */\n    tag_60:\n        /* \"contracts/hospital.sol\":5439:5457  string memory name */\n      0x60\n        /* \"contracts/hospital.sol\":5459:5469  uint price */\n      0x00\n        /* \"contracts/hospital.sol\":5498:5514  serviceMenuCount */\n      sload(0x03)\n        /* \"contracts/hospital.sol\":5485:5495  _serviceId */\n      dup4\n        /* \"contracts/hospital.sol\":5485:5514  _serviceId < serviceMenuCount */\n      lt\n        /* \"contracts/hospital.sol\":5477:5535  require(_serviceId < serviceMenuCount, \"invalid service \") */\n      tag_169\n      jumpi\n      mload(0x40)\n      0x08c379a000000000000000000000000000000000000000000000000000000000\n      dup2\n      mstore\n      0x04\n      add\n      tag_170\n      swap1\n      tag_171\n      jump\t// in\n    tag_170:\n      mload(0x40)\n      dup1\n      swap2\n      sub\n      swap1\n      revert\n    tag_169:\n        /* \"contracts/hospital.sol\":5571:5598  servicesMenu memory service */\n      0x00\n        /* \"contracts/hospital.sol\":5601:5609  services */\n      0x02\n        /* \"contracts/hospital.sol\":5601:5621  services[_serviceId] */\n      0x00\n        /* \"contracts/hospital.sol\":5610:5620  _serviceId */\n      dup6\n        /* \"contracts/hospital.sol\":5601:5621  services[_serviceId] */\n      dup2\n      mstore\n      0x20\n      add\n      swap1\n      dup2\n      mstore\n      0x20\n      add\n      0x00\n      keccak256\n        /* \"contracts/hospital.sol\":5571:5621  servicesMenu memory service = services[_serviceId] */\n      mload(0x40)\n      dup1\n      0x60\n      add\n      0x40\n      mstore\n      swap1\n      dup2\n      0x00\n      dup3\n      add\n      dup1\n      sload\n      tag_172\n      swap1\n      tag_106\n      jump\t// in\n    tag_172:\n      dup1\n      0x1f\n      add\n      0x20\n      dup1\n      swap2\n      div\n      mul\n      0x20\n      add\n      mload(0x40)\n      swap1\n      dup2\n      add\n      0x40\n      mstore\n      dup1\n      swap3\n      swap2\n      swap1\n      dup2\n      dup2\n      mstore\n      0x20\n      add\n      dup3\n      dup1\n      sload\n      tag_173\n      swap1\n      tag_106\n      jump\t// in\n    tag_173:\n      dup1\n      iszero\n      tag_174\n      jumpi\n      dup1\n      0x1f\n      lt\n      tag_175\n      jumpi\n      0x0100\n      dup1\n      dup4\n      sload\n      div\n      mul\n      dup4\n      mstore\n      swap2\n      0x20\n      add\n      swap2\n      jump(tag_174)\n    tag_175:\n      dup3\n      add\n      swap2\n      swap1\n      0x00\n      mstore\n      keccak256(0x00, 0x20)\n      swap1\n    tag_176:\n      dup2\n      sload\n      dup2\n      mstore\n      swap1\n      0x01\n      add\n      swap1\n      0x20\n      add\n      dup1\n      dup4\n      gt\n      tag_176\n      jumpi\n      dup3\n      swap1\n      sub\n      0x1f\n      and\n      dup3\n      add\n      swap2\n    tag_174:\n      pop\n      pop\n      pop\n      pop\n      pop\n      dup2\n      mstore\n      0x20\n      add\n      0x01\n      dup3\n      add\n      sload\n      dup2\n      mstore\n      0x20\n      add\n      0x02\n      dup3\n      add\n      dup1\n      sload\n      tag_177\n      swap1\n      tag_106\n      jump\t// in\n    tag_177:\n      dup1\n      0x1f\n      add\n      0x20\n      dup1\n      swap2\n      div\n      mul\n      0x20\n      add\n      mload(0x40)\n      swap1\n      dup2\n      add\n      0x40\n      mstore\n      dup1\n      swap3\n      swap2\n      swap1\n      dup2\n      dup2\n      mstore\n      0x20\n      add\n      dup3\n      dup1\n      sload\n      tag_178\n      swap1\n      tag_106\n      jump\t// in\n    tag_178:\n      dup1\n      iszero\n      tag_179\n      jumpi\n      dup1\n      0x1f\n      lt\n      tag_180\n      jumpi\n      0x0100\n      dup1\n      dup4\n      sload\n      div\n      mul\n      dup4\n      mstore\n      swap2\n      0x20\n      add\n      swap2\n      jump(tag_179)\n    tag_180:\n      dup3\n      add\n      swap2\n      swap1\n      0x00\n      mstore\n      keccak256(0x00, 0x20)\n      swap1\n    tag_181:\n      dup2\n      sload\n      dup2\n      mstore\n      swap1\n      0x01\n      add\n      swap1\n      0x20\n      add\n      dup1\n      dup4\n      gt\n      tag_181\n      jumpi\n      dup3\n      swap1\n      sub\n      0x1f\n      and\n      dup3\n      add\n      swap2\n    tag_179:\n      pop\n      pop\n      pop\n      pop\n      pop\n      dup2\n      mstore\n      pop\n      pop\n      swap1\n      pop\n        /* \"contracts/hospital.sol\":5635:5642  service */\n      dup1\n        /* \"contracts/hospital.sol\":5635:5654  service.serviceName */\n      0x00\n      add\n      mload\n        /* \"contracts/hospital.sol\":5656:5663  service */\n      dup2\n        /* \"contracts/hospital.sol\":5656:5669  service.price */\n      0x20\n      add\n      mload\n        /* \"contracts/hospital.sol\":5628:5670  return(service.serviceName, service.price) */\n      swap3\n      pop\n      swap3\n      pop\n      pop\n        /* \"contracts/hospital.sol\":5375:5684  function getServicesMenu(uint _serviceId) public view returns ( string memory name, uint price){... */\n      swap2\n      pop\n      swap2\n      jump\t// out\n        /* \"contracts/hospital.sol\":268:292  uint public adminBalance */\n    tag_65:\n      sload(0x01)\n      dup2\n      jump\t// out\n        /* \"contracts/hospital.sol\":2977:3442  function addServiceMenu (string memory _serviceName, uint _price, string memory _doctorName ) public onlyAdmin {... */\n    tag_71:\n        /* \"contracts/hospital.sol\":2249:2262  administrator */\n      0x00\n      dup1\n      sload\n      swap1\n      0x0100\n      exp\n      swap1\n      div\n      0xffffffffffffffffffffffffffffffffffffffff\n      and\n        /* \"contracts/hospital.sol\":2235:2262  msg.sender == administrator */\n      0xffffffffffffffffffffffffffffffffffffffff\n      and\n        /* \"contracts/hospital.sol\":2235:2245  msg.sender */\n      caller\n        /* \"contracts/hospital.sol\":2235:2262  msg.sender == administrator */\n      0xffffffffffffffffffffffffffffffffffffffff\n      and\n      eq\n        /* \"contracts/hospital.sol\":2227:2306  require(msg.sender == administrator, \"only the admin can perform this action.\") */\n      tag_183\n      jumpi\n      mload(0x40)\n      0x08c379a000000000000000000000000000000000000000000000000000000000\n      dup2\n      mstore\n      0x04\n      add\n      tag_184\n      swap1\n      tag_134\n      jump\t// in\n    tag_184:\n      mload(0x40)\n      dup1\n      swap2\n      sub\n      swap1\n      revert\n    tag_183:\n        /* \"contracts/hospital.sol\":3174:3223  servicesMenu(_serviceName, _price, _doctorName  ) */\n      mload(0x40)\n      dup1\n      0x60\n      add\n      0x40\n      mstore\n      dup1\n        /* \"contracts/hospital.sol\":3187:3199  _serviceName */\n      dup5\n        /* \"contracts/hospital.sol\":3174:3223  servicesMenu(_serviceName, _price, _doctorName  ) */\n      dup2\n      mstore\n      0x20\n      add\n        /* \"contracts/hospital.sol\":3201:3207  _price */\n      dup4\n        /* \"contracts/hospital.sol\":3174:3223  servicesMenu(_serviceName, _price, _doctorName  ) */\n      dup2\n      mstore\n      0x20\n      add\n        /* \"contracts/hospital.sol\":3209:3220  _doctorName */\n      dup3\n        /* \"contracts/hospital.sol\":3174:3223  servicesMenu(_serviceName, _price, _doctorName  ) */\n      dup2\n      mstore\n      pop\n        /* \"contracts/hospital.sol\":3146:3154  services */\n      0x02\n        /* \"contracts/hospital.sol\":3146:3172  services[serviceMenuCount] */\n      0x00\n        /* \"contracts/hospital.sol\":3155:3171  serviceMenuCount */\n      sload(0x03)\n        /* \"contracts/hospital.sol\":3146:3172  services[serviceMenuCount] */\n      dup2\n      mstore\n      0x20\n      add\n      swap1\n      dup2\n      mstore\n      0x20\n      add\n      0x00\n      keccak256\n        /* \"contracts/hospital.sol\":3146:3223  services[serviceMenuCount]= servicesMenu(_serviceName, _price, _doctorName  ) */\n      0x00\n      dup3\n      add\n      mload\n      dup2\n      0x00\n      add\n      swap1\n      dup2\n      tag_186\n      swap2\n      swap1\n      tag_101\n      jump\t// in\n    tag_186:\n      pop\n      0x20\n      dup3\n      add\n      mload\n      dup2\n      0x01\n      add\n      sstore\n      0x40\n      dup3\n      add\n      mload\n      dup2\n      0x02\n      add\n      swap1\n      dup2\n      tag_187\n      swap2\n      swap1\n      tag_101\n      jump\t// in\n    tag_187:\n      pop\n      swap1\n      pop\n      pop\n        /* \"contracts/hospital.sol\":3231:3300  ServiceMenuAdded(serviceMenuCount, _serviceName, _price, _doctorName) */\n      0xb27e269517a15639f2624504558daa9b3cef5cce6eb77f0a8a563abf10838706\n        /* \"contracts/hospital.sol\":3248:3264  serviceMenuCount */\n      sload(0x03)\n        /* \"contracts/hospital.sol\":3266:3278  _serviceName */\n      dup5\n        /* \"contracts/hospital.sol\":3280:3286  _price */\n      dup5\n        /* \"contracts/hospital.sol\":3288:3299  _doctorName */\n      dup5\n        /* \"contracts/hospital.sol\":3231:3300  ServiceMenuAdded(serviceMenuCount, _serviceName, _price, _doctorName) */\n      mload(0x40)\n      tag_188\n      swap5\n      swap4\n      swap3\n      swap2\n      swap1\n      tag_189\n      jump\t// in\n    tag_188:\n      mload(0x40)\n      dup1\n      swap2\n      sub\n      swap1\n      log1\n        /* \"contracts/hospital.sol\":3374:3390  serviceMenuCount */\n      0x03\n      0x00\n        /* \"contracts/hospital.sol\":3374:3392  serviceMenuCount++ */\n      dup2\n      sload\n      dup1\n      swap3\n      swap2\n      swap1\n      tag_190\n      swap1\n      tag_191\n      jump\t// in\n    tag_190:\n      swap2\n      swap1\n      pop\n      sstore\n      pop\n        /* \"contracts/hospital.sol\":2977:3442  function addServiceMenu (string memory _serviceName, uint _price, string memory _doctorName ) public onlyAdmin {... */\n      pop\n      pop\n      pop\n      jump\t// out\n        /* \"contracts/hospital.sol\":5775:5880  function newDoctor(address _doctor) public onlyAdmin {... */\n    tag_75:\n        /* \"contracts/hospital.sol\":2249:2262  administrator */\n      0x00\n      dup1\n      sload\n      swap1\n      0x0100\n      exp\n      swap1\n      div\n      0xffffffffffffffffffffffffffffffffffffffff\n      and\n        /* \"contracts/hospital.sol\":2235:2262  msg.sender == administrator */\n      0xffffffffffffffffffffffffffffffffffffffff\n      and\n        /* \"contracts/hospital.sol\":2235:2245  msg.sender */\n      caller\n        /* \"contracts/hospital.sol\":2235:2262  msg.sender == administrator */\n      0xffffffffffffffffffffffffffffffffffffffff\n      and\n      eq\n        /* \"contracts/hospital.sol\":2227:2306  require(msg.sender == administrator, \"only the admin can perform this action.\") */\n      tag_193\n      jumpi\n      mload(0x40)\n      0x08c379a000000000000000000000000000000000000000000000000000000000\n      dup2\n      mstore\n      0x04\n      add\n      tag_194\n      swap1\n      tag_134\n      jump\t// in\n    tag_194:\n      mload(0x40)\n      dup1\n      swap2\n      sub\n      swap1\n      revert\n    tag_193:\n        /* \"contracts/hospital.sol\":5868:5872  true */\n      0x01\n        /* \"contracts/hospital.sol\":5839:5856  registeredDoctors */\n      0x07\n        /* \"contracts/hospital.sol\":5839:5865  registeredDoctors[_doctor] */\n      0x00\n        /* \"contracts/hospital.sol\":5857:5864  _doctor */\n      dup4\n        /* \"contracts/hospital.sol\":5839:5865  registeredDoctors[_doctor] */\n      0xffffffffffffffffffffffffffffffffffffffff\n      and\n      0xffffffffffffffffffffffffffffffffffffffff\n      and\n      dup2\n      mstore\n      0x20\n      add\n      swap1\n      dup2\n      mstore\n      0x20\n      add\n      0x00\n      keccak256\n      0x00\n        /* \"contracts/hospital.sol\":5839:5872  registeredDoctors[_doctor] = true */\n      0x0100\n      exp\n      dup2\n      sload\n      dup2\n      0xff\n      mul\n      not\n      and\n      swap1\n      dup4\n      iszero\n      iszero\n      mul\n      or\n      swap1\n      sstore\n      pop\n        /* \"contracts/hospital.sol\":5775:5880  function newDoctor(address _doctor) public onlyAdmin {... */\n      pop\n      jump\t// out\n        /* \"contracts/hospital.sol\":5932:6413  function getAppointments(uint _patientId) public view onlyDoctor returns ( address patient,string memory patientName,uint256 amount,string memory treatmentDetails,... */\n    tag_79:\n        /* \"contracts/hospital.sol\":6007:6022  address patient */\n      0x00\n        /* \"contracts/hospital.sol\":6023:6048  string memory patientName */\n      0x60\n        /* \"contracts/hospital.sol\":6049:6063  uint256 amount */\n      0x00\n        /* \"contracts/hospital.sol\":6064:6094  string memory treatmentDetails */\n      0x60\n        /* \"contracts/hospital.sol\":6105:6119  uint serviceId */\n      0x00\n        /* \"contracts/hospital.sol\":6120:6129  uint date */\n      dup1\n        /* \"contracts/hospital.sol\":6131:6151  string memory doctor */\n      0x60\n        /* \"contracts/hospital.sol\":2717:2734  registeredDoctors */\n      0x07\n        /* \"contracts/hospital.sol\":2717:2746  registeredDoctors[msg.sender] */\n      0x00\n        /* \"contracts/hospital.sol\":2735:2745  msg.sender */\n      caller\n        /* \"contracts/hospital.sol\":2717:2746  registeredDoctors[msg.sender] */\n      0xffffffffffffffffffffffffffffffffffffffff\n      and\n      0xffffffffffffffffffffffffffffffffffffffff\n      and\n      dup2\n      mstore\n      0x20\n      add\n      swap1\n      dup2\n      mstore\n      0x20\n      add\n      0x00\n      keccak256\n      0x00\n      swap1\n      sload\n      swap1\n      0x0100\n      exp\n      swap1\n      div\n      0xff\n      and\n        /* \"contracts/hospital.sol\":2709:2804  require(registeredDoctors[msg.sender], \"you must be a registered doctor to perfor this action\") */\n      tag_197\n      jumpi\n      mload(0x40)\n      0x08c379a000000000000000000000000000000000000000000000000000000000\n      dup2\n      mstore\n      0x04\n      add\n      tag_198\n      swap1\n      tag_199\n      jump\t// in\n    tag_198:\n      mload(0x40)\n      dup1\n      swap2\n      sub\n      swap1\n      revert\n    tag_197:\n        /* \"contracts/hospital.sol\":6165:6195  Appointment memory appointment */\n      0x00\n        /* \"contracts/hospital.sol\":6198:6217  AppointmentSchedule */\n      0x05\n        /* \"contracts/hospital.sol\":6198:6229  AppointmentSchedule[_patientId] */\n      0x00\n        /* \"contracts/hospital.sol\":6218:6228  _patientId */\n      dup11\n        /* \"contracts/hospital.sol\":6198:6229  AppointmentSchedule[_patientId] */\n      dup2\n      mstore\n      0x20\n      add\n      swap1\n      dup2\n      mstore\n      0x20\n      add\n      0x00\n      keccak256\n        /* \"contracts/hospital.sol\":6165:6229  Appointment memory appointment = AppointmentSchedule[_patientId] */\n      mload(0x40)\n      dup1\n      0xe0\n      add\n      0x40\n      mstore\n      swap1\n      dup2\n      0x00\n      dup3\n      add\n      0x00\n      swap1\n      sload\n      swap1\n      0x0100\n      exp\n      swap1\n      div\n      0xffffffffffffffffffffffffffffffffffffffff\n      and\n      0xffffffffffffffffffffffffffffffffffffffff\n      and\n      0xffffffffffffffffffffffffffffffffffffffff\n      and\n      dup2\n      mstore\n      0x20\n      add\n      0x01\n      dup3\n      add\n      dup1\n      sload\n      tag_201\n      swap1\n      tag_106\n      jump\t// in\n    tag_201:\n      dup1\n      0x1f\n      add\n      0x20\n      dup1\n      swap2\n      div\n      mul\n      0x20\n      add\n      mload(0x40)\n      swap1\n      dup2\n      add\n      0x40\n      mstore\n      dup1\n      swap3\n      swap2\n      swap1\n      dup2\n      dup2\n      mstore\n      0x20\n      add\n      dup3\n      dup1\n      sload\n      tag_202\n      swap1\n      tag_106\n      jump\t// in\n    tag_202:\n      dup1\n      iszero\n      tag_203\n      jumpi\n      dup1\n      0x1f\n      lt\n      tag_204\n      jumpi\n      0x0100\n      dup1\n      dup4\n      sload\n      div\n      mul\n      dup4\n      mstore\n      swap2\n      0x20\n      add\n      swap2\n      jump(tag_203)\n    tag_204:\n      dup3\n      add\n      swap2\n      swap1\n      0x00\n      mstore\n      keccak256(0x00, 0x20)\n      swap1\n    tag_205:\n      dup2\n      sload\n      dup2\n      mstore\n      swap1\n      0x01\n      add\n      swap1\n      0x20\n      add\n      dup1\n      dup4\n      gt\n      tag_205\n      jumpi\n      dup3\n      swap1\n      sub\n      0x1f\n      and\n      dup3\n      add\n      swap2\n    tag_203:\n      pop\n      pop\n      pop\n      pop\n      pop\n      dup2\n      mstore\n      0x20\n      add\n      0x02\n      dup3\n      add\n      sload\n      dup2\n      mstore\n      0x20\n      add\n      0x03\n      dup3\n      add\n      dup1\n      sload\n      tag_206\n      swap1\n      tag_106\n      jump\t// in\n    tag_206:\n      dup1\n      0x1f\n      add\n      0x20\n      dup1\n      swap2\n      div\n      mul\n      0x20\n      add\n      mload(0x40)\n      swap1\n      dup2\n      add\n      0x40\n      mstore\n      dup1\n      swap3\n      swap2\n      swap1\n      dup2\n      dup2\n      mstore\n      0x20\n      add\n      dup3\n      dup1\n      sload\n      tag_207\n      swap1\n      tag_106\n      jump\t// in\n    tag_207:\n      dup1\n      iszero\n      tag_208\n      jumpi\n      dup1\n      0x1f\n      lt\n      tag_209\n      jumpi\n      0x0100\n      dup1\n      dup4\n      sload\n      div\n      mul\n      dup4\n      mstore\n      swap2\n      0x20\n      add\n      swap2\n      jump(tag_208)\n    tag_209:\n      dup3\n      add\n      swap2\n      swap1\n      0x00\n      mstore\n      keccak256(0x00, 0x20)\n      swap1\n    tag_210:\n      dup2\n      sload\n      dup2\n      mstore\n      swap1\n      0x01\n      add\n      swap1\n      0x20\n      add\n      dup1\n      dup4\n      gt\n      tag_210\n      jumpi\n      dup3\n      swap1\n      sub\n      0x1f\n      and\n      dup3\n      add\n      swap2\n    tag_208:\n      pop\n      pop\n      pop\n      pop\n      pop\n      dup2\n      mstore\n      0x20\n      add\n      0x04\n      dup3\n      add\n      sload\n      dup2\n      mstore\n      0x20\n      add\n      0x05\n      dup3\n      add\n      sload\n      dup2\n      mstore\n      0x20\n      add\n      0x06\n      dup3\n      add\n      dup1\n      sload\n      tag_211\n      swap1\n      tag_106\n      jump\t// in\n    tag_211:\n      dup1\n      0x1f\n      add\n      0x20\n      dup1\n      swap2\n      div\n      mul\n      0x20\n      add\n      mload(0x40)\n      swap1\n      dup2\n      add\n      0x40\n      mstore\n      dup1\n      swap3\n      swap2\n      swap1\n      dup2\n      dup2\n      mstore\n      0x20\n      add\n      dup3\n      dup1\n      sload\n      tag_212\n      swap1\n      tag_106\n      jump\t// in\n    tag_212:\n      dup1\n      iszero\n      tag_213\n      jumpi\n      dup1\n      0x1f\n      lt\n      tag_214\n      jumpi\n      0x0100\n      dup1\n      dup4\n      sload\n      div\n      mul\n      dup4\n      mstore\n      swap2\n      0x20\n      add\n      swap2\n      jump(tag_213)\n    tag_214:\n      dup3\n      add\n      swap2\n      swap1\n      0x00\n      mstore\n      keccak256(0x00, 0x20)\n      swap1\n    tag_215:\n      dup2\n      sload\n      dup2\n      mstore\n      swap1\n      0x01\n      add\n      swap1\n      0x20\n      add\n      dup1\n      dup4\n      gt\n      tag_215\n      jumpi\n      dup3\n      swap1\n      sub\n      0x1f\n      and\n      dup3\n      add\n      swap2\n    tag_213:\n      pop\n      pop\n      pop\n      pop\n      pop\n      dup2\n      mstore\n      pop\n      pop\n      swap1\n      pop\n        /* \"contracts/hospital.sol\":6248:6259  appointment */\n      dup1\n        /* \"contracts/hospital.sol\":6248:6267  appointment.patient */\n      0x00\n      add\n      mload\n        /* \"contracts/hospital.sol\":6269:6280  appointment */\n      dup2\n        /* \"contracts/hospital.sol\":6269:6292  appointment.patientName */\n      0x20\n      add\n      mload\n        /* \"contracts/hospital.sol\":6294:6305  appointment */\n      dup3\n        /* \"contracts/hospital.sol\":6294:6312  appointment.amount */\n      0x40\n      add\n      mload\n        /* \"contracts/hospital.sol\":6313:6324  appointment */\n      dup4\n        /* \"contracts/hospital.sol\":6313:6341  appointment.treatmentDetails */\n      0x60\n      add\n      mload\n        /* \"contracts/hospital.sol\":6343:6354  appointment */\n      dup5\n        /* \"contracts/hospital.sol\":6343:6364  appointment.serviceId */\n      0x80\n      add\n      mload\n        /* \"contracts/hospital.sol\":6366:6377  appointment */\n      dup6\n        /* \"contracts/hospital.sol\":6366:6382  appointment.date */\n      0xa0\n      add\n      mload\n        /* \"contracts/hospital.sol\":6384:6395  appointment */\n      dup7\n        /* \"contracts/hospital.sol\":6384:6402  appointment.doctor */\n      0xc0\n      add\n      mload\n        /* \"contracts/hospital.sol\":6240:6405  return( appointment.patient, appointment.patientName, appointment.amount,appointment.treatmentDetails, appointment.serviceId, appointment.date, appointment.doctor  ) */\n      swap8\n      pop\n      swap8\n      pop\n      swap8\n      pop\n      swap8\n      pop\n      swap8\n      pop\n      swap8\n      pop\n      swap8\n      pop\n      pop\n        /* \"contracts/hospital.sol\":5932:6413  function getAppointments(uint _patientId) public view onlyDoctor returns ( address patient,string memory patientName,uint256 amount,string memory treatmentDetails,... */\n      swap2\n      swap4\n      swap6\n      swap8\n      swap1\n      swap3\n      swap5\n      swap7\n      pop\n      jump\t// out\n        /* \"contracts/hospital.sol\":1079:1124  mapping(uint => servicesMenu) public services */\n    tag_84:\n      mstore(0x20, 0x02)\n      dup1\n      0x00\n      mstore\n      keccak256(0x00, 0x40)\n      0x00\n      swap2\n      pop\n      swap1\n      pop\n      dup1\n      0x00\n      add\n      dup1\n      sload\n      tag_216\n      swap1\n      tag_106\n      jump\t// in\n    tag_216:\n      dup1\n      0x1f\n      add\n      0x20\n      dup1\n      swap2\n      div\n      mul\n      0x20\n      add\n      mload(0x40)\n      swap1\n      dup2\n      add\n      0x40\n      mstore\n      dup1\n      swap3\n      swap2\n      swap1\n      dup2\n      dup2\n      mstore\n      0x20\n      add\n      dup3\n      dup1\n      sload\n      tag_217\n      swap1\n      tag_106\n      jump\t// in\n    tag_217:\n      dup1\n      iszero\n      tag_218\n      jumpi\n      dup1\n      0x1f\n      lt\n      tag_219\n      jumpi\n      0x0100\n      dup1\n      dup4\n      sload\n      div\n      mul\n      dup4\n      mstore\n      swap2\n      0x20\n      add\n      swap2\n      jump(tag_218)\n    tag_219:\n      dup3\n      add\n      swap2\n      swap1\n      0x00\n      mstore\n      keccak256(0x00, 0x20)\n      swap1\n    tag_220:\n      dup2\n      sload\n      dup2\n      mstore\n      swap1\n      0x01\n      add\n      swap1\n      0x20\n      add\n      dup1\n      dup4\n      gt\n      tag_220\n      jumpi\n      dup3\n      swap1\n      sub\n      0x1f\n      and\n      dup3\n      add\n      swap2\n    tag_218:\n      pop\n      pop\n      pop\n      pop\n      pop\n      swap1\n      dup1\n      0x01\n      add\n      sload\n      swap1\n      dup1\n      0x02\n      add\n      dup1\n      sload\n      tag_221\n      swap1\n      tag_106\n      jump\t// in\n    tag_221:\n      dup1\n      0x1f\n      add\n      0x20\n      dup1\n      swap2\n      div\n      mul\n      0x20\n      add\n      mload(0x40)\n      swap1\n      dup2\n      add\n      0x40\n      mstore\n      dup1\n      swap3\n      swap2\n      swap1\n      dup2\n      dup2\n      mstore\n      0x20\n      add\n      dup3\n      dup1\n      sload\n      tag_222\n      swap1\n      tag_106\n      jump\t// in\n    tag_222:\n      dup1\n      iszero\n      tag_223\n      jumpi\n      dup1\n      0x1f\n      lt\n      tag_224\n      jumpi\n      0x0100\n      dup1\n      dup4\n      sload\n      div\n      mul\n      dup4\n      mstore\n      swap2\n      0x20\n      add\n      swap2\n      jump(tag_223)\n    tag_224:\n      dup3\n      add\n      swap2\n      swap1\n      0x00\n      mstore\n      keccak256(0x00, 0x20)\n      swap1\n    tag_225:\n      dup2\n      sload\n      dup2\n      mstore\n      swap1\n      0x01\n      add\n      swap1\n      0x20\n      add\n      dup1\n      dup4\n      gt\n      tag_225\n      jumpi\n      dup3\n      swap1\n      sub\n      0x1f\n      and\n      dup3\n      add\n      swap2\n    tag_223:\n      pop\n      pop\n      pop\n      pop\n      pop\n      swap1\n      pop\n      dup4\n      jump\t// out\n        /* \"contracts/hospital.sol\":1385:1413  uint public appointmentCount */\n    tag_89:\n      sload(0x06)\n      dup2\n      jump\t// out\n        /* \"contracts/hospital.sol\":161:189  address public administrator */\n    tag_93:\n      0x00\n      dup1\n      sload\n      swap1\n      0x0100\n      exp\n      swap1\n      div\n      0xffffffffffffffffffffffffffffffffffffffff\n      and\n      dup2\n      jump\t// out\n        /* \"#utility.yul\":7:82   */\n    tag_226:\n        /* \"#utility.yul\":40:46   */\n      0x00\n        /* \"#utility.yul\":73:75   */\n      0x40\n        /* \"#utility.yul\":67:76   */\n      mload\n        /* \"#utility.yul\":57:76   */\n      swap1\n      pop\n        /* \"#utility.yul\":7:82   */\n      swap1\n      jump\t// out\n        /* \"#utility.yul\":88:205   */\n    tag_227:\n        /* \"#utility.yul\":197:198   */\n      0x00\n        /* \"#utility.yul\":194:195   */\n      dup1\n        /* \"#utility.yul\":187:199   */\n      revert\n        /* \"#utility.yul\":211:328   */\n    tag_228:\n        /* \"#utility.yul\":320:321   */\n      0x00\n        /* \"#utility.yul\":317:318   */\n      dup1\n        /* \"#utility.yul\":310:322   */\n      revert\n        /* \"#utility.yul\":334:451   */\n    tag_229:\n        /* \"#utility.yul\":443:444   */\n      0x00\n        /* \"#utility.yul\":440:441   */\n      dup1\n        /* \"#utility.yul\":433:445   */\n      revert\n        /* \"#utility.yul\":457:574   */\n    tag_230:\n        /* \"#utility.yul\":566:567   */\n      0x00\n        /* \"#utility.yul\":563:564   */\n      dup1\n        /* \"#utility.yul\":556:568   */\n      revert\n        /* \"#utility.yul\":580:682   */\n    tag_231:\n        /* \"#utility.yul\":621:627   */\n      0x00\n        /* \"#utility.yul\":672:674   */\n      0x1f\n        /* \"#utility.yul\":668:675   */\n      not\n        /* \"#utility.yul\":663:665   */\n      0x1f\n        /* \"#utility.yul\":656:661   */\n      dup4\n        /* \"#utility.yul\":652:666   */\n      add\n        /* \"#utility.yul\":648:676   */\n      and\n        /* \"#utility.yul\":638:676   */\n      swap1\n      pop\n        /* \"#utility.yul\":580:682   */\n      swap2\n      swap1\n      pop\n      jump\t// out\n        /* \"#utility.yul\":688:868   */\n    tag_232:\n        /* \"#utility.yul\":736:813   */\n      0x4e487b7100000000000000000000000000000000000000000000000000000000\n        /* \"#utility.yul\":733:734   */\n      0x00\n        /* \"#utility.yul\":726:814   */\n      mstore\n        /* \"#utility.yul\":833:837   */\n      0x41\n        /* \"#utility.yul\":830:831   */\n      0x04\n        /* \"#utility.yul\":823:838   */\n      mstore\n        /* \"#utility.yul\":857:861   */\n      0x24\n        /* \"#utility.yul\":854:855   */\n      0x00\n        /* \"#utility.yul\":847:862   */\n      revert\n        /* \"#utility.yul\":874:1155   */\n    tag_233:\n        /* \"#utility.yul\":957:984   */\n      tag_296\n        /* \"#utility.yul\":979:983   */\n      dup3\n        /* \"#utility.yul\":957:984   */\n      tag_231\n      jump\t// in\n    tag_296:\n        /* \"#utility.yul\":949:955   */\n      dup2\n        /* \"#utility.yul\":945:985   */\n      add\n        /* \"#utility.yul\":1087:1093   */\n      dup2\n        /* \"#utility.yul\":1075:1085   */\n      dup2\n        /* \"#utility.yul\":1072:1094   */\n      lt\n        /* \"#utility.yul\":1051:1069   */\n      0xffffffffffffffff\n        /* \"#utility.yul\":1039:1049   */\n      dup3\n        /* \"#utility.yul\":1036:1070   */\n      gt\n        /* \"#utility.yul\":1033:1095   */\n      or\n        /* \"#utility.yul\":1030:1118   */\n      iszero\n      tag_297\n      jumpi\n        /* \"#utility.yul\":1098:1116   */\n      tag_298\n      tag_232\n      jump\t// in\n    tag_298:\n        /* \"#utility.yul\":1030:1118   */\n    tag_297:\n        /* \"#utility.yul\":1138:1148   */\n      dup1\n        /* \"#utility.yul\":1134:1136   */\n      0x40\n        /* \"#utility.yul\":1127:1149   */\n      mstore\n        /* \"#utility.yul\":917:1155   */\n      pop\n        /* \"#utility.yul\":874:1155   */\n      pop\n      pop\n      jump\t// out\n        /* \"#utility.yul\":1161:1290   */\n    tag_234:\n        /* \"#utility.yul\":1195:1201   */\n      0x00\n        /* \"#utility.yul\":1222:1242   */\n      tag_300\n      tag_226\n      jump\t// in\n    tag_300:\n        /* \"#utility.yul\":1212:1242   */\n      swap1\n      pop\n        /* \"#utility.yul\":1251:1284   */\n      tag_301\n        /* \"#utility.yul\":1279:1283   */\n      dup3\n        /* \"#utility.yul\":1271:1277   */\n      dup3\n        /* \"#utility.yul\":1251:1284   */\n      tag_233\n      jump\t// in\n    tag_301:\n        /* \"#utility.yul\":1161:1290   */\n      swap2\n      swap1\n      pop\n      jump\t// out\n        /* \"#utility.yul\":1296:1604   */\n    tag_235:\n        /* \"#utility.yul\":1358:1362   */\n      0x00\n        /* \"#utility.yul\":1448:1466   */\n      0xffffffffffffffff\n        /* \"#utility.yul\":1440:1446   */\n      dup3\n        /* \"#utility.yul\":1437:1467   */\n      gt\n        /* \"#utility.yul\":1434:1490   */\n      iszero\n      tag_303\n      jumpi\n        /* \"#utility.yul\":1470:1488   */\n      tag_304\n      tag_232\n      jump\t// in\n    tag_304:\n        /* \"#utility.yul\":1434:1490   */\n    tag_303:\n        /* \"#utility.yul\":1508:1537   */\n      tag_305\n        /* \"#utility.yul\":1530:1536   */\n      dup3\n        /* \"#utility.yul\":1508:1537   */\n      tag_231\n      jump\t// in\n    tag_305:\n        /* \"#utility.yul\":1500:1537   */\n      swap1\n      pop\n        /* \"#utility.yul\":1592:1596   */\n      0x20\n        /* \"#utility.yul\":1586:1590   */\n      dup2\n        /* \"#utility.yul\":1582:1597   */\n      add\n        /* \"#utility.yul\":1574:1597   */\n      swap1\n      pop\n        /* \"#utility.yul\":1296:1604   */\n      swap2\n      swap1\n      pop\n      jump\t// out\n        /* \"#utility.yul\":1610:1758   */\n    tag_236:\n        /* \"#utility.yul\":1708:1714   */\n      dup3\n        /* \"#utility.yul\":1703:1706   */\n      dup2\n        /* \"#utility.yul\":1698:1701   */\n      dup4\n        /* \"#utility.yul\":1685:1715   */\n      calldatacopy\n        /* \"#utility.yul\":1749:1750   */\n      0x00\n        /* \"#utility.yul\":1740:1746   */\n      dup4\n        /* \"#utility.yul\":1735:1738   */\n      dup4\n        /* \"#utility.yul\":1731:1747   */\n      add\n        /* \"#utility.yul\":1724:1751   */\n      mstore\n        /* \"#utility.yul\":1610:1758   */\n      pop\n      pop\n      pop\n      jump\t// out\n        /* \"#utility.yul\":1764:2189   */\n    tag_237:\n        /* \"#utility.yul\":1842:1847   */\n      0x00\n        /* \"#utility.yul\":1867:1933   */\n      tag_308\n        /* \"#utility.yul\":1883:1932   */\n      tag_309\n        /* \"#utility.yul\":1925:1931   */\n      dup5\n        /* \"#utility.yul\":1883:1932   */\n      tag_235\n      jump\t// in\n    tag_309:\n        /* \"#utility.yul\":1867:1933   */\n      tag_234\n      jump\t// in\n    tag_308:\n        /* \"#utility.yul\":1858:1933   */\n      swap1\n      pop\n        /* \"#utility.yul\":1956:1962   */\n      dup3\n        /* \"#utility.yul\":1949:1954   */\n      dup2\n        /* \"#utility.yul\":1942:1963   */\n      mstore\n        /* \"#utility.yul\":1994:1998   */\n      0x20\n        /* \"#utility.yul\":1987:1992   */\n      dup2\n        /* \"#utility.yul\":1983:1999   */\n      add\n        /* \"#utility.yul\":2032:2035   */\n      dup5\n        /* \"#utility.yul\":2023:2029   */\n      dup5\n        /* \"#utility.yul\":2018:2021   */\n      dup5\n        /* \"#utility.yul\":2014:2030   */\n      add\n        /* \"#utility.yul\":2011:2036   */\n      gt\n        /* \"#utility.yul\":2008:2120   */\n      iszero\n      tag_310\n      jumpi\n        /* \"#utility.yul\":2039:2118   */\n      tag_311\n      tag_230\n      jump\t// in\n    tag_311:\n        /* \"#utility.yul\":2008:2120   */\n    tag_310:\n        /* \"#utility.yul\":2129:2183   */\n      tag_312\n        /* \"#utility.yul\":2176:2182   */\n      dup5\n        /* \"#utility.yul\":2171:2174   */\n      dup3\n        /* \"#utility.yul\":2166:2169   */\n      dup6\n        /* \"#utility.yul\":2129:2183   */\n      tag_236\n      jump\t// in\n    tag_312:\n        /* \"#utility.yul\":1848:2189   */\n      pop\n        /* \"#utility.yul\":1764:2189   */\n      swap4\n      swap3\n      pop\n      pop\n      pop\n      jump\t// out\n        /* \"#utility.yul\":2209:2549   */\n    tag_238:\n        /* \"#utility.yul\":2265:2270   */\n      0x00\n        /* \"#utility.yul\":2314:2317   */\n      dup3\n        /* \"#utility.yul\":2307:2311   */\n      0x1f\n        /* \"#utility.yul\":2299:2305   */\n      dup4\n        /* \"#utility.yul\":2295:2312   */\n      add\n        /* \"#utility.yul\":2291:2318   */\n      slt\n        /* \"#utility.yul\":2281:2403   */\n      tag_314\n      jumpi\n        /* \"#utility.yul\":2322:2401   */\n      tag_315\n      tag_229\n      jump\t// in\n    tag_315:\n        /* \"#utility.yul\":2281:2403   */\n    tag_314:\n        /* \"#utility.yul\":2439:2445   */\n      dup2\n        /* \"#utility.yul\":2426:2446   */\n      calldataload\n        /* \"#utility.yul\":2464:2543   */\n      tag_316\n        /* \"#utility.yul\":2539:2542   */\n      dup5\n        /* \"#utility.yul\":2531:2537   */\n      dup3\n        /* \"#utility.yul\":2524:2528   */\n      0x20\n        /* \"#utility.yul\":2516:2522   */\n      dup7\n        /* \"#utility.yul\":2512:2529   */\n      add\n        /* \"#utility.yul\":2464:2543   */\n      tag_237\n      jump\t// in\n    tag_316:\n        /* \"#utility.yul\":2455:2543   */\n      swap2\n      pop\n        /* \"#utility.yul\":2271:2549   */\n      pop\n        /* \"#utility.yul\":2209:2549   */\n      swap3\n      swap2\n      pop\n      pop\n      jump\t// out\n        /* \"#utility.yul\":2555:2632   */\n    tag_239:\n        /* \"#utility.yul\":2592:2599   */\n      0x00\n        /* \"#utility.yul\":2621:2626   */\n      dup2\n        /* \"#utility.yul\":2610:2626   */\n      swap1\n      pop\n        /* \"#utility.yul\":2555:2632   */\n      swap2\n      swap1\n      pop\n      jump\t// out\n        /* \"#utility.yul\":2638:2760   */\n    tag_240:\n        /* \"#utility.yul\":2711:2735   */\n      tag_319\n        /* \"#utility.yul\":2729:2734   */\n      dup2\n        /* \"#utility.yul\":2711:2735   */\n      tag_239\n      jump\t// in\n    tag_319:\n        /* \"#utility.yul\":2704:2709   */\n      dup2\n        /* \"#utility.yul\":2701:2736   */\n      eq\n        /* \"#utility.yul\":2691:2754   */\n      tag_320\n      jumpi\n        /* \"#utility.yul\":2750:2751   */\n      0x00\n        /* \"#utility.yul\":2747:2748   */\n      dup1\n        /* \"#utility.yul\":2740:2752   */\n      revert\n        /* \"#utility.yul\":2691:2754   */\n    tag_320:\n        /* \"#utility.yul\":2638:2760   */\n      pop\n      jump\t// out\n        /* \"#utility.yul\":2766:2905   */\n    tag_241:\n        /* \"#utility.yul\":2812:2817   */\n      0x00\n        /* \"#utility.yul\":2850:2856   */\n      dup2\n        /* \"#utility.yul\":2837:2857   */\n      calldataload\n        /* \"#utility.yul\":2828:2857   */\n      swap1\n      pop\n        /* \"#utility.yul\":2866:2899   */\n      tag_322\n        /* \"#utility.yul\":2893:2898   */\n      dup2\n        /* \"#utility.yul\":2866:2899   */\n      tag_240\n      jump\t// in\n    tag_322:\n        /* \"#utility.yul\":2766:2905   */\n      swap3\n      swap2\n      pop\n      pop\n      jump\t// out\n        /* \"#utility.yul\":2911:3001   */\n    tag_242:\n        /* \"#utility.yul\":2945:2952   */\n      0x00\n        /* \"#utility.yul\":2988:2993   */\n      dup2\n        /* \"#utility.yul\":2981:2994   */\n      iszero\n        /* \"#utility.yul\":2974:2995   */\n      iszero\n        /* \"#utility.yul\":2963:2995   */\n      swap1\n      pop\n        /* \"#utility.yul\":2911:3001   */\n      swap2\n      swap1\n      pop\n      jump\t// out\n        /* \"#utility.yul\":3007:3123   */\n    tag_243:\n        /* \"#utility.yul\":3077:3098   */\n      tag_325\n        /* \"#utility.yul\":3092:3097   */\n      dup2\n        /* \"#utility.yul\":3077:3098   */\n      tag_242\n      jump\t// in\n    tag_325:\n        /* \"#utility.yul\":3070:3075   */\n      dup2\n        /* \"#utility.yul\":3067:3099   */\n      eq\n        /* \"#utility.yul\":3057:3117   */\n      tag_326\n      jumpi\n        /* \"#utility.yul\":3113:3114   */\n      0x00\n        /* \"#utility.yul\":3110:3111   */\n      dup1\n        /* \"#utility.yul\":3103:3115   */\n      revert\n        /* \"#utility.yul\":3057:3117   */\n    tag_326:\n        /* \"#utility.yul\":3007:3123   */\n      pop\n      jump\t// out\n        /* \"#utility.yul\":3129:3262   */\n    tag_244:\n        /* \"#utility.yul\":3172:3177   */\n      0x00\n        /* \"#utility.yul\":3210:3216   */\n      dup2\n        /* \"#utility.yul\":3197:3217   */\n      calldataload\n        /* \"#utility.yul\":3188:3217   */\n      swap1\n      pop\n        /* \"#utility.yul\":3226:3256   */\n      tag_328\n        /* \"#utility.yul\":3250:3255   */\n      dup2\n        /* \"#utility.yul\":3226:3256   */\n      tag_243\n      jump\t// in\n    tag_328:\n        /* \"#utility.yul\":3129:3262   */\n      swap3\n      swap2\n      pop\n      pop\n      jump\t// out\n        /* \"#utility.yul\":3268:4387   */\n    tag_23:\n        /* \"#utility.yul\":3371:3377   */\n      0x00\n        /* \"#utility.yul\":3379:3385   */\n      dup1\n        /* \"#utility.yul\":3387:3393   */\n      0x00\n        /* \"#utility.yul\":3395:3401   */\n      dup1\n        /* \"#utility.yul\":3444:3447   */\n      0x80\n        /* \"#utility.yul\":3432:3441   */\n      dup6\n        /* \"#utility.yul\":3423:3430   */\n      dup8\n        /* \"#utility.yul\":3419:3442   */\n      sub\n        /* \"#utility.yul\":3415:3448   */\n      slt\n        /* \"#utility.yul\":3412:3532   */\n      iszero\n      tag_330\n      jumpi\n        /* \"#utility.yul\":3451:3530   */\n      tag_331\n      tag_227\n      jump\t// in\n    tag_331:\n        /* \"#utility.yul\":3412:3532   */\n    tag_330:\n        /* \"#utility.yul\":3599:3600   */\n      0x00\n        /* \"#utility.yul\":3588:3597   */\n      dup6\n        /* \"#utility.yul\":3584:3601   */\n      add\n        /* \"#utility.yul\":3571:3602   */\n      calldataload\n        /* \"#utility.yul\":3629:3647   */\n      0xffffffffffffffff\n        /* \"#utility.yul\":3621:3627   */\n      dup2\n        /* \"#utility.yul\":3618:3648   */\n      gt\n        /* \"#utility.yul\":3615:3732   */\n      iszero\n      tag_332\n      jumpi\n        /* \"#utility.yul\":3651:3730   */\n      tag_333\n      tag_228\n      jump\t// in\n    tag_333:\n        /* \"#utility.yul\":3615:3732   */\n    tag_332:\n        /* \"#utility.yul\":3756:3819   */\n      tag_334\n        /* \"#utility.yul\":3811:3818   */\n      dup8\n        /* \"#utility.yul\":3802:3808   */\n      dup3\n        /* \"#utility.yul\":3791:3800   */\n      dup9\n        /* \"#utility.yul\":3787:3809   */\n      add\n        /* \"#utility.yul\":3756:3819   */\n      tag_238\n      jump\t// in\n    tag_334:\n        /* \"#utility.yul\":3746:3819   */\n      swap5\n      pop\n        /* \"#utility.yul\":3542:3829   */\n      pop\n        /* \"#utility.yul\":3896:3898   */\n      0x20\n        /* \"#utility.yul\":3885:3894   */\n      dup6\n        /* \"#utility.yul\":3881:3899   */\n      add\n        /* \"#utility.yul\":3868:3900   */\n      calldataload\n        /* \"#utility.yul\":3927:3945   */\n      0xffffffffffffffff\n        /* \"#utility.yul\":3919:3925   */\n      dup2\n        /* \"#utility.yul\":3916:3946   */\n      gt\n        /* \"#utility.yul\":3913:4030   */\n      iszero\n      tag_335\n      jumpi\n        /* \"#utility.yul\":3949:4028   */\n      tag_336\n      tag_228\n      jump\t// in\n    tag_336:\n        /* \"#utility.yul\":3913:4030   */\n    tag_335:\n        /* \"#utility.yul\":4054:4117   */\n      tag_337\n        /* \"#utility.yul\":4109:4116   */\n      dup8\n        /* \"#utility.yul\":4100:4106   */\n      dup3\n        /* \"#utility.yul\":4089:4098   */\n      dup9\n        /* \"#utility.yul\":4085:4107   */\n      add\n        /* \"#utility.yul\":4054:4117   */\n      tag_238\n      jump\t// in\n    tag_337:\n        /* \"#utility.yul\":4044:4117   */\n      swap4\n      pop\n        /* \"#utility.yul\":3839:4127   */\n      pop\n        /* \"#utility.yul\":4166:4168   */\n      0x40\n        /* \"#utility.yul\":4192:4245   */\n      tag_338\n        /* \"#utility.yul\":4237:4244   */\n      dup8\n        /* \"#utility.yul\":4228:4234   */\n      dup3\n        /* \"#utility.yul\":4217:4226   */\n      dup9\n        /* \"#utility.yul\":4213:4235   */\n      add\n        /* \"#utility.yul\":4192:4245   */\n      tag_241\n      jump\t// in\n    tag_338:\n        /* \"#utility.yul\":4182:4245   */\n      swap3\n      pop\n        /* \"#utility.yul\":4137:4255   */\n      pop\n        /* \"#utility.yul\":4294:4296   */\n      0x60\n        /* \"#utility.yul\":4320:4370   */\n      tag_339\n        /* \"#utility.yul\":4362:4369   */\n      dup8\n        /* \"#utility.yul\":4353:4359   */\n      dup3\n        /* \"#utility.yul\":4342:4351   */\n      dup9\n        /* \"#utility.yul\":4338:4360   */\n      add\n        /* \"#utility.yul\":4320:4370   */\n      tag_244\n      jump\t// in\n    tag_339:\n        /* \"#utility.yul\":4310:4370   */\n      swap2\n      pop\n        /* \"#utility.yul\":4265:4380   */\n      pop\n        /* \"#utility.yul\":3268:4387   */\n      swap3\n      swap6\n      swap2\n      swap5\n      pop\n      swap3\n      pop\n      jump\t// out\n        /* \"#utility.yul\":4393:4519   */\n    tag_245:\n        /* \"#utility.yul\":4430:4437   */\n      0x00\n        /* \"#utility.yul\":4470:4512   */\n      0xffffffffffffffffffffffffffffffffffffffff\n        /* \"#utility.yul\":4463:4468   */\n      dup3\n        /* \"#utility.yul\":4459:4513   */\n      and\n        /* \"#utility.yul\":4448:4513   */\n      swap1\n      pop\n        /* \"#utility.yul\":4393:4519   */\n      swap2\n      swap1\n      pop\n      jump\t// out\n        /* \"#utility.yul\":4525:4621   */\n    tag_246:\n        /* \"#utility.yul\":4562:4569   */\n      0x00\n        /* \"#utility.yul\":4591:4615   */\n      tag_342\n        /* \"#utility.yul\":4609:4614   */\n      dup3\n        /* \"#utility.yul\":4591:4615   */\n      tag_245\n      jump\t// in\n    tag_342:\n        /* \"#utility.yul\":4580:4615   */\n      swap1\n      pop\n        /* \"#utility.yul\":4525:4621   */\n      swap2\n      swap1\n      pop\n      jump\t// out\n        /* \"#utility.yul\":4627:4749   */\n    tag_247:\n        /* \"#utility.yul\":4700:4724   */\n      tag_344\n        /* \"#utility.yul\":4718:4723   */\n      dup2\n        /* \"#utility.yul\":4700:4724   */\n      tag_246\n      jump\t// in\n    tag_344:\n        /* \"#utility.yul\":4693:4698   */\n      dup2\n        /* \"#utility.yul\":4690:4725   */\n      eq\n        /* \"#utility.yul\":4680:4743   */\n      tag_345\n      jumpi\n        /* \"#utility.yul\":4739:4740   */\n      0x00\n        /* \"#utility.yul\":4736:4737   */\n      dup1\n        /* \"#utility.yul\":4729:4741   */\n      revert\n        /* \"#utility.yul\":4680:4743   */\n    tag_345:\n        /* \"#utility.yul\":4627:4749   */\n      pop\n      jump\t// out\n        /* \"#utility.yul\":4755:4894   */\n    tag_248:\n        /* \"#utility.yul\":4801:4806   */\n      0x00\n        /* \"#utility.yul\":4839:4845   */\n      dup2\n        /* \"#utility.yul\":4826:4846   */\n      calldataload\n        /* \"#utility.yul\":4817:4846   */\n      swap1\n      pop\n        /* \"#utility.yul\":4855:4888   */\n      tag_347\n        /* \"#utility.yul\":4882:4887   */\n      dup2\n        /* \"#utility.yul\":4855:4888   */\n      tag_247\n      jump\t// in\n    tag_347:\n        /* \"#utility.yul\":4755:4894   */\n      swap3\n      swap2\n      pop\n      pop\n      jump\t// out\n        /* \"#utility.yul\":4900:5229   */\n    tag_28:\n        /* \"#utility.yul\":4959:4965   */\n      0x00\n        /* \"#utility.yul\":5008:5010   */\n      0x20\n        /* \"#utility.yul\":4996:5005   */\n      dup3\n        /* \"#utility.yul\":4987:4994   */\n      dup5\n        /* \"#utility.yul\":4983:5006   */\n      sub\n        /* \"#utility.yul\":4979:5011   */\n      slt\n        /* \"#utility.yul\":4976:5095   */\n      iszero\n      tag_349\n      jumpi\n        /* \"#utility.yul\":5014:5093   */\n      tag_350\n      tag_227\n      jump\t// in\n    tag_350:\n        /* \"#utility.yul\":4976:5095   */\n    tag_349:\n        /* \"#utility.yul\":5134:5135   */\n      0x00\n        /* \"#utility.yul\":5159:5212   */\n      tag_351\n        /* \"#utility.yul\":5204:5211   */\n      dup5\n        /* \"#utility.yul\":5195:5201   */\n      dup3\n        /* \"#utility.yul\":5184:5193   */\n      dup6\n        /* \"#utility.yul\":5180:5202   */\n      add\n        /* \"#utility.yul\":5159:5212   */\n      tag_248\n      jump\t// in\n    tag_351:\n        /* \"#utility.yul\":5149:5212   */\n      swap2\n      pop\n        /* \"#utility.yul\":5105:5222   */\n      pop\n        /* \"#utility.yul\":4900:5229   */\n      swap3\n      swap2\n      pop\n      pop\n      jump\t// out\n        /* \"#utility.yul\":5235:5334   */\n    tag_249:\n        /* \"#utility.yul\":5287:5293   */\n      0x00\n        /* \"#utility.yul\":5321:5326   */\n      dup2\n        /* \"#utility.yul\":5315:5327   */\n      mload\n        /* \"#utility.yul\":5305:5327   */\n      swap1\n      pop\n        /* \"#utility.yul\":5235:5334   */\n      swap2\n      swap1\n      pop\n      jump\t// out\n        /* \"#utility.yul\":5340:5509   */\n    tag_250:\n        /* \"#utility.yul\":5424:5435   */\n      0x00\n        /* \"#utility.yul\":5458:5464   */\n      dup3\n        /* \"#utility.yul\":5453:5456   */\n      dup3\n        /* \"#utility.yul\":5446:5465   */\n      mstore\n        /* \"#utility.yul\":5498:5502   */\n      0x20\n        /* \"#utility.yul\":5493:5496   */\n      dup3\n        /* \"#utility.yul\":5489:5503   */\n      add\n        /* \"#utility.yul\":5474:5503   */\n      swap1\n      pop\n        /* \"#utility.yul\":5340:5509   */\n      swap3\n      swap2\n      pop\n      pop\n      jump\t// out\n        /* \"#utility.yul\":5515:5654   */\n    tag_251:\n        /* \"#utility.yul\":5604:5610   */\n      dup3\n        /* \"#utility.yul\":5599:5602   */\n      dup2\n        /* \"#utility.yul\":5594:5597   */\n      dup4\n        /* \"#utility.yul\":5588:5611   */\n      mcopy\n        /* \"#utility.yul\":5645:5646   */\n      0x00\n        /* \"#utility.yul\":5636:5642   */\n      dup4\n        /* \"#utility.yul\":5631:5634   */\n      dup4\n        /* \"#utility.yul\":5627:5643   */\n      add\n        /* \"#utility.yul\":5620:5647   */\n      mstore\n        /* \"#utility.yul\":5515:5654   */\n      pop\n      pop\n      pop\n      jump\t// out\n        /* \"#utility.yul\":5660:6037   */\n    tag_252:\n        /* \"#utility.yul\":5748:5751   */\n      0x00\n        /* \"#utility.yul\":5776:5815   */\n      tag_356\n        /* \"#utility.yul\":5809:5814   */\n      dup3\n        /* \"#utility.yul\":5776:5815   */\n      tag_249\n      jump\t// in\n    tag_356:\n        /* \"#utility.yul\":5831:5902   */\n      tag_357\n        /* \"#utility.yul\":5895:5901   */\n      dup2\n        /* \"#utility.yul\":5890:5893   */\n      dup6\n        /* \"#utility.yul\":5831:5902   */\n      tag_250\n      jump\t// in\n    tag_357:\n        /* \"#utility.yul\":5824:5902   */\n      swap4\n      pop\n        /* \"#utility.yul\":5911:5976   */\n      tag_358\n        /* \"#utility.yul\":5969:5975   */\n      dup2\n        /* \"#utility.yul\":5964:5967   */\n      dup6\n        /* \"#utility.yul\":5957:5961   */\n      0x20\n        /* \"#utility.yul\":5950:5955   */\n      dup7\n        /* \"#utility.yul\":5946:5962   */\n      add\n        /* \"#utility.yul\":5911:5976   */\n      tag_251\n      jump\t// in\n    tag_358:\n        /* \"#utility.yul\":6001:6030   */\n      tag_359\n        /* \"#utility.yul\":6023:6029   */\n      dup2\n        /* \"#utility.yul\":6001:6030   */\n      tag_231\n      jump\t// in\n    tag_359:\n        /* \"#utility.yul\":5996:5999   */\n      dup5\n        /* \"#utility.yul\":5992:6031   */\n      add\n        /* \"#utility.yul\":5985:6031   */\n      swap2\n      pop\n        /* \"#utility.yul\":5752:6037   */\n      pop\n        /* \"#utility.yul\":5660:6037   */\n      swap3\n      swap2\n      pop\n      pop\n      jump\t// out\n        /* \"#utility.yul\":6043:6161   */\n    tag_253:\n        /* \"#utility.yul\":6130:6154   */\n      tag_361\n        /* \"#utility.yul\":6148:6153   */\n      dup2\n        /* \"#utility.yul\":6130:6154   */\n      tag_239\n      jump\t// in\n    tag_361:\n        /* \"#utility.yul\":6125:6128   */\n      dup3\n        /* \"#utility.yul\":6118:6155   */\n      mstore\n        /* \"#utility.yul\":6043:6161   */\n      pop\n      pop\n      jump\t// out\n        /* \"#utility.yul\":6167:6276   */\n    tag_254:\n        /* \"#utility.yul\":6248:6269   */\n      tag_363\n        /* \"#utility.yul\":6263:6268   */\n      dup2\n        /* \"#utility.yul\":6248:6269   */\n      tag_242\n      jump\t// in\n    tag_363:\n        /* \"#utility.yul\":6243:6246   */\n      dup3\n        /* \"#utility.yul\":6236:6270   */\n      mstore\n        /* \"#utility.yul\":6167:6276   */\n      pop\n      pop\n      jump\t// out\n        /* \"#utility.yul\":6282:7005   */\n    tag_31:\n        /* \"#utility.yul\":6493:6497   */\n      0x00\n        /* \"#utility.yul\":6531:6534   */\n      0x80\n        /* \"#utility.yul\":6520:6529   */\n      dup3\n        /* \"#utility.yul\":6516:6535   */\n      add\n        /* \"#utility.yul\":6508:6535   */\n      swap1\n      pop\n        /* \"#utility.yul\":6581:6590   */\n      dup2\n        /* \"#utility.yul\":6575:6579   */\n      dup2\n        /* \"#utility.yul\":6571:6591   */\n      sub\n        /* \"#utility.yul\":6567:6568   */\n      0x00\n        /* \"#utility.yul\":6556:6565   */\n      dup4\n        /* \"#utility.yul\":6552:6569   */\n      add\n        /* \"#utility.yul\":6545:6592   */\n      mstore\n        /* \"#utility.yul\":6609:6687   */\n      tag_365\n        /* \"#utility.yul\":6682:6686   */\n      dup2\n        /* \"#utility.yul\":6673:6679   */\n      dup8\n        /* \"#utility.yul\":6609:6687   */\n      tag_252\n      jump\t// in\n    tag_365:\n        /* \"#utility.yul\":6601:6687   */\n      swap1\n      pop\n        /* \"#utility.yul\":6734:6743   */\n      dup2\n        /* \"#utility.yul\":6728:6732   */\n      dup2\n        /* \"#utility.yul\":6724:6744   */\n      sub\n        /* \"#utility.yul\":6719:6721   */\n      0x20\n        /* \"#utility.yul\":6708:6717   */\n      dup4\n        /* \"#utility.yul\":6704:6722   */\n      add\n        /* \"#utility.yul\":6697:6745   */\n      mstore\n        /* \"#utility.yul\":6762:6840   */\n      tag_366\n        /* \"#utility.yul\":6835:6839   */\n      dup2\n        /* \"#utility.yul\":6826:6832   */\n      dup7\n        /* \"#utility.yul\":6762:6840   */\n      tag_252\n      jump\t// in\n    tag_366:\n        /* \"#utility.yul\":6754:6840   */\n      swap1\n      pop\n        /* \"#utility.yul\":6850:6922   */\n      tag_367\n        /* \"#utility.yul\":6918:6920   */\n      0x40\n        /* \"#utility.yul\":6907:6916   */\n      dup4\n        /* \"#utility.yul\":6903:6921   */\n      add\n        /* \"#utility.yul\":6894:6900   */\n      dup6\n        /* \"#utility.yul\":6850:6922   */\n      tag_253\n      jump\t// in\n    tag_367:\n        /* \"#utility.yul\":6932:6998   */\n      tag_368\n        /* \"#utility.yul\":6994:6996   */\n      0x60\n        /* \"#utility.yul\":6983:6992   */\n      dup4\n        /* \"#utility.yul\":6979:6997   */\n      add\n        /* \"#utility.yul\":6970:6976   */\n      dup5\n        /* \"#utility.yul\":6932:6998   */\n      tag_254\n      jump\t// in\n    tag_368:\n        /* \"#utility.yul\":6282:7005   */\n      swap6\n      swap5\n      pop\n      pop\n      pop\n      pop\n      pop\n      jump\t// out\n        /* \"#utility.yul\":7011:7233   */\n    tag_36:\n        /* \"#utility.yul\":7104:7108   */\n      0x00\n        /* \"#utility.yul\":7142:7144   */\n      0x20\n        /* \"#utility.yul\":7131:7140   */\n      dup3\n        /* \"#utility.yul\":7127:7145   */\n      add\n        /* \"#utility.yul\":7119:7145   */\n      swap1\n      pop\n        /* \"#utility.yul\":7155:7226   */\n      tag_370\n        /* \"#utility.yul\":7223:7224   */\n      0x00\n        /* \"#utility.yul\":7212:7221   */\n      dup4\n        /* \"#utility.yul\":7208:7225   */\n      add\n        /* \"#utility.yul\":7199:7205   */\n      dup5\n        /* \"#utility.yul\":7155:7226   */\n      tag_253\n      jump\t// in\n    tag_370:\n        /* \"#utility.yul\":7011:7233   */\n      swap3\n      swap2\n      pop\n      pop\n      jump\t// out\n        /* \"#utility.yul\":7239:7449   */\n    tag_42:\n        /* \"#utility.yul\":7326:7330   */\n      0x00\n        /* \"#utility.yul\":7364:7366   */\n      0x20\n        /* \"#utility.yul\":7353:7362   */\n      dup3\n        /* \"#utility.yul\":7349:7367   */\n      add\n        /* \"#utility.yul\":7341:7367   */\n      swap1\n      pop\n        /* \"#utility.yul\":7377:7442   */\n      tag_372\n        /* \"#utility.yul\":7439:7440   */\n      0x00\n        /* \"#utility.yul\":7428:7437   */\n      dup4\n        /* \"#utility.yul\":7424:7441   */\n      add\n        /* \"#utility.yul\":7415:7421   */\n      dup5\n        /* \"#utility.yul\":7377:7442   */\n      tag_254\n      jump\t// in\n    tag_372:\n        /* \"#utility.yul\":7239:7449   */\n      swap3\n      swap2\n      pop\n      pop\n      jump\t// out\n        /* \"#utility.yul\":7455:7784   */\n    tag_46:\n        /* \"#utility.yul\":7514:7520   */\n      0x00\n        /* \"#utility.yul\":7563:7565   */\n      0x20\n        /* \"#utility.yul\":7551:7560   */\n      dup3\n        /* \"#utility.yul\":7542:7549   */\n      dup5\n        /* \"#utility.yul\":7538:7561   */\n      sub\n        /* \"#utility.yul\":7534:7566   */\n      slt\n        /* \"#utility.yul\":7531:7650   */\n      iszero\n      tag_374\n      jumpi\n        /* \"#utility.yul\":7569:7648   */\n      tag_375\n      tag_227\n      jump\t// in\n    tag_375:\n        /* \"#utility.yul\":7531:7650   */\n    tag_374:\n        /* \"#utility.yul\":7689:7690   */\n      0x00\n        /* \"#utility.yul\":7714:7767   */\n      tag_376\n        /* \"#utility.yul\":7759:7766   */\n      dup5\n        /* \"#utility.yul\":7750:7756   */\n      dup3\n        /* \"#utility.yul\":7739:7748   */\n      dup6\n        /* \"#utility.yul\":7735:7757   */\n      add\n        /* \"#utility.yul\":7714:7767   */\n      tag_241\n      jump\t// in\n    tag_376:\n        /* \"#utility.yul\":7704:7767   */\n      swap2\n      pop\n        /* \"#utility.yul\":7660:7777   */\n      pop\n        /* \"#utility.yul\":7455:7784   */\n      swap3\n      swap2\n      pop\n      pop\n      jump\t// out\n        /* \"#utility.yul\":7790:7908   */\n    tag_255:\n        /* \"#utility.yul\":7877:7901   */\n      tag_378\n        /* \"#utility.yul\":7895:7900   */\n      dup2\n        /* \"#utility.yul\":7877:7901   */\n      tag_246\n      jump\t// in\n    tag_378:\n        /* \"#utility.yul\":7872:7875   */\n      dup3\n        /* \"#utility.yul\":7865:7902   */\n      mstore\n        /* \"#utility.yul\":7790:7908   */\n      pop\n      pop\n      jump\t// out\n        /* \"#utility.yul\":7914:9073   */\n    tag_49:\n        /* \"#utility.yul\":8235:8239   */\n      0x00\n        /* \"#utility.yul\":8273:8276   */\n      0xe0\n        /* \"#utility.yul\":8262:8271   */\n      dup3\n        /* \"#utility.yul\":8258:8277   */\n      add\n        /* \"#utility.yul\":8250:8277   */\n      swap1\n      pop\n        /* \"#utility.yul\":8287:8358   */\n      tag_380\n        /* \"#utility.yul\":8355:8356   */\n      0x00\n        /* \"#utility.yul\":8344:8353   */\n      dup4\n        /* \"#utility.yul\":8340:8357   */\n      add\n        /* \"#utility.yul\":8331:8337   */\n      dup11\n        /* \"#utility.yul\":8287:8358   */\n      tag_255\n      jump\t// in\n    tag_380:\n        /* \"#utility.yul\":8405:8414   */\n      dup2\n        /* \"#utility.yul\":8399:8403   */\n      dup2\n        /* \"#utility.yul\":8395:8415   */\n      sub\n        /* \"#utility.yul\":8390:8392   */\n      0x20\n        /* \"#utility.yul\":8379:8388   */\n      dup4\n        /* \"#utility.yul\":8375:8393   */\n      add\n        /* \"#utility.yul\":8368:8416   */\n      mstore\n        /* \"#utility.yul\":8433:8511   */\n      tag_381\n        /* \"#utility.yul\":8506:8510   */\n      dup2\n        /* \"#utility.yul\":8497:8503   */\n      dup10\n        /* \"#utility.yul\":8433:8511   */\n      tag_252\n      jump\t// in\n    tag_381:\n        /* \"#utility.yul\":8425:8511   */\n      swap1\n      pop\n        /* \"#utility.yul\":8521:8593   */\n      tag_382\n        /* \"#utility.yul\":8589:8591   */\n      0x40\n        /* \"#utility.yul\":8578:8587   */\n      dup4\n        /* \"#utility.yul\":8574:8592   */\n      add\n        /* \"#utility.yul\":8565:8571   */\n      dup9\n        /* \"#utility.yul\":8521:8593   */\n      tag_253\n      jump\t// in\n    tag_382:\n        /* \"#utility.yul\":8640:8649   */\n      dup2\n        /* \"#utility.yul\":8634:8638   */\n      dup2\n        /* \"#utility.yul\":8630:8650   */\n      sub\n        /* \"#utility.yul\":8625:8627   */\n      0x60\n        /* \"#utility.yul\":8614:8623   */\n      dup4\n        /* \"#utility.yul\":8610:8628   */\n      add\n        /* \"#utility.yul\":8603:8651   */\n      mstore\n        /* \"#utility.yul\":8668:8746   */\n      tag_383\n        /* \"#utility.yul\":8741:8745   */\n      dup2\n        /* \"#utility.yul\":8732:8738   */\n      dup8\n        /* \"#utility.yul\":8668:8746   */\n      tag_252\n      jump\t// in\n    tag_383:\n        /* \"#utility.yul\":8660:8746   */\n      swap1\n      pop\n        /* \"#utility.yul\":8756:8829   */\n      tag_384\n        /* \"#utility.yul\":8824:8827   */\n      0x80\n        /* \"#utility.yul\":8813:8822   */\n      dup4\n        /* \"#utility.yul\":8809:8828   */\n      add\n        /* \"#utility.yul\":8800:8806   */\n      dup7\n        /* \"#utility.yul\":8756:8829   */\n      tag_253\n      jump\t// in\n    tag_384:\n        /* \"#utility.yul\":8839:8912   */\n      tag_385\n        /* \"#utility.yul\":8907:8910   */\n      0xa0\n        /* \"#utility.yul\":8896:8905   */\n      dup4\n        /* \"#utility.yul\":8892:8911   */\n      add\n        /* \"#utility.yul\":8883:8889   */\n      dup6\n        /* \"#utility.yul\":8839:8912   */\n      tag_253\n      jump\t// in\n    tag_385:\n        /* \"#utility.yul\":8960:8969   */\n      dup2\n        /* \"#utility.yul\":8954:8958   */\n      dup2\n        /* \"#utility.yul\":8950:8970   */\n      sub\n        /* \"#utility.yul\":8944:8947   */\n      0xc0\n        /* \"#utility.yul\":8933:8942   */\n      dup4\n        /* \"#utility.yul\":8929:8948   */\n      add\n        /* \"#utility.yul\":8922:8971   */\n      mstore\n        /* \"#utility.yul\":8988:9066   */\n      tag_386\n        /* \"#utility.yul\":9061:9065   */\n      dup2\n        /* \"#utility.yul\":9052:9058   */\n      dup5\n        /* \"#utility.yul\":8988:9066   */\n      tag_252\n      jump\t// in\n    tag_386:\n        /* \"#utility.yul\":8980:9066   */\n      swap1\n      pop\n        /* \"#utility.yul\":7914:9073   */\n      swap9\n      swap8\n      pop\n      pop\n      pop\n      pop\n      pop\n      pop\n      pop\n      pop\n      jump\t// out\n        /* \"#utility.yul\":9079:10530   */\n    tag_55:\n        /* \"#utility.yul\":9204:9210   */\n      0x00\n        /* \"#utility.yul\":9212:9218   */\n      dup1\n        /* \"#utility.yul\":9220:9226   */\n      0x00\n        /* \"#utility.yul\":9228:9234   */\n      dup1\n        /* \"#utility.yul\":9236:9242   */\n      0x00\n        /* \"#utility.yul\":9285:9288   */\n      0xa0\n        /* \"#utility.yul\":9273:9282   */\n      dup7\n        /* \"#utility.yul\":9264:9271   */\n      dup9\n        /* \"#utility.yul\":9260:9283   */\n      sub\n        /* \"#utility.yul\":9256:9289   */\n      slt\n        /* \"#utility.yul\":9253:9373   */\n      iszero\n      tag_388\n      jumpi\n        /* \"#utility.yul\":9292:9371   */\n      tag_389\n      tag_227\n      jump\t// in\n    tag_389:\n        /* \"#utility.yul\":9253:9373   */\n    tag_388:\n        /* \"#utility.yul\":9412:9413   */\n      0x00\n        /* \"#utility.yul\":9437:9490   */\n      tag_390\n        /* \"#utility.yul\":9482:9489   */\n      dup9\n        /* \"#utility.yul\":9473:9479   */\n      dup3\n        /* \"#utility.yul\":9462:9471   */\n      dup10\n        /* \"#utility.yul\":9458:9480   */\n      add\n        /* \"#utility.yul\":9437:9490   */\n      tag_241\n      jump\t// in\n    tag_390:\n        /* \"#utility.yul\":9427:9490   */\n      swap6\n      pop\n        /* \"#utility.yul\":9383:9500   */\n      pop\n        /* \"#utility.yul\":9567:9569   */\n      0x20\n        /* \"#utility.yul\":9556:9565   */\n      dup7\n        /* \"#utility.yul\":9552:9570   */\n      add\n        /* \"#utility.yul\":9539:9571   */\n      calldataload\n        /* \"#utility.yul\":9598:9616   */\n      0xffffffffffffffff\n        /* \"#utility.yul\":9590:9596   */\n      dup2\n        /* \"#utility.yul\":9587:9617   */\n      gt\n        /* \"#utility.yul\":9584:9701   */\n      iszero\n      tag_391\n      jumpi\n        /* \"#utility.yul\":9620:9699   */\n      tag_392\n      tag_228\n      jump\t// in\n    tag_392:\n        /* \"#utility.yul\":9584:9701   */\n    tag_391:\n        /* \"#utility.yul\":9725:9788   */\n      tag_393\n        /* \"#utility.yul\":9780:9787   */\n      dup9\n        /* \"#utility.yul\":9771:9777   */\n      dup3\n        /* \"#utility.yul\":9760:9769   */\n      dup10\n        /* \"#utility.yul\":9756:9778   */\n      add\n        /* \"#utility.yul\":9725:9788   */\n      tag_238\n      jump\t// in\n    tag_393:\n        /* \"#utility.yul\":9715:9788   */\n      swap5\n      pop\n        /* \"#utility.yul\":9510:9798   */\n      pop\n        /* \"#utility.yul\":9865:9867   */\n      0x40\n        /* \"#utility.yul\":9854:9863   */\n      dup7\n        /* \"#utility.yul\":9850:9868   */\n      add\n        /* \"#utility.yul\":9837:9869   */\n      calldataload\n        /* \"#utility.yul\":9896:9914   */\n      0xffffffffffffffff\n        /* \"#utility.yul\":9888:9894   */\n      dup2\n        /* \"#utility.yul\":9885:9915   */\n      gt\n        /* \"#utility.yul\":9882:9999   */\n      iszero\n      tag_394\n      jumpi\n        /* \"#utility.yul\":9918:9997   */\n      tag_395\n      tag_228\n      jump\t// in\n    tag_395:\n        /* \"#utility.yul\":9882:9999   */\n    tag_394:\n        /* \"#utility.yul\":10023:10086   */\n      tag_396\n        /* \"#utility.yul\":10078:10085   */\n      dup9\n        /* \"#utility.yul\":10069:10075   */\n      dup3\n        /* \"#utility.yul\":10058:10067   */\n      dup10\n        /* \"#utility.yul\":10054:10076   */\n      add\n        /* \"#utility.yul\":10023:10086   */\n      tag_238\n      jump\t// in\n    tag_396:\n        /* \"#utility.yul\":10013:10086   */\n      swap4\n      pop\n        /* \"#utility.yul\":9808:10096   */\n      pop\n        /* \"#utility.yul\":10135:10137   */\n      0x60\n        /* \"#utility.yul\":10161:10214   */\n      tag_397\n        /* \"#utility.yul\":10206:10213   */\n      dup9\n        /* \"#utility.yul\":10197:10203   */\n      dup3\n        /* \"#utility.yul\":10186:10195   */\n      dup10\n        /* \"#utility.yul\":10182:10204   */\n      add\n        /* \"#utility.yul\":10161:10214   */\n      tag_241\n      jump\t// in\n    tag_397:\n        /* \"#utility.yul\":10151:10214   */\n      swap3\n      pop\n        /* \"#utility.yul\":10106:10224   */\n      pop\n        /* \"#utility.yul\":10291:10294   */\n      0x80\n        /* \"#utility.yul\":10280:10289   */\n      dup7\n        /* \"#utility.yul\":10276:10295   */\n      add\n        /* \"#utility.yul\":10263:10296   */\n      calldataload\n        /* \"#utility.yul\":10323:10341   */\n      0xffffffffffffffff\n        /* \"#utility.yul\":10315:10321   */\n      dup2\n        /* \"#utility.yul\":10312:10342   */\n      gt\n        /* \"#utility.yul\":10309:10426   */\n      iszero\n      tag_398\n      jumpi\n        /* \"#utility.yul\":10345:10424   */\n      tag_399\n      tag_228\n      jump\t// in\n    tag_399:\n        /* \"#utility.yul\":10309:10426   */\n    tag_398:\n        /* \"#utility.yul\":10450:10513   */\n      tag_400\n        /* \"#utility.yul\":10505:10512   */\n      dup9\n        /* \"#utility.yul\":10496:10502   */\n      dup3\n        /* \"#utility.yul\":10485:10494   */\n      dup10\n        /* \"#utility.yul\":10481:10503   */\n      add\n        /* \"#utility.yul\":10450:10513   */\n      tag_238\n      jump\t// in\n    tag_400:\n        /* \"#utility.yul\":10440:10513   */\n      swap2\n      pop\n        /* \"#utility.yul\":10234:10523   */\n      pop\n        /* \"#utility.yul\":9079:10530   */\n      swap3\n      swap6\n      pop\n      swap3\n      swap6\n      swap1\n      swap4\n      pop\n      jump\t// out\n        /* \"#utility.yul\":10536:10959   */\n    tag_62:\n        /* \"#utility.yul\":10677:10681   */\n      0x00\n        /* \"#utility.yul\":10715:10717   */\n      0x40\n        /* \"#utility.yul\":10704:10713   */\n      dup3\n        /* \"#utility.yul\":10700:10718   */\n      add\n        /* \"#utility.yul\":10692:10718   */\n      swap1\n      pop\n        /* \"#utility.yul\":10764:10773   */\n      dup2\n        /* \"#utility.yul\":10758:10762   */\n      dup2\n        /* \"#utility.yul\":10754:10774   */\n      sub\n        /* \"#utility.yul\":10750:10751   */\n      0x00\n        /* \"#utility.yul\":10739:10748   */\n      dup4\n        /* \"#utility.yul\":10735:10752   */\n      add\n        /* \"#utility.yul\":10728:10775   */\n      mstore\n        /* \"#utility.yul\":10792:10870   */\n      tag_402\n        /* \"#utility.yul\":10865:10869   */\n      dup2\n        /* \"#utility.yul\":10856:10862   */\n      dup6\n        /* \"#utility.yul\":10792:10870   */\n      tag_252\n      jump\t// in\n    tag_402:\n        /* \"#utility.yul\":10784:10870   */\n      swap1\n      pop\n        /* \"#utility.yul\":10880:10952   */\n      tag_403\n        /* \"#utility.yul\":10948:10950   */\n      0x20\n        /* \"#utility.yul\":10937:10946   */\n      dup4\n        /* \"#utility.yul\":10933:10951   */\n      add\n        /* \"#utility.yul\":10924:10930   */\n      dup5\n        /* \"#utility.yul\":10880:10952   */\n      tag_253\n      jump\t// in\n    tag_403:\n        /* \"#utility.yul\":10536:10959   */\n      swap4\n      swap3\n      pop\n      pop\n      pop\n      jump\t// out\n        /* \"#utility.yul\":10965:11944   */\n    tag_70:\n        /* \"#utility.yul\":11062:11068   */\n      0x00\n        /* \"#utility.yul\":11070:11076   */\n      dup1\n        /* \"#utility.yul\":11078:11084   */\n      0x00\n        /* \"#utility.yul\":11127:11129   */\n      0x60\n        /* \"#utility.yul\":11115:11124   */\n      dup5\n        /* \"#utility.yul\":11106:11113   */\n      dup7\n        /* \"#utility.yul\":11102:11125   */\n      sub\n        /* \"#utility.yul\":11098:11130   */\n      slt\n        /* \"#utility.yul\":11095:11214   */\n      iszero\n      tag_405\n      jumpi\n        /* \"#utility.yul\":11133:11212   */\n      tag_406\n      tag_227\n      jump\t// in\n    tag_406:\n        /* \"#utility.yul\":11095:11214   */\n    tag_405:\n        /* \"#utility.yul\":11281:11282   */\n      0x00\n        /* \"#utility.yul\":11270:11279   */\n      dup5\n        /* \"#utility.yul\":11266:11283   */\n      add\n        /* \"#utility.yul\":11253:11284   */\n      calldataload\n        /* \"#utility.yul\":11311:11329   */\n      0xffffffffffffffff\n        /* \"#utility.yul\":11303:11309   */\n      dup2\n        /* \"#utility.yul\":11300:11330   */\n      gt\n        /* \"#utility.yul\":11297:11414   */\n      iszero\n      tag_407\n      jumpi\n        /* \"#utility.yul\":11333:11412   */\n      tag_408\n      tag_228\n      jump\t// in\n    tag_408:\n        /* \"#utility.yul\":11297:11414   */\n    tag_407:\n        /* \"#utility.yul\":11438:11501   */\n      tag_409\n        /* \"#utility.yul\":11493:11500   */\n      dup7\n        /* \"#utility.yul\":11484:11490   */\n      dup3\n        /* \"#utility.yul\":11473:11482   */\n      dup8\n        /* \"#utility.yul\":11469:11491   */\n      add\n        /* \"#utility.yul\":11438:11501   */\n      tag_238\n      jump\t// in\n    tag_409:\n        /* \"#utility.yul\":11428:11501   */\n      swap4\n      pop\n        /* \"#utility.yul\":11224:11511   */\n      pop\n        /* \"#utility.yul\":11550:11552   */\n      0x20\n        /* \"#utility.yul\":11576:11629   */\n      tag_410\n        /* \"#utility.yul\":11621:11628   */\n      dup7\n        /* \"#utility.yul\":11612:11618   */\n      dup3\n        /* \"#utility.yul\":11601:11610   */\n      dup8\n        /* \"#utility.yul\":11597:11619   */\n      add\n        /* \"#utility.yul\":11576:11629   */\n      tag_241\n      jump\t// in\n    tag_410:\n        /* \"#utility.yul\":11566:11629   */\n      swap3\n      pop\n        /* \"#utility.yul\":11521:11639   */\n      pop\n        /* \"#utility.yul\":11706:11708   */\n      0x40\n        /* \"#utility.yul\":11695:11704   */\n      dup5\n        /* \"#utility.yul\":11691:11709   */\n      add\n        /* \"#utility.yul\":11678:11710   */\n      calldataload\n        /* \"#utility.yul\":11737:11755   */\n      0xffffffffffffffff\n        /* \"#utility.yul\":11729:11735   */\n      dup2\n        /* \"#utility.yul\":11726:11756   */\n      gt\n        /* \"#utility.yul\":11723:11840   */\n      iszero\n      tag_411\n      jumpi\n        /* \"#utility.yul\":11759:11838   */\n      tag_412\n      tag_228\n      jump\t// in\n    tag_412:\n        /* \"#utility.yul\":11723:11840   */\n    tag_411:\n        /* \"#utility.yul\":11864:11927   */\n      tag_413\n        /* \"#utility.yul\":11919:11926   */\n      dup7\n        /* \"#utility.yul\":11910:11916   */\n      dup3\n        /* \"#utility.yul\":11899:11908   */\n      dup8\n        /* \"#utility.yul\":11895:11917   */\n      add\n        /* \"#utility.yul\":11864:11927   */\n      tag_238\n      jump\t// in\n    tag_413:\n        /* \"#utility.yul\":11854:11927   */\n      swap2\n      pop\n        /* \"#utility.yul\":11649:11937   */\n      pop\n        /* \"#utility.yul\":10965:11944   */\n      swap3\n      pop\n      swap3\n      pop\n      swap3\n      jump\t// out\n        /* \"#utility.yul\":11950:12574   */\n    tag_86:\n        /* \"#utility.yul\":12139:12143   */\n      0x00\n        /* \"#utility.yul\":12177:12179   */\n      0x60\n        /* \"#utility.yul\":12166:12175   */\n      dup3\n        /* \"#utility.yul\":12162:12180   */\n      add\n        /* \"#utility.yul\":12154:12180   */\n      swap1\n      pop\n        /* \"#utility.yul\":12226:12235   */\n      dup2\n        /* \"#utility.yul\":12220:12224   */\n      dup2\n        /* \"#utility.yul\":12216:12236   */\n      sub\n        /* \"#utility.yul\":12212:12213   */\n      0x00\n        /* \"#utility.yul\":12201:12210   */\n      dup4\n        /* \"#utility.yul\":12197:12214   */\n      add\n        /* \"#utility.yul\":12190:12237   */\n      mstore\n        /* \"#utility.yul\":12254:12332   */\n      tag_415\n        /* \"#utility.yul\":12327:12331   */\n      dup2\n        /* \"#utility.yul\":12318:12324   */\n      dup7\n        /* \"#utility.yul\":12254:12332   */\n      tag_252\n      jump\t// in\n    tag_415:\n        /* \"#utility.yul\":12246:12332   */\n      swap1\n      pop\n        /* \"#utility.yul\":12342:12414   */\n      tag_416\n        /* \"#utility.yul\":12410:12412   */\n      0x20\n        /* \"#utility.yul\":12399:12408   */\n      dup4\n        /* \"#utility.yul\":12395:12413   */\n      add\n        /* \"#utility.yul\":12386:12392   */\n      dup6\n        /* \"#utility.yul\":12342:12414   */\n      tag_253\n      jump\t// in\n    tag_416:\n        /* \"#utility.yul\":12461:12470   */\n      dup2\n        /* \"#utility.yul\":12455:12459   */\n      dup2\n        /* \"#utility.yul\":12451:12471   */\n      sub\n        /* \"#utility.yul\":12446:12448   */\n      0x40\n        /* \"#utility.yul\":12435:12444   */\n      dup4\n        /* \"#utility.yul\":12431:12449   */\n      add\n        /* \"#utility.yul\":12424:12472   */\n      mstore\n        /* \"#utility.yul\":12489:12567   */\n      tag_417\n        /* \"#utility.yul\":12562:12566   */\n      dup2\n        /* \"#utility.yul\":12553:12559   */\n      dup5\n        /* \"#utility.yul\":12489:12567   */\n      tag_252\n      jump\t// in\n    tag_417:\n        /* \"#utility.yul\":12481:12567   */\n      swap1\n      pop\n        /* \"#utility.yul\":11950:12574   */\n      swap5\n      swap4\n      pop\n      pop\n      pop\n      pop\n      jump\t// out\n        /* \"#utility.yul\":12580:12802   */\n    tag_95:\n        /* \"#utility.yul\":12673:12677   */\n      0x00\n        /* \"#utility.yul\":12711:12713   */\n      0x20\n        /* \"#utility.yul\":12700:12709   */\n      dup3\n        /* \"#utility.yul\":12696:12714   */\n      add\n        /* \"#utility.yul\":12688:12714   */\n      swap1\n      pop\n        /* \"#utility.yul\":12724:12795   */\n      tag_419\n        /* \"#utility.yul\":12792:12793   */\n      0x00\n        /* \"#utility.yul\":12781:12790   */\n      dup4\n        /* \"#utility.yul\":12777:12794   */\n      add\n        /* \"#utility.yul\":12768:12774   */\n      dup5\n        /* \"#utility.yul\":12724:12795   */\n      tag_255\n      jump\t// in\n    tag_419:\n        /* \"#utility.yul\":12580:12802   */\n      swap3\n      swap2\n      pop\n      pop\n      jump\t// out\n        /* \"#utility.yul\":12808:12988   */\n    tag_256:\n        /* \"#utility.yul\":12948:12980   */\n      0x50617469656e742070726f66696c6520616c7265616479206578697374730000\n        /* \"#utility.yul\":12944:12945   */\n      0x00\n        /* \"#utility.yul\":12936:12942   */\n      dup3\n        /* \"#utility.yul\":12932:12946   */\n      add\n        /* \"#utility.yul\":12925:12981   */\n      mstore\n        /* \"#utility.yul\":12808:12988   */\n      pop\n      jump\t// out\n        /* \"#utility.yul\":12994:13360   */\n    tag_257:\n        /* \"#utility.yul\":13136:13139   */\n      0x00\n        /* \"#utility.yul\":13157:13224   */\n      tag_422\n        /* \"#utility.yul\":13221:13223   */\n      0x1e\n        /* \"#utility.yul\":13216:13219   */\n      dup4\n        /* \"#utility.yul\":13157:13224   */\n      tag_250\n      jump\t// in\n    tag_422:\n        /* \"#utility.yul\":13150:13224   */\n      swap2\n      pop\n        /* \"#utility.yul\":13233:13326   */\n      tag_423\n        /* \"#utility.yul\":13322:13325   */\n      dup3\n        /* \"#utility.yul\":13233:13326   */\n      tag_256\n      jump\t// in\n    tag_423:\n        /* \"#utility.yul\":13351:13353   */\n      0x20\n        /* \"#utility.yul\":13346:13349   */\n      dup3\n        /* \"#utility.yul\":13342:13354   */\n      add\n        /* \"#utility.yul\":13335:13354   */\n      swap1\n      pop\n        /* \"#utility.yul\":12994:13360   */\n      swap2\n      swap1\n      pop\n      jump\t// out\n        /* \"#utility.yul\":13366:13785   */\n    tag_99:\n        /* \"#utility.yul\":13532:13536   */\n      0x00\n        /* \"#utility.yul\":13570:13572   */\n      0x20\n        /* \"#utility.yul\":13559:13568   */\n      dup3\n        /* \"#utility.yul\":13555:13573   */\n      add\n        /* \"#utility.yul\":13547:13573   */\n      swap1\n      pop\n        /* \"#utility.yul\":13619:13628   */\n      dup2\n        /* \"#utility.yul\":13613:13617   */\n      dup2\n        /* \"#utility.yul\":13609:13629   */\n      sub\n        /* \"#utility.yul\":13605:13606   */\n      0x00\n        /* \"#utility.yul\":13594:13603   */\n      dup4\n        /* \"#utility.yul\":13590:13607   */\n      add\n        /* \"#utility.yul\":13583:13630   */\n      mstore\n        /* \"#utility.yul\":13647:13778   */\n      tag_425\n        /* \"#utility.yul\":13773:13777   */\n      dup2\n        /* \"#utility.yul\":13647:13778   */\n      tag_257\n      jump\t// in\n    tag_425:\n        /* \"#utility.yul\":13639:13778   */\n      swap1\n      pop\n        /* \"#utility.yul\":13366:13785   */\n      swap2\n      swap1\n      pop\n      jump\t// out\n        /* \"#utility.yul\":13791:13971   */\n    tag_258:\n        /* \"#utility.yul\":13839:13916   */\n      0x4e487b7100000000000000000000000000000000000000000000000000000000\n        /* \"#utility.yul\":13836:13837   */\n      0x00\n        /* \"#utility.yul\":13829:13917   */\n      mstore\n        /* \"#utility.yul\":13936:13940   */\n      0x22\n        /* \"#utility.yul\":13933:13934   */\n      0x04\n        /* \"#utility.yul\":13926:13941   */\n      mstore\n        /* \"#utility.yul\":13960:13964   */\n      0x24\n        /* \"#utility.yul\":13957:13958   */\n      0x00\n        /* \"#utility.yul\":13950:13965   */\n      revert\n        /* \"#utility.yul\":13977:14297   */\n    tag_106:\n        /* \"#utility.yul\":14021:14027   */\n      0x00\n        /* \"#utility.yul\":14058:14059   */\n      0x02\n        /* \"#utility.yul\":14052:14056   */\n      dup3\n        /* \"#utility.yul\":14048:14060   */\n      div\n        /* \"#utility.yul\":14038:14060   */\n      swap1\n      pop\n        /* \"#utility.yul\":14105:14106   */\n      0x01\n        /* \"#utility.yul\":14099:14103   */\n      dup3\n        /* \"#utility.yul\":14095:14107   */\n      and\n        /* \"#utility.yul\":14126:14144   */\n      dup1\n        /* \"#utility.yul\":14116:14197   */\n      tag_428\n      jumpi\n        /* \"#utility.yul\":14182:14186   */\n      0x7f\n        /* \"#utility.yul\":14174:14180   */\n      dup3\n        /* \"#utility.yul\":14170:14187   */\n      and\n        /* \"#utility.yul\":14160:14187   */\n      swap2\n      pop\n        /* \"#utility.yul\":14116:14197   */\n    tag_428:\n        /* \"#utility.yul\":14244:14246   */\n      0x20\n        /* \"#utility.yul\":14236:14242   */\n      dup3\n        /* \"#utility.yul\":14233:14247   */\n      lt\n        /* \"#utility.yul\":14213:14231   */\n      dup2\n        /* \"#utility.yul\":14210:14248   */\n      sub\n        /* \"#utility.yul\":14207:14291   */\n      tag_429\n      jumpi\n        /* \"#utility.yul\":14263:14281   */\n      tag_430\n      tag_258\n      jump\t// in\n    tag_430:\n        /* \"#utility.yul\":14207:14291   */\n    tag_429:\n        /* \"#utility.yul\":14028:14297   */\n      pop\n        /* \"#utility.yul\":13977:14297   */\n      swap2\n      swap1\n      pop\n      jump\t// out\n        /* \"#utility.yul\":14303:14444   */\n    tag_259:\n        /* \"#utility.yul\":14352:14356   */\n      0x00\n        /* \"#utility.yul\":14375:14378   */\n      dup2\n        /* \"#utility.yul\":14367:14378   */\n      swap1\n      pop\n        /* \"#utility.yul\":14398:14401   */\n      dup2\n        /* \"#utility.yul\":14395:14396   */\n      0x00\n        /* \"#utility.yul\":14388:14402   */\n      mstore\n        /* \"#utility.yul\":14432:14436   */\n      0x20\n        /* \"#utility.yul\":14429:14430   */\n      0x00\n        /* \"#utility.yul\":14419:14437   */\n      keccak256\n        /* \"#utility.yul\":14411:14437   */\n      swap1\n      pop\n        /* \"#utility.yul\":14303:14444   */\n      swap2\n      swap1\n      pop\n      jump\t// out\n        /* \"#utility.yul\":14450:14543   */\n    tag_260:\n        /* \"#utility.yul\":14487:14493   */\n      0x00\n        /* \"#utility.yul\":14534:14536   */\n      0x20\n        /* \"#utility.yul\":14529:14531   */\n      0x1f\n        /* \"#utility.yul\":14522:14527   */\n      dup4\n        /* \"#utility.yul\":14518:14532   */\n      add\n        /* \"#utility.yul\":14514:14537   */\n      div\n        /* \"#utility.yul\":14504:14537   */\n      swap1\n      pop\n        /* \"#utility.yul\":14450:14543   */\n      swap2\n      swap1\n      pop\n      jump\t// out\n        /* \"#utility.yul\":14549:14656   */\n    tag_261:\n        /* \"#utility.yul\":14593:14601   */\n      0x00\n        /* \"#utility.yul\":14643:14648   */\n      dup3\n        /* \"#utility.yul\":14637:14641   */\n      dup3\n        /* \"#utility.yul\":14633:14649   */\n      shl\n        /* \"#utility.yul\":14612:14649   */\n      swap1\n      pop\n        /* \"#utility.yul\":14549:14656   */\n      swap3\n      swap2\n      pop\n      pop\n      jump\t// out\n        /* \"#utility.yul\":14662:15055   */\n    tag_262:\n        /* \"#utility.yul\":14731:14737   */\n      0x00\n        /* \"#utility.yul\":14781:14782   */\n      0x08\n        /* \"#utility.yul\":14769:14779   */\n      dup4\n        /* \"#utility.yul\":14765:14783   */\n      mul\n        /* \"#utility.yul\":14804:14901   */\n      tag_435\n        /* \"#utility.yul\":14834:14900   */\n      0xffffffffffffffffffffffffffffffffffffffffffffffffffffffffffffffff\n        /* \"#utility.yul\":14823:14832   */\n      dup3\n        /* \"#utility.yul\":14804:14901   */\n      tag_261\n      jump\t// in\n    tag_435:\n        /* \"#utility.yul\":14922:14961   */\n      tag_436\n        /* \"#utility.yul\":14952:14960   */\n      dup7\n        /* \"#utility.yul\":14941:14950   */\n      dup4\n        /* \"#utility.yul\":14922:14961   */\n      tag_261\n      jump\t// in\n    tag_436:\n        /* \"#utility.yul\":14910:14961   */\n      swap6\n      pop\n        /* \"#utility.yul\":14994:14998   */\n      dup1\n        /* \"#utility.yul\":14990:14999   */\n      not\n        /* \"#utility.yul\":14983:14988   */\n      dup5\n        /* \"#utility.yul\":14979:15000   */\n      and\n        /* \"#utility.yul\":14970:15000   */\n      swap4\n      pop\n        /* \"#utility.yul\":15043:15047   */\n      dup1\n        /* \"#utility.yul\":15033:15041   */\n      dup7\n        /* \"#utility.yul\":15029:15048   */\n      and\n        /* \"#utility.yul\":15022:15027   */\n      dup5\n        /* \"#utility.yul\":15019:15049   */\n      or\n        /* \"#utility.yul\":15009:15049   */\n      swap3\n      pop\n        /* \"#utility.yul\":14738:15055   */\n      pop\n      pop\n        /* \"#utility.yul\":14662:15055   */\n      swap4\n      swap3\n      pop\n      pop\n      pop\n      jump\t// out\n        /* \"#utility.yul\":15061:15121   */\n    tag_263:\n        /* \"#utility.yul\":15089:15092   */\n      0x00\n        /* \"#utility.yul\":15110:15115   */\n      dup2\n        /* \"#utility.yul\":15103:15115   */\n      swap1\n      pop\n        /* \"#utility.yul\":15061:15121   */\n      swap2\n      swap1\n      pop\n      jump\t// out\n        /* \"#utility.yul\":15127:15269   */\n    tag_264:\n        /* \"#utility.yul\":15177:15186   */\n      0x00\n        /* \"#utility.yul\":15210:15263   */\n      tag_439\n        /* \"#utility.yul\":15228:15262   */\n      tag_440\n        /* \"#utility.yul\":15237:15261   */\n      tag_441\n        /* \"#utility.yul\":15255:15260   */\n      dup5\n        /* \"#utility.yul\":15237:15261   */\n      tag_239\n      jump\t// in\n    tag_441:\n        /* \"#utility.yul\":15228:15262   */\n      tag_263\n      jump\t// in\n    tag_440:\n        /* \"#utility.yul\":15210:15263   */\n      tag_239\n      jump\t// in\n    tag_439:\n        /* \"#utility.yul\":15197:15263   */\n      swap1\n      pop\n        /* \"#utility.yul\":15127:15269   */\n      swap2\n      swap1\n      pop\n      jump\t// out\n        /* \"#utility.yul\":15275:15350   */\n    tag_265:\n        /* \"#utility.yul\":15318:15321   */\n      0x00\n        /* \"#utility.yul\":15339:15344   */\n      dup2\n        /* \"#utility.yul\":15332:15344   */\n      swap1\n      pop\n        /* \"#utility.yul\":15275:15350   */\n      swap2\n      swap1\n      pop\n      jump\t// out\n        /* \"#utility.yul\":15356:15625   */\n    tag_266:\n        /* \"#utility.yul\":15466:15505   */\n      tag_444\n        /* \"#utility.yul\":15497:15504   */\n      dup4\n        /* \"#utility.yul\":15466:15505   */\n      tag_264\n      jump\t// in\n    tag_444:\n        /* \"#utility.yul\":15527:15618   */\n      tag_445\n        /* \"#utility.yul\":15576:15617   */\n      tag_446\n        /* \"#utility.yul\":15600:15616   */\n      dup3\n        /* \"#utility.yul\":15576:15617   */\n      tag_265\n      jump\t// in\n    tag_446:\n        /* \"#utility.yul\":15568:15574   */\n      dup5\n        /* \"#utility.yul\":15561:15565   */\n      dup5\n        /* \"#utility.yul\":15555:15566   */\n      sload\n        /* \"#utility.yul\":15527:15618   */\n      tag_262\n      jump\t// in\n    tag_445:\n        /* \"#utility.yul\":15521:15525   */\n      dup3\n        /* \"#utility.yul\":15514:15619   */\n      sstore\n        /* \"#utility.yul\":15432:15625   */\n      pop\n        /* \"#utility.yul\":15356:15625   */\n      pop\n      pop\n      pop\n      jump\t// out\n        /* \"#utility.yul\":15631:15704   */\n    tag_267:\n        /* \"#utility.yul\":15676:15679   */\n      0x00\n        /* \"#utility.yul\":15631:15704   */\n      swap1\n      jump\t// out\n        /* \"#utility.yul\":15710:15899   */\n    tag_268:\n        /* \"#utility.yul\":15787:15819   */\n      tag_449\n      tag_267\n      jump\t// in\n    tag_449:\n        /* \"#utility.yul\":15828:15893   */\n      tag_450\n        /* \"#utility.yul\":15886:15892   */\n      dup2\n        /* \"#utility.yul\":15878:15884   */\n      dup5\n        /* \"#utility.yul\":15872:15876   */\n      dup5\n        /* \"#utility.yul\":15828:15893   */\n      tag_266\n      jump\t// in\n    tag_450:\n        /* \"#utility.yul\":15763:15899   */\n      pop\n        /* \"#utility.yul\":15710:15899   */\n      pop\n      pop\n      jump\t// out\n        /* \"#utility.yul\":15905:16091   */\n    tag_269:\n        /* \"#utility.yul\":15965:16085   */\n    tag_452:\n        /* \"#utility.yul\":15982:15985   */\n      dup2\n        /* \"#utility.yul\":15975:15980   */\n      dup2\n        /* \"#utility.yul\":15972:15986   */\n      lt\n        /* \"#utility.yul\":15965:16085   */\n      iszero\n      tag_454\n      jumpi\n        /* \"#utility.yul\":16036:16075   */\n      tag_455\n        /* \"#utility.yul\":16073:16074   */\n      0x00\n        /* \"#utility.yul\":16066:16071   */\n      dup3\n        /* \"#utility.yul\":16036:16075   */\n      tag_268\n      jump\t// in\n    tag_455:\n        /* \"#utility.yul\":16009:16010   */\n      0x01\n        /* \"#utility.yul\":16002:16007   */\n      dup2\n        /* \"#utility.yul\":15998:16011   */\n      add\n        /* \"#utility.yul\":15989:16011   */\n      swap1\n      pop\n        /* \"#utility.yul\":15965:16085   */\n      jump(tag_452)\n    tag_454:\n        /* \"#utility.yul\":15905:16091   */\n      pop\n      pop\n      jump\t// out\n        /* \"#utility.yul\":16097:16640   */\n    tag_270:\n        /* \"#utility.yul\":16198:16200   */\n      0x1f\n        /* \"#utility.yul\":16193:16196   */\n      dup3\n        /* \"#utility.yul\":16190:16201   */\n      gt\n        /* \"#utility.yul\":16187:16633   */\n      iszero\n      tag_457\n      jumpi\n        /* \"#utility.yul\":16232:16270   */\n      tag_458\n        /* \"#utility.yul\":16264:16269   */\n      dup2\n        /* \"#utility.yul\":16232:16270   */\n      tag_259\n      jump\t// in\n    tag_458:\n        /* \"#utility.yul\":16316:16345   */\n      tag_459\n        /* \"#utility.yul\":16334:16344   */\n      dup5\n        /* \"#utility.yul\":16316:16345   */\n      tag_260\n      jump\t// in\n    tag_459:\n        /* \"#utility.yul\":16306:16314   */\n      dup2\n        /* \"#utility.yul\":16302:16346   */\n      add\n        /* \"#utility.yul\":16499:16501   */\n      0x20\n        /* \"#utility.yul\":16487:16497   */\n      dup6\n        /* \"#utility.yul\":16484:16502   */\n      lt\n        /* \"#utility.yul\":16481:16530   */\n      iszero\n      tag_460\n      jumpi\n        /* \"#utility.yul\":16520:16528   */\n      dup2\n        /* \"#utility.yul\":16505:16528   */\n      swap1\n      pop\n        /* \"#utility.yul\":16481:16530   */\n    tag_460:\n        /* \"#utility.yul\":16543:16623   */\n      tag_461\n        /* \"#utility.yul\":16599:16621   */\n      tag_462\n        /* \"#utility.yul\":16617:16620   */\n      dup6\n        /* \"#utility.yul\":16599:16621   */\n      tag_260\n      jump\t// in\n    tag_462:\n        /* \"#utility.yul\":16589:16597   */\n      dup4\n        /* \"#utility.yul\":16585:16622   */\n      add\n        /* \"#utility.yul\":16572:16583   */\n      dup3\n        /* \"#utility.yul\":16543:16623   */\n      tag_269\n      jump\t// in\n    tag_461:\n        /* \"#utility.yul\":16202:16633   */\n      pop\n      pop\n        /* \"#utility.yul\":16187:16633   */\n    tag_457:\n        /* \"#utility.yul\":16097:16640   */\n      pop\n      pop\n      pop\n      jump\t// out\n        /* \"#utility.yul\":16646:16763   */\n    tag_271:\n        /* \"#utility.yul\":16700:16708   */\n      0x00\n        /* \"#utility.yul\":16750:16755   */\n      dup3\n        /* \"#utility.yul\":16744:16748   */\n      dup3\n        /* \"#utility.yul\":16740:16756   */\n      shr\n        /* \"#utility.yul\":16719:16756   */\n      swap1\n      pop\n        /* \"#utility.yul\":16646:16763   */\n      swap3\n      swap2\n      pop\n      pop\n      jump\t// out\n        /* \"#utility.yul\":16769:16938   */\n    tag_272:\n        /* \"#utility.yul\":16813:16819   */\n      0x00\n        /* \"#utility.yul\":16846:16897   */\n      tag_465\n        /* \"#utility.yul\":16894:16895   */\n      0x00\n        /* \"#utility.yul\":16890:16896   */\n      not\n        /* \"#utility.yul\":16882:16887   */\n      dup5\n        /* \"#utility.yul\":16879:16880   */\n      0x08\n        /* \"#utility.yul\":16875:16888   */\n      mul\n        /* \"#utility.yul\":16846:16897   */\n      tag_271\n      jump\t// in\n    tag_465:\n        /* \"#utility.yul\":16842:16898   */\n      not\n        /* \"#utility.yul\":16927:16931   */\n      dup1\n        /* \"#utility.yul\":16921:16925   */\n      dup4\n        /* \"#utility.yul\":16917:16932   */\n      and\n        /* \"#utility.yul\":16907:16932   */\n      swap2\n      pop\n        /* \"#utility.yul\":16820:16938   */\n      pop\n        /* \"#utility.yul\":16769:16938   */\n      swap3\n      swap2\n      pop\n      pop\n      jump\t// out\n        /* \"#utility.yul\":16943:17238   */\n    tag_273:\n        /* \"#utility.yul\":17019:17023   */\n      0x00\n        /* \"#utility.yul\":17165:17194   */\n      tag_467\n        /* \"#utility.yul\":17190:17193   */\n      dup4\n        /* \"#utility.yul\":17184:17188   */\n      dup4\n        /* \"#utility.yul\":17165:17194   */\n      tag_272\n      jump\t// in\n    tag_467:\n        /* \"#utility.yul\":17157:17194   */\n      swap2\n      pop\n        /* \"#utility.yul\":17227:17230   */\n      dup3\n        /* \"#utility.yul\":17224:17225   */\n      0x02\n        /* \"#utility.yul\":17220:17231   */\n      mul\n        /* \"#utility.yul\":17214:17218   */\n      dup3\n        /* \"#utility.yul\":17211:17232   */\n      or\n        /* \"#utility.yul\":17203:17232   */\n      swap1\n      pop\n        /* \"#utility.yul\":16943:17238   */\n      swap3\n      swap2\n      pop\n      pop\n      jump\t// out\n        /* \"#utility.yul\":17243:18638   */\n    tag_101:\n        /* \"#utility.yul\":17360:17397   */\n      tag_469\n        /* \"#utility.yul\":17393:17396   */\n      dup3\n        /* \"#utility.yul\":17360:17397   */\n      tag_249\n      jump\t// in\n    tag_469:\n        /* \"#utility.yul\":17462:17480   */\n      0xffffffffffffffff\n        /* \"#utility.yul\":17454:17460   */\n      dup2\n        /* \"#utility.yul\":17451:17481   */\n      gt\n        /* \"#utility.yul\":17448:17504   */\n      iszero\n      tag_470\n      jumpi\n        /* \"#utility.yul\":17484:17502   */\n      tag_471\n      tag_232\n      jump\t// in\n    tag_471:\n        /* \"#utility.yul\":17448:17504   */\n    tag_470:\n        /* \"#utility.yul\":17528:17566   */\n      tag_472\n        /* \"#utility.yul\":17560:17564   */\n      dup3\n        /* \"#utility.yul\":17554:17565   */\n      sload\n        /* \"#utility.yul\":17528:17566   */\n      tag_106\n      jump\t// in\n    tag_472:\n        /* \"#utility.yul\":17613:17680   */\n      tag_473\n        /* \"#utility.yul\":17673:17679   */\n      dup3\n        /* \"#utility.yul\":17665:17671   */\n      dup3\n        /* \"#utility.yul\":17659:17663   */\n      dup6\n        /* \"#utility.yul\":17613:17680   */\n      tag_270\n      jump\t// in\n    tag_473:\n        /* \"#utility.yul\":17707:17708   */\n      0x00\n        /* \"#utility.yul\":17731:17735   */\n      0x20\n        /* \"#utility.yul\":17718:17735   */\n      swap1\n      pop\n        /* \"#utility.yul\":17763:17765   */\n      0x1f\n        /* \"#utility.yul\":17755:17761   */\n      dup4\n        /* \"#utility.yul\":17752:17766   */\n      gt\n        /* \"#utility.yul\":17780:17781   */\n      0x01\n        /* \"#utility.yul\":17775:18393   */\n      dup2\n      eq\n      tag_475\n      jumpi\n        /* \"#utility.yul\":18437:18438   */\n      0x00\n        /* \"#utility.yul\":18454:18460   */\n      dup5\n        /* \"#utility.yul\":18451:18528   */\n      iszero\n      tag_476\n      jumpi\n        /* \"#utility.yul\":18503:18512   */\n      dup3\n        /* \"#utility.yul\":18498:18501   */\n      dup8\n        /* \"#utility.yul\":18494:18513   */\n      add\n        /* \"#utility.yul\":18488:18514   */\n      mload\n        /* \"#utility.yul\":18479:18514   */\n      swap1\n      pop\n        /* \"#utility.yul\":18451:18528   */\n    tag_476:\n        /* \"#utility.yul\":18554:18621   */\n      tag_477\n        /* \"#utility.yul\":18614:18620   */\n      dup6\n        /* \"#utility.yul\":18607:18612   */\n      dup3\n        /* \"#utility.yul\":18554:18621   */\n      tag_273\n      jump\t// in\n    tag_477:\n        /* \"#utility.yul\":18548:18552   */\n      dup7\n        /* \"#utility.yul\":18541:18622   */\n      sstore\n        /* \"#utility.yul\":18410:18632   */\n      pop\n        /* \"#utility.yul\":17745:18632   */\n      jump(tag_474)\n        /* \"#utility.yul\":17775:18393   */\n    tag_475:\n        /* \"#utility.yul\":17827:17831   */\n      0x1f\n        /* \"#utility.yul\":17823:17832   */\n      not\n        /* \"#utility.yul\":17815:17821   */\n      dup5\n        /* \"#utility.yul\":17811:17833   */\n      and\n        /* \"#utility.yul\":17861:17898   */\n      tag_478\n        /* \"#utility.yul\":17893:17897   */\n      dup7\n        /* \"#utility.yul\":17861:17898   */\n      tag_259\n      jump\t// in\n    tag_478:\n        /* \"#utility.yul\":17920:17921   */\n      0x00\n        /* \"#utility.yul\":17934:18142   */\n    tag_479:\n        /* \"#utility.yul\":17948:17955   */\n      dup3\n        /* \"#utility.yul\":17945:17946   */\n      dup2\n        /* \"#utility.yul\":17942:17956   */\n      lt\n        /* \"#utility.yul\":17934:18142   */\n      iszero\n      tag_481\n      jumpi\n        /* \"#utility.yul\":18027:18036   */\n      dup5\n        /* \"#utility.yul\":18022:18025   */\n      dup10\n        /* \"#utility.yul\":18018:18037   */\n      add\n        /* \"#utility.yul\":18012:18038   */\n      mload\n        /* \"#utility.yul\":18004:18010   */\n      dup3\n        /* \"#utility.yul\":17997:18039   */\n      sstore\n        /* \"#utility.yul\":18078:18079   */\n      0x01\n        /* \"#utility.yul\":18070:18076   */\n      dup3\n        /* \"#utility.yul\":18066:18080   */\n      add\n        /* \"#utility.yul\":18056:18080   */\n      swap2\n      pop\n        /* \"#utility.yul\":18125:18127   */\n      0x20\n        /* \"#utility.yul\":18114:18123   */\n      dup6\n        /* \"#utility.yul\":18110:18128   */\n      add\n        /* \"#utility.yul\":18097:18128   */\n      swap5\n      pop\n        /* \"#utility.yul\":17971:17975   */\n      0x20\n        /* \"#utility.yul\":17968:17969   */\n      dup2\n        /* \"#utility.yul\":17964:17976   */\n      add\n        /* \"#utility.yul\":17959:17976   */\n      swap1\n      pop\n        /* \"#utility.yul\":17934:18142   */\n      jump(tag_479)\n    tag_481:\n        /* \"#utility.yul\":18170:18176   */\n      dup7\n        /* \"#utility.yul\":18161:18168   */\n      dup4\n        /* \"#utility.yul\":18158:18177   */\n      lt\n        /* \"#utility.yul\":18155:18334   */\n      iszero\n      tag_482\n      jumpi\n        /* \"#utility.yul\":18228:18237   */\n      dup5\n        /* \"#utility.yul\":18223:18226   */\n      dup10\n        /* \"#utility.yul\":18219:18238   */\n      add\n        /* \"#utility.yul\":18213:18239   */\n      mload\n        /* \"#utility.yul\":18271:18319   */\n      tag_483\n        /* \"#utility.yul\":18313:18317   */\n      0x1f\n        /* \"#utility.yul\":18305:18311   */\n      dup10\n        /* \"#utility.yul\":18301:18318   */\n      and\n        /* \"#utility.yul\":18290:18299   */\n      dup3\n        /* \"#utility.yul\":18271:18319   */\n      tag_272\n      jump\t// in\n    tag_483:\n        /* \"#utility.yul\":18263:18269   */\n      dup4\n        /* \"#utility.yul\":18256:18320   */\n      sstore\n        /* \"#utility.yul\":18178:18334   */\n      pop\n        /* \"#utility.yul\":18155:18334   */\n    tag_482:\n        /* \"#utility.yul\":18380:18381   */\n      0x01\n        /* \"#utility.yul\":18376:18377   */\n      0x02\n        /* \"#utility.yul\":18368:18374   */\n      dup9\n        /* \"#utility.yul\":18364:18378   */\n      mul\n        /* \"#utility.yul\":18360:18382   */\n      add\n        /* \"#utility.yul\":18354:18358   */\n      dup9\n        /* \"#utility.yul\":18347:18383   */\n      sstore\n        /* \"#utility.yul\":17782:18393   */\n      pop\n      pop\n      pop\n        /* \"#utility.yul\":17745:18632   */\n    tag_474:\n      pop\n        /* \"#utility.yul\":17335:18638   */\n      pop\n      pop\n      pop\n        /* \"#utility.yul\":17243:18638   */\n      pop\n      pop\n      jump\t// out\n        /* \"#utility.yul\":18644:19276   */\n    tag_104:\n        /* \"#utility.yul\":18835:18839   */\n      0x00\n        /* \"#utility.yul\":18873:18876   */\n      0x80\n        /* \"#utility.yul\":18862:18871   */\n      dup3\n        /* \"#utility.yul\":18858:18877   */\n      add\n        /* \"#utility.yul\":18850:18877   */\n      swap1\n      pop\n        /* \"#utility.yul\":18887:18958   */\n      tag_485\n        /* \"#utility.yul\":18955:18956   */\n      0x00\n        /* \"#utility.yul\":18944:18953   */\n      dup4\n        /* \"#utility.yul\":18940:18957   */\n      add\n        /* \"#utility.yul\":18931:18937   */\n      dup8\n        /* \"#utility.yul\":18887:18958   */\n      tag_255\n      jump\t// in\n    tag_485:\n        /* \"#utility.yul\":19005:19014   */\n      dup2\n        /* \"#utility.yul\":18999:19003   */\n      dup2\n        /* \"#utility.yul\":18995:19015   */\n      sub\n        /* \"#utility.yul\":18990:18992   */\n      0x20\n        /* \"#utility.yul\":18979:18988   */\n      dup4\n        /* \"#utility.yul\":18975:18993   */\n      add\n        /* \"#utility.yul\":18968:19016   */\n      mstore\n        /* \"#utility.yul\":19033:19111   */\n      tag_486\n        /* \"#utility.yul\":19106:19110   */\n      dup2\n        /* \"#utility.yul\":19097:19103   */\n      dup7\n        /* \"#utility.yul\":19033:19111   */\n      tag_252\n      jump\t// in\n    tag_486:\n        /* \"#utility.yul\":19025:19111   */\n      swap1\n      pop\n        /* \"#utility.yul\":19121:19193   */\n      tag_487\n        /* \"#utility.yul\":19189:19191   */\n      0x40\n        /* \"#utility.yul\":19178:19187   */\n      dup4\n        /* \"#utility.yul\":19174:19192   */\n      add\n        /* \"#utility.yul\":19165:19171   */\n      dup6\n        /* \"#utility.yul\":19121:19193   */\n      tag_253\n      jump\t// in\n    tag_487:\n        /* \"#utility.yul\":19203:19269   */\n      tag_488\n        /* \"#utility.yul\":19265:19267   */\n      0x60\n        /* \"#utility.yul\":19254:19263   */\n      dup4\n        /* \"#utility.yul\":19250:19268   */\n      add\n        /* \"#utility.yul\":19241:19247   */\n      dup5\n        /* \"#utility.yul\":19203:19269   */\n      tag_254\n      jump\t// in\n    tag_488:\n        /* \"#utility.yul\":18644:19276   */\n      swap6\n      swap5\n      pop\n      pop\n      pop\n      pop\n      pop\n      jump\t// out\n        /* \"#utility.yul\":19282:19508   */\n    tag_274:\n        /* \"#utility.yul\":19422:19456   */\n      0x6f6e6c79207468652061646d696e2063616e20706572666f726d207468697320\n        /* \"#utility.yul\":19418:19419   */\n      0x00\n        /* \"#utility.yul\":19410:19416   */\n      dup3\n        /* \"#utility.yul\":19406:19420   */\n      add\n        /* \"#utility.yul\":19399:19457   */\n      mstore\n        /* \"#utility.yul\":19491:19500   */\n      0x616374696f6e2e00000000000000000000000000000000000000000000000000\n        /* \"#utility.yul\":19486:19488   */\n      0x20\n        /* \"#utility.yul\":19478:19484   */\n      dup3\n        /* \"#utility.yul\":19474:19489   */\n      add\n        /* \"#utility.yul\":19467:19501   */\n      mstore\n        /* \"#utility.yul\":19282:19508   */\n      pop\n      jump\t// out\n        /* \"#utility.yul\":19514:19880   */\n    tag_275:\n        /* \"#utility.yul\":19656:19659   */\n      0x00\n        /* \"#utility.yul\":19677:19744   */\n      tag_491\n        /* \"#utility.yul\":19741:19743   */\n      0x27\n        /* \"#utility.yul\":19736:19739   */\n      dup4\n        /* \"#utility.yul\":19677:19744   */\n      tag_250\n      jump\t// in\n    tag_491:\n        /* \"#utility.yul\":19670:19744   */\n      swap2\n      pop\n        /* \"#utility.yul\":19753:19846   */\n      tag_492\n        /* \"#utility.yul\":19842:19845   */\n      dup3\n        /* \"#utility.yul\":19753:19846   */\n      tag_274\n      jump\t// in\n    tag_492:\n        /* \"#utility.yul\":19871:19873   */\n      0x40\n        /* \"#utility.yul\":19866:19869   */\n      dup3\n        /* \"#utility.yul\":19862:19874   */\n      add\n        /* \"#utility.yul\":19855:19874   */\n      swap1\n      pop\n        /* \"#utility.yul\":19514:19880   */\n      swap2\n      swap1\n      pop\n      jump\t// out\n        /* \"#utility.yul\":19886:20305   */\n    tag_134:\n        /* \"#utility.yul\":20052:20056   */\n      0x00\n        /* \"#utility.yul\":20090:20092   */\n      0x20\n        /* \"#utility.yul\":20079:20088   */\n      dup3\n        /* \"#utility.yul\":20075:20093   */\n      add\n        /* \"#utility.yul\":20067:20093   */\n      swap1\n      pop\n        /* \"#utility.yul\":20139:20148   */\n      dup2\n        /* \"#utility.yul\":20133:20137   */\n      dup2\n        /* \"#utility.yul\":20129:20149   */\n      sub\n        /* \"#utility.yul\":20125:20126   */\n      0x00\n        /* \"#utility.yul\":20114:20123   */\n      dup4\n        /* \"#utility.yul\":20110:20127   */\n      add\n        /* \"#utility.yul\":20103:20150   */\n      mstore\n        /* \"#utility.yul\":20167:20298   */\n      tag_494\n        /* \"#utility.yul\":20293:20297   */\n      dup2\n        /* \"#utility.yul\":20167:20298   */\n      tag_275\n      jump\t// in\n    tag_494:\n        /* \"#utility.yul\":20159:20298   */\n      swap1\n      pop\n        /* \"#utility.yul\":19886:20305   */\n      swap2\n      swap1\n      pop\n      jump\t// out\n        /* \"#utility.yul\":20311:20549   */\n    tag_276:\n        /* \"#utility.yul\":20451:20485   */\n      0x546869732070617469656e74206973206e6f7420726567697374657265642061\n        /* \"#utility.yul\":20447:20448   */\n      0x00\n        /* \"#utility.yul\":20439:20445   */\n      dup3\n        /* \"#utility.yul\":20435:20449   */\n      add\n        /* \"#utility.yul\":20428:20486   */\n      mstore\n        /* \"#utility.yul\":20520:20541   */\n      0x6e6420636f756c64616e742062652066756e6400000000000000000000000000\n        /* \"#utility.yul\":20515:20517   */\n      0x20\n        /* \"#utility.yul\":20507:20513   */\n      dup3\n        /* \"#utility.yul\":20503:20518   */\n      add\n        /* \"#utility.yul\":20496:20542   */\n      mstore\n        /* \"#utility.yul\":20311:20549   */\n      pop\n      jump\t// out\n        /* \"#utility.yul\":20555:20921   */\n    tag_277:\n        /* \"#utility.yul\":20697:20700   */\n      0x00\n        /* \"#utility.yul\":20718:20785   */\n      tag_497\n        /* \"#utility.yul\":20782:20784   */\n      0x33\n        /* \"#utility.yul\":20777:20780   */\n      dup4\n        /* \"#utility.yul\":20718:20785   */\n      tag_250\n      jump\t// in\n    tag_497:\n        /* \"#utility.yul\":20711:20785   */\n      swap2\n      pop\n        /* \"#utility.yul\":20794:20887   */\n      tag_498\n        /* \"#utility.yul\":20883:20886   */\n      dup3\n        /* \"#utility.yul\":20794:20887   */\n      tag_276\n      jump\t// in\n    tag_498:\n        /* \"#utility.yul\":20912:20914   */\n      0x40\n        /* \"#utility.yul\":20907:20910   */\n      dup3\n        /* \"#utility.yul\":20903:20915   */\n      add\n        /* \"#utility.yul\":20896:20915   */\n      swap1\n      pop\n        /* \"#utility.yul\":20555:20921   */\n      swap2\n      swap1\n      pop\n      jump\t// out\n        /* \"#utility.yul\":20927:21346   */\n    tag_141:\n        /* \"#utility.yul\":21093:21097   */\n      0x00\n        /* \"#utility.yul\":21131:21133   */\n      0x20\n        /* \"#utility.yul\":21120:21129   */\n      dup3\n        /* \"#utility.yul\":21116:21134   */\n      add\n        /* \"#utility.yul\":21108:21134   */\n      swap1\n      pop\n        /* \"#utility.yul\":21180:21189   */\n      dup2\n        /* \"#utility.yul\":21174:21178   */\n      dup2\n        /* \"#utility.yul\":21170:21190   */\n      sub\n        /* \"#utility.yul\":21166:21167   */\n      0x00\n        /* \"#utility.yul\":21155:21164   */\n      dup4\n        /* \"#utility.yul\":21151:21168   */\n      add\n        /* \"#utility.yul\":21144:21191   */\n      mstore\n        /* \"#utility.yul\":21208:21339   */\n      tag_500\n        /* \"#utility.yul\":21334:21338   */\n      dup2\n        /* \"#utility.yul\":21208:21339   */\n      tag_277\n      jump\t// in\n    tag_500:\n        /* \"#utility.yul\":21200:21339   */\n      swap1\n      pop\n        /* \"#utility.yul\":20927:21346   */\n      swap2\n      swap1\n      pop\n      jump\t// out\n        /* \"#utility.yul\":21352:21517   */\n    tag_278:\n        /* \"#utility.yul\":21492:21509   */\n      0x496e76616c696420736572766963650000000000000000000000000000000000\n        /* \"#utility.yul\":21488:21489   */\n      0x00\n        /* \"#utility.yul\":21480:21486   */\n      dup3\n        /* \"#utility.yul\":21476:21490   */\n      add\n        /* \"#utility.yul\":21469:21510   */\n      mstore\n        /* \"#utility.yul\":21352:21517   */\n      pop\n      jump\t// out\n        /* \"#utility.yul\":21523:21889   */\n    tag_279:\n        /* \"#utility.yul\":21665:21668   */\n      0x00\n        /* \"#utility.yul\":21686:21753   */\n      tag_503\n        /* \"#utility.yul\":21750:21752   */\n      0x0f\n        /* \"#utility.yul\":21745:21748   */\n      dup4\n        /* \"#utility.yul\":21686:21753   */\n      tag_250\n      jump\t// in\n    tag_503:\n        /* \"#utility.yul\":21679:21753   */\n      swap2\n      pop\n        /* \"#utility.yul\":21762:21855   */\n      tag_504\n        /* \"#utility.yul\":21851:21854   */\n      dup3\n        /* \"#utility.yul\":21762:21855   */\n      tag_278\n      jump\t// in\n    tag_504:\n        /* \"#utility.yul\":21880:21882   */\n      0x20\n        /* \"#utility.yul\":21875:21878   */\n      dup3\n        /* \"#utility.yul\":21871:21883   */\n      add\n        /* \"#utility.yul\":21864:21883   */\n      swap1\n      pop\n        /* \"#utility.yul\":21523:21889   */\n      swap2\n      swap1\n      pop\n      jump\t// out\n        /* \"#utility.yul\":21895:22314   */\n    tag_145:\n        /* \"#utility.yul\":22061:22065   */\n      0x00\n        /* \"#utility.yul\":22099:22101   */\n      0x20\n        /* \"#utility.yul\":22088:22097   */\n      dup3\n        /* \"#utility.yul\":22084:22102   */\n      add\n        /* \"#utility.yul\":22076:22102   */\n      swap1\n      pop\n        /* \"#utility.yul\":22148:22157   */\n      dup2\n        /* \"#utility.yul\":22142:22146   */\n      dup2\n        /* \"#utility.yul\":22138:22158   */\n      sub\n        /* \"#utility.yul\":22134:22135   */\n      0x00\n        /* \"#utility.yul\":22123:22132   */\n      dup4\n        /* \"#utility.yul\":22119:22136   */\n      add\n        /* \"#utility.yul\":22112:22159   */\n      mstore\n        /* \"#utility.yul\":22176:22307   */\n      tag_506\n        /* \"#utility.yul\":22302:22306   */\n      dup2\n        /* \"#utility.yul\":22176:22307   */\n      tag_279\n      jump\t// in\n    tag_506:\n        /* \"#utility.yul\":22168:22307   */\n      swap1\n      pop\n        /* \"#utility.yul\":21895:22314   */\n      swap2\n      swap1\n      pop\n      jump\t// out\n        /* \"#utility.yul\":22320:22495   */\n    tag_280:\n        /* \"#utility.yul\":22460:22487   */\n      0x696e636f7272656374207061796d656e7420616d6f756e742e00000000000000\n        /* \"#utility.yul\":22456:22457   */\n      0x00\n        /* \"#utility.yul\":22448:22454   */\n      dup3\n        /* \"#utility.yul\":22444:22458   */\n      add\n        /* \"#utility.yul\":22437:22488   */\n      mstore\n        /* \"#utility.yul\":22320:22495   */\n      pop\n      jump\t// out\n        /* \"#utility.yul\":22501:22867   */\n    tag_281:\n        /* \"#utility.yul\":22643:22646   */\n      0x00\n        /* \"#utility.yul\":22664:22731   */\n      tag_509\n        /* \"#utility.yul\":22728:22730   */\n      0x19\n        /* \"#utility.yul\":22723:22726   */\n      dup4\n        /* \"#utility.yul\":22664:22731   */\n      tag_250\n      jump\t// in\n    tag_509:\n        /* \"#utility.yul\":22657:22731   */\n      swap2\n      pop\n        /* \"#utility.yul\":22740:22833   */\n      tag_510\n        /* \"#utility.yul\":22829:22832   */\n      dup3\n        /* \"#utility.yul\":22740:22833   */\n      tag_280\n      jump\t// in\n    tag_510:\n        /* \"#utility.yul\":22858:22860   */\n      0x20\n        /* \"#utility.yul\":22853:22856   */\n      dup3\n        /* \"#utility.yul\":22849:22861   */\n      add\n        /* \"#utility.yul\":22842:22861   */\n      swap1\n      pop\n        /* \"#utility.yul\":22501:22867   */\n      swap2\n      swap1\n      pop\n      jump\t// out\n        /* \"#utility.yul\":22873:23292   */\n    tag_158:\n        /* \"#utility.yul\":23039:23043   */\n      0x00\n        /* \"#utility.yul\":23077:23079   */\n      0x20\n        /* \"#utility.yul\":23066:23075   */\n      dup3\n        /* \"#utility.yul\":23062:23080   */\n      add\n        /* \"#utility.yul\":23054:23080   */\n      swap1\n      pop\n        /* \"#utility.yul\":23126:23135   */\n      dup2\n        /* \"#utility.yul\":23120:23124   */\n      dup2\n        /* \"#utility.yul\":23116:23136   */\n      sub\n        /* \"#utility.yul\":23112:23113   */\n      0x00\n        /* \"#utility.yul\":23101:23110   */\n      dup4\n        /* \"#utility.yul\":23097:23114   */\n      add\n        /* \"#utility.yul\":23090:23137   */\n      mstore\n        /* \"#utility.yul\":23154:23285   */\n      tag_512\n        /* \"#utility.yul\":23280:23284   */\n      dup2\n        /* \"#utility.yul\":23154:23285   */\n      tag_281\n      jump\t// in\n    tag_512:\n        /* \"#utility.yul\":23146:23285   */\n      swap1\n      pop\n        /* \"#utility.yul\":22873:23292   */\n      swap2\n      swap1\n      pop\n      jump\t// out\n        /* \"#utility.yul\":23298:23478   */\n    tag_282:\n        /* \"#utility.yul\":23346:23423   */\n      0x4e487b7100000000000000000000000000000000000000000000000000000000\n        /* \"#utility.yul\":23343:23344   */\n      0x00\n        /* \"#utility.yul\":23336:23424   */\n      mstore\n        /* \"#utility.yul\":23443:23447   */\n      0x11\n        /* \"#utility.yul\":23440:23441   */\n      0x04\n        /* \"#utility.yul\":23433:23448   */\n      mstore\n        /* \"#utility.yul\":23467:23471   */\n      0x24\n        /* \"#utility.yul\":23464:23465   */\n      0x00\n        /* \"#utility.yul\":23457:23472   */\n      revert\n        /* \"#utility.yul\":23484:23675   */\n    tag_163:\n        /* \"#utility.yul\":23524:23527   */\n      0x00\n        /* \"#utility.yul\":23543:23563   */\n      tag_515\n        /* \"#utility.yul\":23561:23562   */\n      dup3\n        /* \"#utility.yul\":23543:23563   */\n      tag_239\n      jump\t// in\n    tag_515:\n        /* \"#utility.yul\":23538:23563   */\n      swap2\n      pop\n        /* \"#utility.yul\":23577:23597   */\n      tag_516\n        /* \"#utility.yul\":23595:23596   */\n      dup4\n        /* \"#utility.yul\":23577:23597   */\n      tag_239\n      jump\t// in\n    tag_516:\n        /* \"#utility.yul\":23572:23597   */\n      swap3\n      pop\n        /* \"#utility.yul\":23620:23621   */\n      dup3\n        /* \"#utility.yul\":23617:23618   */\n      dup3\n        /* \"#utility.yul\":23613:23622   */\n      add\n        /* \"#utility.yul\":23606:23622   */\n      swap1\n      pop\n        /* \"#utility.yul\":23641:23644   */\n      dup1\n        /* \"#utility.yul\":23638:23639   */\n      dup3\n        /* \"#utility.yul\":23635:23645   */\n      gt\n        /* \"#utility.yul\":23632:23668   */\n      iszero\n      tag_517\n      jumpi\n        /* \"#utility.yul\":23648:23666   */\n      tag_518\n      tag_282\n      jump\t// in\n    tag_518:\n        /* \"#utility.yul\":23632:23668   */\n    tag_517:\n        /* \"#utility.yul\":23484:23675   */\n      swap3\n      swap2\n      pop\n      pop\n      jump\t// out\n        /* \"#utility.yul\":23681:24638   */\n    tag_165:\n        /* \"#utility.yul\":23954:23958   */\n      0x00\n        /* \"#utility.yul\":23992:23995   */\n      0xc0\n        /* \"#utility.yul\":23981:23990   */\n      dup3\n        /* \"#utility.yul\":23977:23996   */\n      add\n        /* \"#utility.yul\":23969:23996   */\n      swap1\n      pop\n        /* \"#utility.yul\":24006:24077   */\n      tag_520\n        /* \"#utility.yul\":24074:24075   */\n      0x00\n        /* \"#utility.yul\":24063:24072   */\n      dup4\n        /* \"#utility.yul\":24059:24076   */\n      add\n        /* \"#utility.yul\":24050:24056   */\n      dup10\n        /* \"#utility.yul\":24006:24077   */\n      tag_255\n      jump\t// in\n    tag_520:\n        /* \"#utility.yul\":24087:24159   */\n      tag_521\n        /* \"#utility.yul\":24155:24157   */\n      0x20\n        /* \"#utility.yul\":24144:24153   */\n      dup4\n        /* \"#utility.yul\":24140:24158   */\n      add\n        /* \"#utility.yul\":24131:24137   */\n      dup9\n        /* \"#utility.yul\":24087:24159   */\n      tag_253\n      jump\t// in\n    tag_521:\n        /* \"#utility.yul\":24169:24241   */\n      tag_522\n        /* \"#utility.yul\":24237:24239   */\n      0x40\n        /* \"#utility.yul\":24226:24235   */\n      dup4\n        /* \"#utility.yul\":24222:24240   */\n      add\n        /* \"#utility.yul\":24213:24219   */\n      dup8\n        /* \"#utility.yul\":24169:24241   */\n      tag_253\n      jump\t// in\n    tag_522:\n        /* \"#utility.yul\":24251:24323   */\n      tag_523\n        /* \"#utility.yul\":24319:24321   */\n      0x60\n        /* \"#utility.yul\":24308:24317   */\n      dup4\n        /* \"#utility.yul\":24304:24322   */\n      add\n        /* \"#utility.yul\":24295:24301   */\n      dup7\n        /* \"#utility.yul\":24251:24323   */\n      tag_253\n      jump\t// in\n    tag_523:\n        /* \"#utility.yul\":24371:24380   */\n      dup2\n        /* \"#utility.yul\":24365:24369   */\n      dup2\n        /* \"#utility.yul\":24361:24381   */\n      sub\n        /* \"#utility.yul\":24355:24358   */\n      0x80\n        /* \"#utility.yul\":24344:24353   */\n      dup4\n        /* \"#utility.yul\":24340:24359   */\n      add\n        /* \"#utility.yul\":24333:24382   */\n      mstore\n        /* \"#utility.yul\":24399:24477   */\n      tag_524\n        /* \"#utility.yul\":24472:24476   */\n      dup2\n        /* \"#utility.yul\":24463:24469   */\n      dup6\n        /* \"#utility.yul\":24399:24477   */\n      tag_252\n      jump\t// in\n    tag_524:\n        /* \"#utility.yul\":24391:24477   */\n      swap1\n      pop\n        /* \"#utility.yul\":24525:24534   */\n      dup2\n        /* \"#utility.yul\":24519:24523   */\n      dup2\n        /* \"#utility.yul\":24515:24535   */\n      sub\n        /* \"#utility.yul\":24509:24512   */\n      0xa0\n        /* \"#utility.yul\":24498:24507   */\n      dup4\n        /* \"#utility.yul\":24494:24513   */\n      add\n        /* \"#utility.yul\":24487:24536   */\n      mstore\n        /* \"#utility.yul\":24553:24631   */\n      tag_525\n        /* \"#utility.yul\":24626:24630   */\n      dup2\n        /* \"#utility.yul\":24617:24623   */\n      dup5\n        /* \"#utility.yul\":24553:24631   */\n      tag_252\n      jump\t// in\n    tag_525:\n        /* \"#utility.yul\":24545:24631   */\n      swap1\n      pop\n        /* \"#utility.yul\":23681:24638   */\n      swap8\n      swap7\n      pop\n      pop\n      pop\n      pop\n      pop\n      pop\n      pop\n      jump\t// out\n        /* \"#utility.yul\":24644:25086   */\n    tag_167:\n        /* \"#utility.yul\":24793:24797   */\n      0x00\n        /* \"#utility.yul\":24831:24833   */\n      0x60\n        /* \"#utility.yul\":24820:24829   */\n      dup3\n        /* \"#utility.yul\":24816:24834   */\n      add\n        /* \"#utility.yul\":24808:24834   */\n      swap1\n      pop\n        /* \"#utility.yul\":24844:24915   */\n      tag_527\n        /* \"#utility.yul\":24912:24913   */\n      0x00\n        /* \"#utility.yul\":24901:24910   */\n      dup4\n        /* \"#utility.yul\":24897:24914   */\n      add\n        /* \"#utility.yul\":24888:24894   */\n      dup7\n        /* \"#utility.yul\":24844:24915   */\n      tag_255\n      jump\t// in\n    tag_527:\n        /* \"#utility.yul\":24925:24997   */\n      tag_528\n        /* \"#utility.yul\":24993:24995   */\n      0x20\n        /* \"#utility.yul\":24982:24991   */\n      dup4\n        /* \"#utility.yul\":24978:24996   */\n      add\n        /* \"#utility.yul\":24969:24975   */\n      dup6\n        /* \"#utility.yul\":24925:24997   */\n      tag_253\n      jump\t// in\n    tag_528:\n        /* \"#utility.yul\":25007:25079   */\n      tag_529\n        /* \"#utility.yul\":25075:25077   */\n      0x40\n        /* \"#utility.yul\":25064:25073   */\n      dup4\n        /* \"#utility.yul\":25060:25078   */\n      add\n        /* \"#utility.yul\":25051:25057   */\n      dup5\n        /* \"#utility.yul\":25007:25079   */\n      tag_253\n      jump\t// in\n    tag_529:\n        /* \"#utility.yul\":24644:25086   */\n      swap5\n      swap4\n      pop\n      pop\n      pop\n      pop\n      jump\t// out\n        /* \"#utility.yul\":25092:25258   */\n    tag_283:\n        /* \"#utility.yul\":25232:25250   */\n      0x696e76616c696420736572766963652000000000000000000000000000000000\n        /* \"#utility.yul\":25228:25229   */\n      0x00\n        /* \"#utility.yul\":25220:25226   */\n      dup3\n        /* \"#utility.yul\":25216:25230   */\n      add\n        /* \"#utility.yul\":25209:25251   */\n      mstore\n        /* \"#utility.yul\":25092:25258   */\n      pop\n      jump\t// out\n        /* \"#utility.yul\":25264:25630   */\n    tag_284:\n        /* \"#utility.yul\":25406:25409   */\n      0x00\n        /* \"#utility.yul\":25427:25494   */\n      tag_532\n        /* \"#utility.yul\":25491:25493   */\n      0x10\n        /* \"#utility.yul\":25486:25489   */\n      dup4\n        /* \"#utility.yul\":25427:25494   */\n      tag_250\n      jump\t// in\n    tag_532:\n        /* \"#utility.yul\":25420:25494   */\n      swap2\n      pop\n        /* \"#utility.yul\":25503:25596   */\n      tag_533\n        /* \"#utility.yul\":25592:25595   */\n      dup3\n        /* \"#utility.yul\":25503:25596   */\n      tag_283\n      jump\t// in\n    tag_533:\n        /* \"#utility.yul\":25621:25623   */\n      0x20\n        /* \"#utility.yul\":25616:25619   */\n      dup3\n        /* \"#utility.yul\":25612:25624   */\n      add\n        /* \"#utility.yul\":25605:25624   */\n      swap1\n      pop\n        /* \"#utility.yul\":25264:25630   */\n      swap2\n      swap1\n      pop\n      jump\t// out\n        /* \"#utility.yul\":25636:26055   */\n    tag_171:\n        /* \"#utility.yul\":25802:25806   */\n      0x00\n        /* \"#utility.yul\":25840:25842   */\n      0x20\n        /* \"#utility.yul\":25829:25838   */\n      dup3\n        /* \"#utility.yul\":25825:25843   */\n      add\n        /* \"#utility.yul\":25817:25843   */\n      swap1\n      pop\n        /* \"#utility.yul\":25889:25898   */\n      dup2\n        /* \"#utility.yul\":25883:25887   */\n      dup2\n        /* \"#utility.yul\":25879:25899   */\n      sub\n        /* \"#utility.yul\":25875:25876   */\n      0x00\n        /* \"#utility.yul\":25864:25873   */\n      dup4\n        /* \"#utility.yul\":25860:25877   */\n      add\n        /* \"#utility.yul\":25853:25900   */\n      mstore\n        /* \"#utility.yul\":25917:26048   */\n      tag_535\n        /* \"#utility.yul\":26043:26047   */\n      dup2\n        /* \"#utility.yul\":25917:26048   */\n      tag_284\n      jump\t// in\n    tag_535:\n        /* \"#utility.yul\":25909:26048   */\n      swap1\n      pop\n        /* \"#utility.yul\":25636:26055   */\n      swap2\n      swap1\n      pop\n      jump\t// out\n        /* \"#utility.yul\":26061:26796   */\n    tag_189:\n        /* \"#utility.yul\":26278:26282   */\n      0x00\n        /* \"#utility.yul\":26316:26319   */\n      0x80\n        /* \"#utility.yul\":26305:26314   */\n      dup3\n        /* \"#utility.yul\":26301:26320   */\n      add\n        /* \"#utility.yul\":26293:26320   */\n      swap1\n      pop\n        /* \"#utility.yul\":26330:26401   */\n      tag_537\n        /* \"#utility.yul\":26398:26399   */\n      0x00\n        /* \"#utility.yul\":26387:26396   */\n      dup4\n        /* \"#utility.yul\":26383:26400   */\n      add\n        /* \"#utility.yul\":26374:26380   */\n      dup8\n        /* \"#utility.yul\":26330:26401   */\n      tag_253\n      jump\t// in\n    tag_537:\n        /* \"#utility.yul\":26448:26457   */\n      dup2\n        /* \"#utility.yul\":26442:26446   */\n      dup2\n        /* \"#utility.yul\":26438:26458   */\n      sub\n        /* \"#utility.yul\":26433:26435   */\n      0x20\n        /* \"#utility.yul\":26422:26431   */\n      dup4\n        /* \"#utility.yul\":26418:26436   */\n      add\n        /* \"#utility.yul\":26411:26459   */\n      mstore\n        /* \"#utility.yul\":26476:26554   */\n      tag_538\n        /* \"#utility.yul\":26549:26553   */\n      dup2\n        /* \"#utility.yul\":26540:26546   */\n      dup7\n        /* \"#utility.yul\":26476:26554   */\n      tag_252\n      jump\t// in\n    tag_538:\n        /* \"#utility.yul\":26468:26554   */\n      swap1\n      pop\n        /* \"#utility.yul\":26564:26636   */\n      tag_539\n        /* \"#utility.yul\":26632:26634   */\n      0x40\n        /* \"#utility.yul\":26621:26630   */\n      dup4\n        /* \"#utility.yul\":26617:26635   */\n      add\n        /* \"#utility.yul\":26608:26614   */\n      dup6\n        /* \"#utility.yul\":26564:26636   */\n      tag_253\n      jump\t// in\n    tag_539:\n        /* \"#utility.yul\":26683:26692   */\n      dup2\n        /* \"#utility.yul\":26677:26681   */\n      dup2\n        /* \"#utility.yul\":26673:26693   */\n      sub\n        /* \"#utility.yul\":26668:26670   */\n      0x60\n        /* \"#utility.yul\":26657:26666   */\n      dup4\n        /* \"#utility.yul\":26653:26671   */\n      add\n        /* \"#utility.yul\":26646:26694   */\n      mstore\n        /* \"#utility.yul\":26711:26789   */\n      tag_540\n        /* \"#utility.yul\":26784:26788   */\n      dup2\n        /* \"#utility.yul\":26775:26781   */\n      dup5\n        /* \"#utility.yul\":26711:26789   */\n      tag_252\n      jump\t// in\n    tag_540:\n        /* \"#utility.yul\":26703:26789   */\n      swap1\n      pop\n        /* \"#utility.yul\":26061:26796   */\n      swap6\n      swap5\n      pop\n      pop\n      pop\n      pop\n      pop\n      jump\t// out\n        /* \"#utility.yul\":26802:27035   */\n    tag_191:\n        /* \"#utility.yul\":26841:26844   */\n      0x00\n        /* \"#utility.yul\":26864:26888   */\n      tag_542\n        /* \"#utility.yul\":26882:26887   */\n      dup3\n        /* \"#utility.yul\":26864:26888   */\n      tag_239\n      jump\t// in\n    tag_542:\n        /* \"#utility.yul\":26855:26888   */\n      swap2\n      pop\n        /* \"#utility.yul\":26910:26976   */\n      0xffffffffffffffffffffffffffffffffffffffffffffffffffffffffffffffff\n        /* \"#utility.yul\":26903:26908   */\n      dup3\n        /* \"#utility.yul\":26900:26977   */\n      sub\n        /* \"#utility.yul\":26897:27000   */\n      tag_543\n      jumpi\n        /* \"#utility.yul\":26980:26998   */\n      tag_544\n      tag_282\n      jump\t// in\n    tag_544:\n        /* \"#utility.yul\":26897:27000   */\n    tag_543:\n        /* \"#utility.yul\":27027:27028   */\n      0x01\n        /* \"#utility.yul\":27020:27025   */\n      dup3\n        /* \"#utility.yul\":27016:27029   */\n      add\n        /* \"#utility.yul\":27009:27029   */\n      swap1\n      pop\n        /* \"#utility.yul\":26802:27035   */\n      swap2\n      swap1\n      pop\n      jump\t// out\n        /* \"#utility.yul\":27041:27281   */\n    tag_285:\n        /* \"#utility.yul\":27181:27215   */\n      0x796f75206d7573742062652061207265676973746572656420646f63746f7220\n        /* \"#utility.yul\":27177:27178   */\n      0x00\n        /* \"#utility.yul\":27169:27175   */\n      dup3\n        /* \"#utility.yul\":27165:27179   */\n      add\n        /* \"#utility.yul\":27158:27216   */\n      mstore\n        /* \"#utility.yul\":27250:27273   */\n      0x746f20706572666f72207468697320616374696f6e0000000000000000000000\n        /* \"#utility.yul\":27245:27247   */\n      0x20\n        /* \"#utility.yul\":27237:27243   */\n      dup3\n        /* \"#utility.yul\":27233:27248   */\n      add\n        /* \"#utility.yul\":27226:27274   */\n      mstore\n        /* \"#utility.yul\":27041:27281   */\n      pop\n      jump\t// out\n        /* \"#utility.yul\":27287:27653   */\n    tag_286:\n        /* \"#utility.yul\":27429:27432   */\n      0x00\n        /* \"#utility.yul\":27450:27517   */\n      tag_547\n        /* \"#utility.yul\":27514:27516   */\n      0x35\n        /* \"#utility.yul\":27509:27512   */\n      dup4\n        /* \"#utility.yul\":27450:27517   */\n      tag_250\n      jump\t// in\n    tag_547:\n        /* \"#utility.yul\":27443:27517   */\n      swap2\n      pop\n        /* \"#utility.yul\":27526:27619   */\n      tag_548\n        /* \"#utility.yul\":27615:27618   */\n      dup3\n        /* \"#utility.yul\":27526:27619   */\n      tag_285\n      jump\t// in\n    tag_548:\n        /* \"#utility.yul\":27644:27646   */\n      0x40\n        /* \"#utility.yul\":27639:27642   */\n      dup3\n        /* \"#utility.yul\":27635:27647   */\n      add\n        /* \"#utility.yul\":27628:27647   */\n      swap1\n      pop\n        /* \"#utility.yul\":27287:27653   */\n      swap2\n      swap1\n      pop\n      jump\t// out\n        /* \"#utility.yul\":27659:28078   */\n    tag_199:\n        /* \"#utility.yul\":27825:27829   */\n      0x00\n        /* \"#utility.yul\":27863:27865   */\n      0x20\n        /* \"#utility.yul\":27852:27861   */\n      dup3\n        /* \"#utility.yul\":27848:27866   */\n      add\n        /* \"#utility.yul\":27840:27866   */\n      swap1\n      pop\n        /* \"#utility.yul\":27912:27921   */\n      dup2\n        /* \"#utility.yul\":27906:27910   */\n      dup2\n        /* \"#utility.yul\":27902:27922   */\n      sub\n        /* \"#utility.yul\":27898:27899   */\n      0x00\n        /* \"#utility.yul\":27887:27896   */\n      dup4\n        /* \"#utility.yul\":27883:27900   */\n      add\n        /* \"#utility.yul\":27876:27923   */\n      mstore\n        /* \"#utility.yul\":27940:28071   */\n      tag_550\n        /* \"#utility.yul\":28066:28070   */\n      dup2\n        /* \"#utility.yul\":27940:28071   */\n      tag_286\n      jump\t// in\n    tag_550:\n        /* \"#utility.yul\":27932:28071   */\n      swap1\n      pop\n        /* \"#utility.yul\":27659:28078   */\n      swap2\n      swap1\n      pop\n      jump\t// out\n\n    auxdata: 0xa26469706673582212206cd22575317aa9d7ef99e5e5a1a00c6b6e27ad3301baaa1f3d611279c1bf157a64736f6c634300081a0033\n}\n",
				"bytecode": {
					"linkReferences": {},
					"object": "6080604052348015600e575f80fd5b50335f806101000a81548173ffffffffffffffffffffffffffffffffffffffff021916908373ffffffffffffffffffffffffffffffffffffffff1602179055506124798061005b5f395ff3fe6080604052600436106100e6575f3560e01c806397da311911610089578063ac0f2f7c11610058578063ac0f2f7c146102e2578063c22c4f4314610324578063eebc3fb214610362578063f53d0a8e1461038c576100e6565b806397da31191461022b5780639858befb14610268578063a58190df14610292578063a95ab538146102ba576100e6565b80633f308cd2116100c55780633f308cd21461017b57806359c9920a146101b75780635fd8c710146101f95780636701a9951461020f576100e6565b80626c174f146100ea5780630869cfbc14610112578063230a545a14610151575b5f80fd5b3480156100f5575f80fd5b50610110600480360381019061010b9190611791565b6103b6565b005b34801561011d575f80fd5b5061013860048036038101906101339190611887565b61053d565b6040516101489493929190611930565b60405180910390f35b34801561015c575f80fd5b50610165610681565b6040516101729190611981565b60405180910390f35b348015610186575f80fd5b506101a1600480360381019061019c9190611887565b610687565b6040516101ae919061199a565b60405180910390f35b3480156101c2575f80fd5b506101dd60048036038101906101d891906119b3565b6106a4565b6040516101f097969594939291906119ed565b60405180910390f35b348015610204575f80fd5b5061020d610893565b005b61022960048036038101906102249190611a6f565b610993565b005b348015610236575f80fd5b50610251600480360381019061024c91906119b3565b610d97565b60405161025f929190611b3a565b60405180910390f35b348015610273575f80fd5b5061027c610f39565b6040516102899190611981565b60405180910390f35b34801561029d575f80fd5b506102b860048036038101906102b39190611b68565b610f3f565b005b3480156102c5575f80fd5b506102e060048036038101906102db9190611887565b61108c565b005b3480156102ed575f80fd5b50610308600480360381019061030391906119b3565b611171565b60405161031b97969594939291906119ed565b60405180910390f35b34801561032f575f80fd5b5061034a600480360381019061034591906119b3565b611481565b60405161035993929190611bf0565b60405180910390f35b34801561036d575f80fd5b506103766115b3565b6040516103839190611981565b60405180910390f35b348015610397575f80fd5b506103a06115b9565b6040516103ad9190611c33565b60405180910390f35b60045f3373ffffffffffffffffffffffffffffffffffffffff1673ffffffffffffffffffffffffffffffffffffffff1681526020019081526020015f206003015f9054906101000a900460ff1615610443576040517f08c379a000000000000000000000000000000000000000000000000000000000815260040161043a90611c96565b60405180910390fd5b60405180608001604052808581526020018481526020018381526020016001151581525060045f3373ffffffffffffffffffffffffffffffffffffffff1673ffffffffffffffffffffffffffffffffffffffff1681526020019081526020015f205f820151815f0190816104b79190611eae565b5060208201518160010190816104cd9190611eae565b50604082015181600201556060820151816003015f6101000a81548160ff0219169083151502179055509050507f03ee6e1c88dfd296bc0441d5939af9c0cdc2da7741f9d428223baf353c86db523385848460405161052f9493929190611f7d565b60405180910390a150505050565b6004602052805f5260405f205f91509050805f01805461055c90611ce1565b80601f016020809104026020016040519081016040528092919081815260200182805461058890611ce1565b80156105d35780601f106105aa576101008083540402835291602001916105d3565b820191905f5260205f20905b8154815290600101906020018083116105b657829003601f168201915b5050505050908060010180546105e890611ce1565b80601f016020809104026020016040519081016040528092919081815260200182805461061490611ce1565b801561065f5780601f106106365761010080835404028352916020019161065f565b820191905f5260205f20905b81548152906001019060200180831161064257829003601f168201915b505050505090806002015490806003015f9054906101000a900460ff16905084565b60035481565b6007602052805f5260405f205f915054906101000a900460ff1681565b6005602052805f5260405f205f91509050805f015f9054906101000a900473ffffffffffffffffffffffffffffffffffffffff16908060010180546106e890611ce1565b80601f016020809104026020016040519081016040528092919081815260200182805461071490611ce1565b801561075f5780601f106107365761010080835404028352916020019161075f565b820191905f5260205f20905b81548152906001019060200180831161074257829003601f168201915b50505050509080600201549080600301805461077a90611ce1565b80601f01602080910402602001604051908101604052809291908181526020018280546107a690611ce1565b80156107f15780601f106107c8576101008083540402835291602001916107f1565b820191905f5260205f20905b8154815290600101906020018083116107d457829003601f168201915b50505050509080600401549080600501549080600601805461081290611ce1565b80601f016020809104026020016040519081016040528092919081815260200182805461083e90611ce1565b80156108895780601f1061086057610100808354040283529160200191610889565b820191905f5260205f20905b81548152906001019060200180831161086c57829003601f168201915b5050505050905087565b5f8054906101000a900473ffffffffffffffffffffffffffffffffffffffff1673ffffffffffffffffffffffffffffffffffffffff163373ffffffffffffffffffffffffffffffffffffffff1614610920576040517f08c379a000000000000000000000000000000000000000000000000000000000815260040161091790612037565b60405180910390fd5b5f60015490505f6001819055505f8054906101000a900473ffffffffffffffffffffffffffffffffffffffff1673ffffffffffffffffffffffffffffffffffffffff166108fc8290811502906040515f60405180830381858888f1935050505015801561098f573d5f803e3d5ffd5b5050565b3360045f8273ffffffffffffffffffffffffffffffffffffffff1673ffffffffffffffffffffffffffffffffffffffff1681526020019081526020015f206003015f9054906101000a900460ff16610a20576040517f08c379a0000000000000000000000000000000000000000000000000000000008152600401610a17906120c5565b60405180910390fd5b6003548610610a64576040517f08c379a0000000000000000000000000000000000000000000000000000000008152600401610a5b9061212d565b60405180910390fd5b5f60025f8881526020019081526020015f206040518060600160405290815f82018054610a9090611ce1565b80601f0160208091040260200160405190810160405280929190818152602001828054610abc90611ce1565b8015610b075780601f10610ade57610100808354040283529160200191610b07565b820191905f5260205f20905b815481529060010190602001808311610aea57829003601f168201915b5050505050815260200160018201548152602001600282018054610b2a90611ce1565b80601f0160208091040260200160405190810160405280929190818152602001828054610b5690611ce1565b8015610ba15780601f10610b7857610100808354040283529160200191610ba1565b820191905f5260205f20905b815481529060010190602001808311610b8457829003601f168201915b50505050508152505090505f81602001519050803414610bf6576040517f08c379a0000000000000000000000000000000000000000000000000000000008152600401610bed90612195565b60405180910390fd5b6040518060e001604052803373ffffffffffffffffffffffffffffffffffffffff1681526020018881526020018281526020018781526020018981526020018681526020018581525060055f60065481526020019081526020015f205f820151815f015f6101000a81548173ffffffffffffffffffffffffffffffffffffffff021916908373ffffffffffffffffffffffffffffffffffffffff1602179055506020820151816001019081610cab9190611eae565b50604082015181600201556060820151816003019081610ccb9190611eae565b506080820151816004015560a0820151816005015560c0820151816006019081610cf59190611eae565b509050503460015f828254610d0a91906121e0565b925050819055507f707725ccac2042cfcafe3472728783204e19bc16e50d3e27e7f0fd9290407f6a33898784888b604051610d4a96959493929190612213565b60405180910390a17f5677b5d4cf976ac32defbd95a6a5aaf0d1fee450a11fc26f3c11aae6e6c33d06333487604051610d8593929190612280565b60405180910390a15050505050505050565b60605f6003548310610dde576040517f08c379a0000000000000000000000000000000000000000000000000000000008152600401610dd5906122ff565b60405180910390fd5b5f60025f8581526020019081526020015f206040518060600160405290815f82018054610e0a90611ce1565b80601f0160208091040260200160405190810160405280929190818152602001828054610e3690611ce1565b8015610e815780601f10610e5857610100808354040283529160200191610e81565b820191905f5260205f20905b815481529060010190602001808311610e6457829003601f168201915b5050505050815260200160018201548152602001600282018054610ea490611ce1565b80601f0160208091040260200160405190810160405280929190818152602001828054610ed090611ce1565b8015610f1b5780601f10610ef257610100808354040283529160200191610f1b565b820191905f5260205f20905b815481529060010190602001808311610efe57829003601f168201915b5050505050815250509050805f015181602001519250925050915091565b60015481565b5f8054906101000a900473ffffffffffffffffffffffffffffffffffffffff1673ffffffffffffffffffffffffffffffffffffffff163373ffffffffffffffffffffffffffffffffffffffff1614610fcc576040517f08c379a0000000000000000000000000000000000000000000000000000000008152600401610fc390612037565b60405180910390fd5b60405180606001604052808481526020018381526020018281525060025f60035481526020019081526020015f205f820151815f01908161100d9190611eae565b5060208201518160010155604082015181600201908161102d9190611eae565b509050507fb27e269517a15639f2624504558daa9b3cef5cce6eb77f0a8a563abf10838706600354848484604051611068949392919061231d565b60405180910390a160035f8154809291906110829061236e565b9190505550505050565b5f8054906101000a900473ffffffffffffffffffffffffffffffffffffffff1673ffffffffffffffffffffffffffffffffffffffff163373ffffffffffffffffffffffffffffffffffffffff1614611119576040517f08c379a000000000000000000000000000000000000000000000000000000000815260040161111090612037565b60405180910390fd5b600160075f8373ffffffffffffffffffffffffffffffffffffffff1673ffffffffffffffffffffffffffffffffffffffff1681526020019081526020015f205f6101000a81548160ff02191690831515021790555050565b5f60605f60605f80606060075f3373ffffffffffffffffffffffffffffffffffffffff1673ffffffffffffffffffffffffffffffffffffffff1681526020019081526020015f205f9054906101000a900460ff16611204576040517f08c379a00000000000000000000000000000000000000000000000000000000081526004016111fb90612425565b60405180910390fd5b5f60055f8a81526020019081526020015f206040518060e00160405290815f82015f9054906101000a900473ffffffffffffffffffffffffffffffffffffffff1673ffffffffffffffffffffffffffffffffffffffff1673ffffffffffffffffffffffffffffffffffffffff16815260200160018201805461128590611ce1565b80601f01602080910402602001604051908101604052809291908181526020018280546112b190611ce1565b80156112fc5780601f106112d3576101008083540402835291602001916112fc565b820191905f5260205f20905b8154815290600101906020018083116112df57829003601f168201915b505050505081526020016002820154815260200160038201805461131f90611ce1565b80601f016020809104026020016040519081016040528092919081815260200182805461134b90611ce1565b80156113965780601f1061136d57610100808354040283529160200191611396565b820191905f5260205f20905b81548152906001019060200180831161137957829003601f168201915b5050505050815260200160048201548152602001600582015481526020016006820180546113c390611ce1565b80601f01602080910402602001604051908101604052809291908181526020018280546113ef90611ce1565b801561143a5780601f106114115761010080835404028352916020019161143a565b820191905f5260205f20905b81548152906001019060200180831161141d57829003601f168201915b5050505050815250509050805f015181602001518260400151836060015184608001518560a001518660c00151975097509750975097509750975050919395979092949650565b6002602052805f5260405f205f91509050805f0180546114a090611ce1565b80601f01602080910402602001604051908101604052809291908181526020018280546114cc90611ce1565b80156115175780601f106114ee57610100808354040283529160200191611517565b820191905f5260205f20905b8154815290600101906020018083116114fa57829003601f168201915b50505050509080600101549080600201805461153290611ce1565b80601f016020809104026020016040519081016040528092919081815260200182805461155e90611ce1565b80156115a95780601f10611580576101008083540402835291602001916115a9565b820191905f5260205f20905b81548152906001019060200180831161158c57829003601f168201915b5050505050905083565b60065481565b5f8054906101000a900473ffffffffffffffffffffffffffffffffffffffff1681565b5f604051905090565b5f80fd5b5f80fd5b5f80fd5b5f80fd5b5f601f19601f8301169050919050565b7f4e487b71000000000000000000000000000000000000000000000000000000005f52604160045260245ffd5b61163b826115f5565b810181811067ffffffffffffffff8211171561165a57611659611605565b5b80604052505050565b5f61166c6115dc565b90506116788282611632565b919050565b5f67ffffffffffffffff82111561169757611696611605565b5b6116a0826115f5565b9050602081019050919050565b828183375f83830152505050565b5f6116cd6116c88461167d565b611663565b9050828152602081018484840111156116e9576116e86115f1565b5b6116f48482856116ad565b509392505050565b5f82601f8301126117105761170f6115ed565b5b81356117208482602086016116bb565b91505092915050565b5f819050919050565b61173b81611729565b8114611745575f80fd5b50565b5f8135905061175681611732565b92915050565b5f8115159050919050565b6117708161175c565b811461177a575f80fd5b50565b5f8135905061178b81611767565b92915050565b5f805f80608085870312156117a9576117a86115e5565b5b5f85013567ffffffffffffffff8111156117c6576117c56115e9565b5b6117d2878288016116fc565b945050602085013567ffffffffffffffff8111156117f3576117f26115e9565b5b6117ff878288016116fc565b935050604061181087828801611748565b92505060606118218782880161177d565b91505092959194509250565b5f73ffffffffffffffffffffffffffffffffffffffff82169050919050565b5f6118568261182d565b9050919050565b6118668161184c565b8114611870575f80fd5b50565b5f813590506118818161185d565b92915050565b5f6020828403121561189c5761189b6115e5565b5b5f6118a984828501611873565b91505092915050565b5f81519050919050565b5f82825260208201905092915050565b8281835e5f83830152505050565b5f6118e4826118b2565b6118ee81856118bc565b93506118fe8185602086016118cc565b611907816115f5565b840191505092915050565b61191b81611729565b82525050565b61192a8161175c565b82525050565b5f6080820190508181035f83015261194881876118da565b9050818103602083015261195c81866118da565b905061196b6040830185611912565b6119786060830184611921565b95945050505050565b5f6020820190506119945f830184611912565b92915050565b5f6020820190506119ad5f830184611921565b92915050565b5f602082840312156119c8576119c76115e5565b5b5f6119d584828501611748565b91505092915050565b6119e78161184c565b82525050565b5f60e082019050611a005f83018a6119de565b8181036020830152611a1281896118da565b9050611a216040830188611912565b8181036060830152611a3381876118da565b9050611a426080830186611912565b611a4f60a0830185611912565b81810360c0830152611a6181846118da565b905098975050505050505050565b5f805f805f60a08688031215611a8857611a876115e5565b5b5f611a9588828901611748565b955050602086013567ffffffffffffffff811115611ab657611ab56115e9565b5b611ac2888289016116fc565b945050604086013567ffffffffffffffff811115611ae357611ae26115e9565b5b611aef888289016116fc565b9350506060611b0088828901611748565b925050608086013567ffffffffffffffff811115611b2157611b206115e9565b5b611b2d888289016116fc565b9150509295509295909350565b5f6040820190508181035f830152611b5281856118da565b9050611b616020830184611912565b9392505050565b5f805f60608486031215611b7f57611b7e6115e5565b5b5f84013567ffffffffffffffff811115611b9c57611b9b6115e9565b5b611ba8868287016116fc565b9350506020611bb986828701611748565b925050604084013567ffffffffffffffff811115611bda57611bd96115e9565b5b611be6868287016116fc565b9150509250925092565b5f6060820190508181035f830152611c0881866118da565b9050611c176020830185611912565b8181036040830152611c2981846118da565b9050949350505050565b5f602082019050611c465f8301846119de565b92915050565b7f50617469656e742070726f66696c6520616c72656164792065786973747300005f82015250565b5f611c80601e836118bc565b9150611c8b82611c4c565b602082019050919050565b5f6020820190508181035f830152611cad81611c74565b9050919050565b7f4e487b71000000000000000000000000000000000000000000000000000000005f52602260045260245ffd5b5f6002820490506001821680611cf857607f821691505b602082108103611d0b57611d0a611cb4565b5b50919050565b5f819050815f5260205f209050919050565b5f6020601f8301049050919050565b5f82821b905092915050565b5f60088302611d6d7fffffffffffffffffffffffffffffffffffffffffffffffffffffffffffffffff82611d32565b611d778683611d32565b95508019841693508086168417925050509392505050565b5f819050919050565b5f611db2611dad611da884611729565b611d8f565b611729565b9050919050565b5f819050919050565b611dcb83611d98565b611ddf611dd782611db9565b848454611d3e565b825550505050565b5f90565b611df3611de7565b611dfe818484611dc2565b505050565b5b81811015611e2157611e165f82611deb565b600181019050611e04565b5050565b601f821115611e6657611e3781611d11565b611e4084611d23565b81016020851015611e4f578190505b611e63611e5b85611d23565b830182611e03565b50505b505050565b5f82821c905092915050565b5f611e865f1984600802611e6b565b1980831691505092915050565b5f611e9e8383611e77565b9150826002028217905092915050565b611eb7826118b2565b67ffffffffffffffff811115611ed057611ecf611605565b5b611eda8254611ce1565b611ee5828285611e25565b5f60209050601f831160018114611f16575f8415611f04578287015190505b611f0e8582611e93565b865550611f75565b601f198416611f2486611d11565b5f5b82811015611f4b57848901518255600182019150602085019450602081019050611f26565b86831015611f685784890151611f64601f891682611e77565b8355505b6001600288020188555050505b505050505050565b5f608082019050611f905f8301876119de565b8181036020830152611fa281866118da565b9050611fb16040830185611912565b611fbe6060830184611921565b95945050505050565b7f6f6e6c79207468652061646d696e2063616e20706572666f726d2074686973205f8201527f616374696f6e2e00000000000000000000000000000000000000000000000000602082015250565b5f6120216027836118bc565b915061202c82611fc7565b604082019050919050565b5f6020820190508181035f83015261204e81612015565b9050919050565b7f546869732070617469656e74206973206e6f74207265676973746572656420615f8201527f6e6420636f756c64616e742062652066756e6400000000000000000000000000602082015250565b5f6120af6033836118bc565b91506120ba82612055565b604082019050919050565b5f6020820190508181035f8301526120dc816120a3565b9050919050565b7f496e76616c6964207365727669636500000000000000000000000000000000005f82015250565b5f612117600f836118bc565b9150612122826120e3565b602082019050919050565b5f6020820190508181035f8301526121448161210b565b9050919050565b7f696e636f7272656374207061796d656e7420616d6f756e742e000000000000005f82015250565b5f61217f6019836118bc565b915061218a8261214b565b602082019050919050565b5f6020820190508181035f8301526121ac81612173565b9050919050565b7f4e487b71000000000000000000000000000000000000000000000000000000005f52601160045260245ffd5b5f6121ea82611729565b91506121f583611729565b925082820190508082111561220d5761220c6121b3565b5b92915050565b5f60c0820190506122265f8301896119de565b6122336020830188611912565b6122406040830187611912565b61224d6060830186611912565b818103608083015261225f81856118da565b905081810360a083015261227381846118da565b9050979650505050505050565b5f6060820190506122935f8301866119de565b6122a06020830185611912565b6122ad6040830184611912565b949350505050565b7f696e76616c6964207365727669636520000000000000000000000000000000005f82015250565b5f6122e96010836118bc565b91506122f4826122b5565b602082019050919050565b5f6020820190508181035f830152612316816122dd565b9050919050565b5f6080820190506123305f830187611912565b818103602083015261234281866118da565b90506123516040830185611912565b818103606083015261236381846118da565b905095945050505050565b5f61237882611729565b91507fffffffffffffffffffffffffffffffffffffffffffffffffffffffffffffffff82036123aa576123a96121b3565b5b600182019050919050565b7f796f75206d7573742062652061207265676973746572656420646f63746f72205f8201527f746f20706572666f72207468697320616374696f6e0000000000000000000000602082015250565b5f61240f6035836118bc565b915061241a826123b5565b604082019050919050565b5f6020820190508181035f83015261243c81612403565b905091905056fea26469706673582212206cd22575317aa9d7ef99e5e5a1a00c6b6e27ad3301baaa1f3d611279c1bf157a64736f6c634300081a0033",
					"opcodes": "PUSH1 0x80 PUSH1 0x40 MSTORE CALLVALUE DUP1 ISZERO PUSH1 0xE JUMPI PUSH0 DUP1 REVERT JUMPDEST POP CALLER PUSH0 DUP1 PUSH2 0x100 EXP DUP2 SLOAD DUP2 PUSH20 0xFFFFFFFFFFFFFFFFFFFFFFFFFFFFFFFFFFFFFFFF MUL NOT AND SWAP1 DUP4 PUSH20 0xFFFFFFFFFFFFFFFFFFFFFFFFFFFFFFFFFFFFFFFF AND MUL OR SWAP1 SSTORE POP PUSH2 0x2479 DUP1 PUSH2 0x5B PUSH0 CODECOPY PUSH0 RETURN INVALID PUSH1 0x80 PUSH1 0x40 MSTORE PUSH1 0x4 CALLDATASIZE LT PUSH2 0xE6 JUMPI PUSH0 CALLDATALOAD PUSH1 0xE0 SHR DUP1 PUSH4 0x97DA3119 GT PUSH2 0x89 JUMPI DUP1 PUSH4 0xAC0F2F7C GT PUSH2 0x58 JUMPI DUP1 PUSH4 0xAC0F2F7C EQ PUSH2 0x2E2 JUMPI DUP1 PUSH4 0xC22C4F43 EQ PUSH2 0x324 JUMPI DUP1 PUSH4 0xEEBC3FB2 EQ PUSH2 0x362 JUMPI DUP1 PUSH4 0xF53D0A8E EQ PUSH2 0x38C JUMPI PUSH2 0xE6 JUMP JUMPDEST DUP1 PUSH4 0x97DA3119 EQ PUSH2 0x22B JUMPI DUP1 PUSH4 0x9858BEFB EQ PUSH2 0x268 JUMPI DUP1 PUSH4 0xA58190DF EQ PUSH2 0x292 JUMPI DUP1 PUSH4 0xA95AB538 EQ PUSH2 0x2BA JUMPI PUSH2 0xE6 JUMP JUMPDEST DUP1 PUSH4 0x3F308CD2 GT PUSH2 0xC5 JUMPI DUP1 PUSH4 0x3F308CD2 EQ PUSH2 0x17B JUMPI DUP1 PUSH4 0x59C9920A EQ PUSH2 0x1B7 JUMPI DUP1 PUSH4 0x5FD8C710 EQ PUSH2 0x1F9 JUMPI DUP1 PUSH4 0x6701A995 EQ PUSH2 0x20F JUMPI PUSH2 0xE6 JUMP JUMPDEST DUP1 PUSH3 0x6C174F EQ PUSH2 0xEA JUMPI DUP1 PUSH4 0x869CFBC EQ PUSH2 0x112 JUMPI DUP1 PUSH4 0x230A545A EQ PUSH2 0x151 JUMPI JUMPDEST PUSH0 DUP1 REVERT JUMPDEST CALLVALUE DUP1 ISZERO PUSH2 0xF5 JUMPI PUSH0 DUP1 REVERT JUMPDEST POP PUSH2 0x110 PUSH1 0x4 DUP1 CALLDATASIZE SUB DUP2 ADD SWAP1 PUSH2 0x10B SWAP2 SWAP1 PUSH2 0x1791 JUMP JUMPDEST PUSH2 0x3B6 JUMP JUMPDEST STOP JUMPDEST CALLVALUE DUP1 ISZERO PUSH2 0x11D JUMPI PUSH0 DUP1 REVERT JUMPDEST POP PUSH2 0x138 PUSH1 0x4 DUP1 CALLDATASIZE SUB DUP2 ADD SWAP1 PUSH2 0x133 SWAP2 SWAP1 PUSH2 0x1887 JUMP JUMPDEST PUSH2 0x53D JUMP JUMPDEST PUSH1 0x40 MLOAD PUSH2 0x148 SWAP5 SWAP4 SWAP3 SWAP2 SWAP1 PUSH2 0x1930 JUMP JUMPDEST PUSH1 0x40 MLOAD DUP1 SWAP2 SUB SWAP1 RETURN JUMPDEST CALLVALUE DUP1 ISZERO PUSH2 0x15C JUMPI PUSH0 DUP1 REVERT JUMPDEST POP PUSH2 0x165 PUSH2 0x681 JUMP JUMPDEST PUSH1 0x40 MLOAD PUSH2 0x172 SWAP2 SWAP1 PUSH2 0x1981 JUMP JUMPDEST PUSH1 0x40 MLOAD DUP1 SWAP2 SUB SWAP1 RETURN JUMPDEST CALLVALUE DUP1 ISZERO PUSH2 0x186 JUMPI PUSH0 DUP1 REVERT JUMPDEST POP PUSH2 0x1A1 PUSH1 0x4 DUP1 CALLDATASIZE SUB DUP2 ADD SWAP1 PUSH2 0x19C SWAP2 SWAP1 PUSH2 0x1887 JUMP JUMPDEST PUSH2 0x687 JUMP JUMPDEST PUSH1 0x40 MLOAD PUSH2 0x1AE SWAP2 SWAP1 PUSH2 0x199A JUMP JUMPDEST PUSH1 0x40 MLOAD DUP1 SWAP2 SUB SWAP1 RETURN JUMPDEST CALLVALUE DUP1 ISZERO PUSH2 0x1C2 JUMPI PUSH0 DUP1 REVERT JUMPDEST POP PUSH2 0x1DD PUSH1 0x4 DUP1 CALLDATASIZE SUB DUP2 ADD SWAP1 PUSH2 0x1D8 SWAP2 SWAP1 PUSH2 0x19B3 JUMP JUMPDEST PUSH2 0x6A4 JUMP JUMPDEST PUSH1 0x40 MLOAD PUSH2 0x1F0 SWAP8 SWAP7 SWAP6 SWAP5 SWAP4 SWAP3 SWAP2 SWAP1 PUSH2 0x19ED JUMP JUMPDEST PUSH1 0x40 MLOAD DUP1 SWAP2 SUB SWAP1 RETURN JUMPDEST CALLVALUE DUP1 ISZERO PUSH2 0x204 JUMPI PUSH0 DUP1 REVERT JUMPDEST POP PUSH2 0x20D PUSH2 0x893 JUMP JUMPDEST STOP JUMPDEST PUSH2 0x229 PUSH1 0x4 DUP1 CALLDATASIZE SUB DUP2 ADD SWAP1 PUSH2 0x224 SWAP2 SWAP1 PUSH2 0x1A6F JUMP JUMPDEST PUSH2 0x993 JUMP JUMPDEST STOP JUMPDEST CALLVALUE DUP1 ISZERO PUSH2 0x236 JUMPI PUSH0 DUP1 REVERT JUMPDEST POP PUSH2 0x251 PUSH1 0x4 DUP1 CALLDATASIZE SUB DUP2 ADD SWAP1 PUSH2 0x24C SWAP2 SWAP1 PUSH2 0x19B3 JUMP JUMPDEST PUSH2 0xD97 JUMP JUMPDEST PUSH1 0x40 MLOAD PUSH2 0x25F SWAP3 SWAP2 SWAP1 PUSH2 0x1B3A JUMP JUMPDEST PUSH1 0x40 MLOAD DUP1 SWAP2 SUB SWAP1 RETURN JUMPDEST CALLVALUE DUP1 ISZERO PUSH2 0x273 JUMPI PUSH0 DUP1 REVERT JUMPDEST POP PUSH2 0x27C PUSH2 0xF39 JUMP JUMPDEST PUSH1 0x40 MLOAD PUSH2 0x289 SWAP2 SWAP1 PUSH2 0x1981 JUMP JUMPDEST PUSH1 0x40 MLOAD DUP1 SWAP2 SUB SWAP1 RETURN JUMPDEST CALLVALUE DUP1 ISZERO PUSH2 0x29D JUMPI PUSH0 DUP1 REVERT JUMPDEST POP PUSH2 0x2B8 PUSH1 0x4 DUP1 CALLDATASIZE SUB DUP2 ADD SWAP1 PUSH2 0x2B3 SWAP2 SWAP1 PUSH2 0x1B68 JUMP JUMPDEST PUSH2 0xF3F JUMP JUMPDEST STOP JUMPDEST CALLVALUE DUP1 ISZERO PUSH2 0x2C5 JUMPI PUSH0 DUP1 REVERT JUMPDEST POP PUSH2 0x2E0 PUSH1 0x4 DUP1 CALLDATASIZE SUB DUP2 ADD SWAP1 PUSH2 0x2DB SWAP2 SWAP1 PUSH2 0x1887 JUMP JUMPDEST PUSH2 0x108C JUMP JUMPDEST STOP JUMPDEST CALLVALUE DUP1 ISZERO PUSH2 0x2ED JUMPI PUSH0 DUP1 REVERT JUMPDEST POP PUSH2 0x308 PUSH1 0x4 DUP1 CALLDATASIZE SUB DUP2 ADD SWAP1 PUSH2 0x303 SWAP2 SWAP1 PUSH2 0x19B3 JUMP JUMPDEST PUSH2 0x1171 JUMP JUMPDEST PUSH1 0x40 MLOAD PUSH2 0x31B SWAP8 SWAP7 SWAP6 SWAP5 SWAP4 SWAP3 SWAP2 SWAP1 PUSH2 0x19ED JUMP JUMPDEST PUSH1 0x40 MLOAD DUP1 SWAP2 SUB SWAP1 RETURN JUMPDEST CALLVALUE DUP1 ISZERO PUSH2 0x32F JUMPI PUSH0 DUP1 REVERT JUMPDEST POP PUSH2 0x34A PUSH1 0x4 DUP1 CALLDATASIZE SUB DUP2 ADD SWAP1 PUSH2 0x345 SWAP2 SWAP1 PUSH2 0x19B3 JUMP JUMPDEST PUSH2 0x1481 JUMP JUMPDEST PUSH1 0x40 MLOAD PUSH2 0x359 SWAP4 SWAP3 SWAP2 SWAP1 PUSH2 0x1BF0 JUMP JUMPDEST PUSH1 0x40 MLOAD DUP1 SWAP2 SUB SWAP1 RETURN JUMPDEST CALLVALUE DUP1 ISZERO PUSH2 0x36D JUMPI PUSH0 DUP1 REVERT JUMPDEST POP PUSH2 0x376 PUSH2 0x15B3 JUMP JUMPDEST PUSH1 0x40 MLOAD PUSH2 0x383 SWAP2 SWAP1 PUSH2 0x1981 JUMP JUMPDEST PUSH1 0x40 MLOAD DUP1 SWAP2 SUB SWAP1 RETURN JUMPDEST CALLVALUE DUP1 ISZERO PUSH2 0x397 JUMPI PUSH0 DUP1 REVERT JUMPDEST POP PUSH2 0x3A0 PUSH2 0x15B9 JUMP JUMPDEST PUSH1 0x40 MLOAD PUSH2 0x3AD SWAP2 SWAP1 PUSH2 0x1C33 JUMP JUMPDEST PUSH1 0x40 MLOAD DUP1 SWAP2 SUB SWAP1 RETURN JUMPDEST PUSH1 0x4 PUSH0 CALLER PUSH20 0xFFFFFFFFFFFFFFFFFFFFFFFFFFFFFFFFFFFFFFFF AND PUSH20 0xFFFFFFFFFFFFFFFFFFFFFFFFFFFFFFFFFFFFFFFF AND DUP2 MSTORE PUSH1 0x20 ADD SWAP1 DUP2 MSTORE PUSH1 0x20 ADD PUSH0 KECCAK256 PUSH1 0x3 ADD PUSH0 SWAP1 SLOAD SWAP1 PUSH2 0x100 EXP SWAP1 DIV PUSH1 0xFF AND ISZERO PUSH2 0x443 JUMPI PUSH1 0x40 MLOAD PUSH32 0x8C379A000000000000000000000000000000000000000000000000000000000 DUP2 MSTORE PUSH1 0x4 ADD PUSH2 0x43A SWAP1 PUSH2 0x1C96 JUMP JUMPDEST PUSH1 0x40 MLOAD DUP1 SWAP2 SUB SWAP1 REVERT JUMPDEST PUSH1 0x40 MLOAD DUP1 PUSH1 0x80 ADD PUSH1 0x40 MSTORE DUP1 DUP6 DUP2 MSTORE PUSH1 0x20 ADD DUP5 DUP2 MSTORE PUSH1 0x20 ADD DUP4 DUP2 MSTORE PUSH1 0x20 ADD PUSH1 0x1 ISZERO ISZERO DUP2 MSTORE POP PUSH1 0x4 PUSH0 CALLER PUSH20 0xFFFFFFFFFFFFFFFFFFFFFFFFFFFFFFFFFFFFFFFF AND PUSH20 0xFFFFFFFFFFFFFFFFFFFFFFFFFFFFFFFFFFFFFFFF AND DUP2 MSTORE PUSH1 0x20 ADD SWAP1 DUP2 MSTORE PUSH1 0x20 ADD PUSH0 KECCAK256 PUSH0 DUP3 ADD MLOAD DUP2 PUSH0 ADD SWAP1 DUP2 PUSH2 0x4B7 SWAP2 SWAP1 PUSH2 0x1EAE JUMP JUMPDEST POP PUSH1 0x20 DUP3 ADD MLOAD DUP2 PUSH1 0x1 ADD SWAP1 DUP2 PUSH2 0x4CD SWAP2 SWAP1 PUSH2 0x1EAE JUMP JUMPDEST POP PUSH1 0x40 DUP3 ADD MLOAD DUP2 PUSH1 0x2 ADD SSTORE PUSH1 0x60 DUP3 ADD MLOAD DUP2 PUSH1 0x3 ADD PUSH0 PUSH2 0x100 EXP DUP2 SLOAD DUP2 PUSH1 0xFF MUL NOT AND SWAP1 DUP4 ISZERO ISZERO MUL OR SWAP1 SSTORE POP SWAP1 POP POP PUSH32 0x3EE6E1C88DFD296BC0441D5939AF9C0CDC2DA7741F9D428223BAF353C86DB52 CALLER DUP6 DUP5 DUP5 PUSH1 0x40 MLOAD PUSH2 0x52F SWAP5 SWAP4 SWAP3 SWAP2 SWAP1 PUSH2 0x1F7D JUMP JUMPDEST PUSH1 0x40 MLOAD DUP1 SWAP2 SUB SWAP1 LOG1 POP POP POP POP JUMP JUMPDEST PUSH1 0x4 PUSH1 0x20 MSTORE DUP1 PUSH0 MSTORE PUSH1 0x40 PUSH0 KECCAK256 PUSH0 SWAP2 POP SWAP1 POP DUP1 PUSH0 ADD DUP1 SLOAD PUSH2 0x55C SWAP1 PUSH2 0x1CE1 JUMP JUMPDEST DUP1 PUSH1 0x1F ADD PUSH1 0x20 DUP1 SWAP2 DIV MUL PUSH1 0x20 ADD PUSH1 0x40 MLOAD SWAP1 DUP2 ADD PUSH1 0x40 MSTORE DUP1 SWAP3 SWAP2 SWAP1 DUP2 DUP2 MSTORE PUSH1 0x20 ADD DUP3 DUP1 SLOAD PUSH2 0x588 SWAP1 PUSH2 0x1CE1 JUMP JUMPDEST DUP1 ISZERO PUSH2 0x5D3 JUMPI DUP1 PUSH1 0x1F LT PUSH2 0x5AA JUMPI PUSH2 0x100 DUP1 DUP4 SLOAD DIV MUL DUP4 MSTORE SWAP2 PUSH1 0x20 ADD SWAP2 PUSH2 0x5D3 JUMP JUMPDEST DUP3 ADD SWAP2 SWAP1 PUSH0 MSTORE PUSH1 0x20 PUSH0 KECCAK256 SWAP1 JUMPDEST DUP2 SLOAD DUP2 MSTORE SWAP1 PUSH1 0x1 ADD SWAP1 PUSH1 0x20 ADD DUP1 DUP4 GT PUSH2 0x5B6 JUMPI DUP3 SWAP1 SUB PUSH1 0x1F AND DUP3 ADD SWAP2 JUMPDEST POP POP POP POP POP SWAP1 DUP1 PUSH1 0x1 ADD DUP1 SLOAD PUSH2 0x5E8 SWAP1 PUSH2 0x1CE1 JUMP JUMPDEST DUP1 PUSH1 0x1F ADD PUSH1 0x20 DUP1 SWAP2 DIV MUL PUSH1 0x20 ADD PUSH1 0x40 MLOAD SWAP1 DUP2 ADD PUSH1 0x40 MSTORE DUP1 SWAP3 SWAP2 SWAP1 DUP2 DUP2 MSTORE PUSH1 0x20 ADD DUP3 DUP1 SLOAD PUSH2 0x614 SWAP1 PUSH2 0x1CE1 JUMP JUMPDEST DUP1 ISZERO PUSH2 0x65F JUMPI DUP1 PUSH1 0x1F LT PUSH2 0x636 JUMPI PUSH2 0x100 DUP1 DUP4 SLOAD DIV MUL DUP4 MSTORE SWAP2 PUSH1 0x20 ADD SWAP2 PUSH2 0x65F JUMP JUMPDEST DUP3 ADD SWAP2 SWAP1 PUSH0 MSTORE PUSH1 0x20 PUSH0 KECCAK256 SWAP1 JUMPDEST DUP2 SLOAD DUP2 MSTORE SWAP1 PUSH1 0x1 ADD SWAP1 PUSH1 0x20 ADD DUP1 DUP4 GT PUSH2 0x642 JUMPI DUP3 SWAP1 SUB PUSH1 0x1F AND DUP3 ADD SWAP2 JUMPDEST POP POP POP POP POP SWAP1 DUP1 PUSH1 0x2 ADD SLOAD SWAP1 DUP1 PUSH1 0x3 ADD PUSH0 SWAP1 SLOAD SWAP1 PUSH2 0x100 EXP SWAP1 DIV PUSH1 0xFF AND SWAP1 POP DUP5 JUMP JUMPDEST PUSH1 0x3 SLOAD DUP2 JUMP JUMPDEST PUSH1 0x7 PUSH1 0x20 MSTORE DUP1 PUSH0 MSTORE PUSH1 0x40 PUSH0 KECCAK256 PUSH0 SWAP2 POP SLOAD SWAP1 PUSH2 0x100 EXP SWAP1 DIV PUSH1 0xFF AND DUP2 JUMP JUMPDEST PUSH1 0x5 PUSH1 0x20 MSTORE DUP1 PUSH0 MSTORE PUSH1 0x40 PUSH0 KECCAK256 PUSH0 SWAP2 POP SWAP1 POP DUP1 PUSH0 ADD PUSH0 SWAP1 SLOAD SWAP1 PUSH2 0x100 EXP SWAP1 DIV PUSH20 0xFFFFFFFFFFFFFFFFFFFFFFFFFFFFFFFFFFFFFFFF AND SWAP1 DUP1 PUSH1 0x1 ADD DUP1 SLOAD PUSH2 0x6E8 SWAP1 PUSH2 0x1CE1 JUMP JUMPDEST DUP1 PUSH1 0x1F ADD PUSH1 0x20 DUP1 SWAP2 DIV MUL PUSH1 0x20 ADD PUSH1 0x40 MLOAD SWAP1 DUP2 ADD PUSH1 0x40 MSTORE DUP1 SWAP3 SWAP2 SWAP1 DUP2 DUP2 MSTORE PUSH1 0x20 ADD DUP3 DUP1 SLOAD PUSH2 0x714 SWAP1 PUSH2 0x1CE1 JUMP JUMPDEST DUP1 ISZERO PUSH2 0x75F JUMPI DUP1 PUSH1 0x1F LT PUSH2 0x736 JUMPI PUSH2 0x100 DUP1 DUP4 SLOAD DIV MUL DUP4 MSTORE SWAP2 PUSH1 0x20 ADD SWAP2 PUSH2 0x75F JUMP JUMPDEST DUP3 ADD SWAP2 SWAP1 PUSH0 MSTORE PUSH1 0x20 PUSH0 KECCAK256 SWAP1 JUMPDEST DUP2 SLOAD DUP2 MSTORE SWAP1 PUSH1 0x1 ADD SWAP1 PUSH1 0x20 ADD DUP1 DUP4 GT PUSH2 0x742 JUMPI DUP3 SWAP1 SUB PUSH1 0x1F AND DUP3 ADD SWAP2 JUMPDEST POP POP POP POP POP SWAP1 DUP1 PUSH1 0x2 ADD SLOAD SWAP1 DUP1 PUSH1 0x3 ADD DUP1 SLOAD PUSH2 0x77A SWAP1 PUSH2 0x1CE1 JUMP JUMPDEST DUP1 PUSH1 0x1F ADD PUSH1 0x20 DUP1 SWAP2 DIV MUL PUSH1 0x20 ADD PUSH1 0x40 MLOAD SWAP1 DUP2 ADD PUSH1 0x40 MSTORE DUP1 SWAP3 SWAP2 SWAP1 DUP2 DUP2 MSTORE PUSH1 0x20 ADD DUP3 DUP1 SLOAD PUSH2 0x7A6 SWAP1 PUSH2 0x1CE1 JUMP JUMPDEST DUP1 ISZERO PUSH2 0x7F1 JUMPI DUP1 PUSH1 0x1F LT PUSH2 0x7C8 JUMPI PUSH2 0x100 DUP1 DUP4 SLOAD DIV MUL DUP4 MSTORE SWAP2 PUSH1 0x20 ADD SWAP2 PUSH2 0x7F1 JUMP JUMPDEST DUP3 ADD SWAP2 SWAP1 PUSH0 MSTORE PUSH1 0x20 PUSH0 KECCAK256 SWAP1 JUMPDEST DUP2 SLOAD DUP2 MSTORE SWAP1 PUSH1 0x1 ADD SWAP1 PUSH1 0x20 ADD DUP1 DUP4 GT PUSH2 0x7D4 JUMPI DUP3 SWAP1 SUB PUSH1 0x1F AND DUP3 ADD SWAP2 JUMPDEST POP POP POP POP POP SWAP1 DUP1 PUSH1 0x4 ADD SLOAD SWAP1 DUP1 PUSH1 0x5 ADD SLOAD SWAP1 DUP1 PUSH1 0x6 ADD DUP1 SLOAD PUSH2 0x812 SWAP1 PUSH2 0x1CE1 JUMP JUMPDEST DUP1 PUSH1 0x1F ADD PUSH1 0x20 DUP1 SWAP2 DIV MUL PUSH1 0x20 ADD PUSH1 0x40 MLOAD SWAP1 DUP2 ADD PUSH1 0x40 MSTORE DUP1 SWAP3 SWAP2 SWAP1 DUP2 DUP2 MSTORE PUSH1 0x20 ADD DUP3 DUP1 SLOAD PUSH2 0x83E SWAP1 PUSH2 0x1CE1 JUMP JUMPDEST DUP1 ISZERO PUSH2 0x889 JUMPI DUP1 PUSH1 0x1F LT PUSH2 0x860 JUMPI PUSH2 0x100 DUP1 DUP4 SLOAD DIV MUL DUP4 MSTORE SWAP2 PUSH1 0x20 ADD SWAP2 PUSH2 0x889 JUMP JUMPDEST DUP3 ADD SWAP2 SWAP1 PUSH0 MSTORE PUSH1 0x20 PUSH0 KECCAK256 SWAP1 JUMPDEST DUP2 SLOAD DUP2 MSTORE SWAP1 PUSH1 0x1 ADD SWAP1 PUSH1 0x20 ADD DUP1 DUP4 GT PUSH2 0x86C JUMPI DUP3 SWAP1 SUB PUSH1 0x1F AND DUP3 ADD SWAP2 JUMPDEST POP POP POP POP POP SWAP1 POP DUP8 JUMP JUMPDEST PUSH0 DUP1 SLOAD SWAP1 PUSH2 0x100 EXP SWAP1 DIV PUSH20 0xFFFFFFFFFFFFFFFFFFFFFFFFFFFFFFFFFFFFFFFF AND PUSH20 0xFFFFFFFFFFFFFFFFFFFFFFFFFFFFFFFFFFFFFFFF AND CALLER PUSH20 0xFFFFFFFFFFFFFFFFFFFFFFFFFFFFFFFFFFFFFFFF AND EQ PUSH2 0x920 JUMPI PUSH1 0x40 MLOAD PUSH32 0x8C379A000000000000000000000000000000000000000000000000000000000 DUP2 MSTORE PUSH1 0x4 ADD PUSH2 0x917 SWAP1 PUSH2 0x2037 JUMP JUMPDEST PUSH1 0x40 MLOAD DUP1 SWAP2 SUB SWAP1 REVERT JUMPDEST PUSH0 PUSH1 0x1 SLOAD SWAP1 POP PUSH0 PUSH1 0x1 DUP2 SWAP1 SSTORE POP PUSH0 DUP1 SLOAD SWAP1 PUSH2 0x100 EXP SWAP1 DIV PUSH20 0xFFFFFFFFFFFFFFFFFFFFFFFFFFFFFFFFFFFFFFFF AND PUSH20 0xFFFFFFFFFFFFFFFFFFFFFFFFFFFFFFFFFFFFFFFF AND PUSH2 0x8FC DUP3 SWAP1 DUP2 ISZERO MUL SWAP1 PUSH1 0x40 MLOAD PUSH0 PUSH1 0x40 MLOAD DUP1 DUP4 SUB DUP2 DUP6 DUP9 DUP9 CALL SWAP4 POP POP POP POP ISZERO DUP1 ISZERO PUSH2 0x98F JUMPI RETURNDATASIZE PUSH0 DUP1 RETURNDATACOPY RETURNDATASIZE PUSH0 REVERT JUMPDEST POP POP JUMP JUMPDEST CALLER PUSH1 0x4 PUSH0 DUP3 PUSH20 0xFFFFFFFFFFFFFFFFFFFFFFFFFFFFFFFFFFFFFFFF AND PUSH20 0xFFFFFFFFFFFFFFFFFFFFFFFFFFFFFFFFFFFFFFFF AND DUP2 MSTORE PUSH1 0x20 ADD SWAP1 DUP2 MSTORE PUSH1 0x20 ADD PUSH0 KECCAK256 PUSH1 0x3 ADD PUSH0 SWAP1 SLOAD SWAP1 PUSH2 0x100 EXP SWAP1 DIV PUSH1 0xFF AND PUSH2 0xA20 JUMPI PUSH1 0x40 MLOAD PUSH32 0x8C379A000000000000000000000000000000000000000000000000000000000 DUP2 MSTORE PUSH1 0x4 ADD PUSH2 0xA17 SWAP1 PUSH2 0x20C5 JUMP JUMPDEST PUSH1 0x40 MLOAD DUP1 SWAP2 SUB SWAP1 REVERT JUMPDEST PUSH1 0x3 SLOAD DUP7 LT PUSH2 0xA64 JUMPI PUSH1 0x40 MLOAD PUSH32 0x8C379A000000000000000000000000000000000000000000000000000000000 DUP2 MSTORE PUSH1 0x4 ADD PUSH2 0xA5B SWAP1 PUSH2 0x212D JUMP JUMPDEST PUSH1 0x40 MLOAD DUP1 SWAP2 SUB SWAP1 REVERT JUMPDEST PUSH0 PUSH1 0x2 PUSH0 DUP9 DUP2 MSTORE PUSH1 0x20 ADD SWAP1 DUP2 MSTORE PUSH1 0x20 ADD PUSH0 KECCAK256 PUSH1 0x40 MLOAD DUP1 PUSH1 0x60 ADD PUSH1 0x40 MSTORE SWAP1 DUP2 PUSH0 DUP3 ADD DUP1 SLOAD PUSH2 0xA90 SWAP1 PUSH2 0x1CE1 JUMP JUMPDEST DUP1 PUSH1 0x1F ADD PUSH1 0x20 DUP1 SWAP2 DIV MUL PUSH1 0x20 ADD PUSH1 0x40 MLOAD SWAP1 DUP2 ADD PUSH1 0x40 MSTORE DUP1 SWAP3 SWAP2 SWAP1 DUP2 DUP2 MSTORE PUSH1 0x20 ADD DUP3 DUP1 SLOAD PUSH2 0xABC SWAP1 PUSH2 0x1CE1 JUMP JUMPDEST DUP1 ISZERO PUSH2 0xB07 JUMPI DUP1 PUSH1 0x1F LT PUSH2 0xADE JUMPI PUSH2 0x100 DUP1 DUP4 SLOAD DIV MUL DUP4 MSTORE SWAP2 PUSH1 0x20 ADD SWAP2 PUSH2 0xB07 JUMP JUMPDEST DUP3 ADD SWAP2 SWAP1 PUSH0 MSTORE PUSH1 0x20 PUSH0 KECCAK256 SWAP1 JUMPDEST DUP2 SLOAD DUP2 MSTORE SWAP1 PUSH1 0x1 ADD SWAP1 PUSH1 0x20 ADD DUP1 DUP4 GT PUSH2 0xAEA JUMPI DUP3 SWAP1 SUB PUSH1 0x1F AND DUP3 ADD SWAP2 JUMPDEST POP POP POP POP POP DUP2 MSTORE PUSH1 0x20 ADD PUSH1 0x1 DUP3 ADD SLOAD DUP2 MSTORE PUSH1 0x20 ADD PUSH1 0x2 DUP3 ADD DUP1 SLOAD PUSH2 0xB2A SWAP1 PUSH2 0x1CE1 JUMP JUMPDEST DUP1 PUSH1 0x1F ADD PUSH1 0x20 DUP1 SWAP2 DIV MUL PUSH1 0x20 ADD PUSH1 0x40 MLOAD SWAP1 DUP2 ADD PUSH1 0x40 MSTORE DUP1 SWAP3 SWAP2 SWAP1 DUP2 DUP2 MSTORE PUSH1 0x20 ADD DUP3 DUP1 SLOAD PUSH2 0xB56 SWAP1 PUSH2 0x1CE1 JUMP JUMPDEST DUP1 ISZERO PUSH2 0xBA1 JUMPI DUP1 PUSH1 0x1F LT PUSH2 0xB78 JUMPI PUSH2 0x100 DUP1 DUP4 SLOAD DIV MUL DUP4 MSTORE SWAP2 PUSH1 0x20 ADD SWAP2 PUSH2 0xBA1 JUMP JUMPDEST DUP3 ADD SWAP2 SWAP1 PUSH0 MSTORE PUSH1 0x20 PUSH0 KECCAK256 SWAP1 JUMPDEST DUP2 SLOAD DUP2 MSTORE SWAP1 PUSH1 0x1 ADD SWAP1 PUSH1 0x20 ADD DUP1 DUP4 GT PUSH2 0xB84 JUMPI DUP3 SWAP1 SUB PUSH1 0x1F AND DUP3 ADD SWAP2 JUMPDEST POP POP POP POP POP DUP2 MSTORE POP POP SWAP1 POP PUSH0 DUP2 PUSH1 0x20 ADD MLOAD SWAP1 POP DUP1 CALLVALUE EQ PUSH2 0xBF6 JUMPI PUSH1 0x40 MLOAD PUSH32 0x8C379A000000000000000000000000000000000000000000000000000000000 DUP2 MSTORE PUSH1 0x4 ADD PUSH2 0xBED SWAP1 PUSH2 0x2195 JUMP JUMPDEST PUSH1 0x40 MLOAD DUP1 SWAP2 SUB SWAP1 REVERT JUMPDEST PUSH1 0x40 MLOAD DUP1 PUSH1 0xE0 ADD PUSH1 0x40 MSTORE DUP1 CALLER PUSH20 0xFFFFFFFFFFFFFFFFFFFFFFFFFFFFFFFFFFFFFFFF AND DUP2 MSTORE PUSH1 0x20 ADD DUP9 DUP2 MSTORE PUSH1 0x20 ADD DUP3 DUP2 MSTORE PUSH1 0x20 ADD DUP8 DUP2 MSTORE PUSH1 0x20 ADD DUP10 DUP2 MSTORE PUSH1 0x20 ADD DUP7 DUP2 MSTORE PUSH1 0x20 ADD DUP6 DUP2 MSTORE POP PUSH1 0x5 PUSH0 PUSH1 0x6 SLOAD DUP2 MSTORE PUSH1 0x20 ADD SWAP1 DUP2 MSTORE PUSH1 0x20 ADD PUSH0 KECCAK256 PUSH0 DUP3 ADD MLOAD DUP2 PUSH0 ADD PUSH0 PUSH2 0x100 EXP DUP2 SLOAD DUP2 PUSH20 0xFFFFFFFFFFFFFFFFFFFFFFFFFFFFFFFFFFFFFFFF MUL NOT AND SWAP1 DUP4 PUSH20 0xFFFFFFFFFFFFFFFFFFFFFFFFFFFFFFFFFFFFFFFF AND MUL OR SWAP1 SSTORE POP PUSH1 0x20 DUP3 ADD MLOAD DUP2 PUSH1 0x1 ADD SWAP1 DUP2 PUSH2 0xCAB SWAP2 SWAP1 PUSH2 0x1EAE JUMP JUMPDEST POP PUSH1 0x40 DUP3 ADD MLOAD DUP2 PUSH1 0x2 ADD SSTORE PUSH1 0x60 DUP3 ADD MLOAD DUP2 PUSH1 0x3 ADD SWAP1 DUP2 PUSH2 0xCCB SWAP2 SWAP1 PUSH2 0x1EAE JUMP JUMPDEST POP PUSH1 0x80 DUP3 ADD MLOAD DUP2 PUSH1 0x4 ADD SSTORE PUSH1 0xA0 DUP3 ADD MLOAD DUP2 PUSH1 0x5 ADD SSTORE PUSH1 0xC0 DUP3 ADD MLOAD DUP2 PUSH1 0x6 ADD SWAP1 DUP2 PUSH2 0xCF5 SWAP2 SWAP1 PUSH2 0x1EAE JUMP JUMPDEST POP SWAP1 POP POP CALLVALUE PUSH1 0x1 PUSH0 DUP3 DUP3 SLOAD PUSH2 0xD0A SWAP2 SWAP1 PUSH2 0x21E0 JUMP JUMPDEST SWAP3 POP POP DUP2 SWAP1 SSTORE POP PUSH32 0x707725CCAC2042CFCAFE3472728783204E19BC16E50D3E27E7F0FD9290407F6A CALLER DUP10 DUP8 DUP5 DUP9 DUP12 PUSH1 0x40 MLOAD PUSH2 0xD4A SWAP7 SWAP6 SWAP5 SWAP4 SWAP3 SWAP2 SWAP1 PUSH2 0x2213 JUMP JUMPDEST PUSH1 0x40 MLOAD DUP1 SWAP2 SUB SWAP1 LOG1 PUSH32 0x5677B5D4CF976AC32DEFBD95A6A5AAF0D1FEE450A11FC26F3C11AAE6E6C33D06 CALLER CALLVALUE DUP8 PUSH1 0x40 MLOAD PUSH2 0xD85 SWAP4 SWAP3 SWAP2 SWAP1 PUSH2 0x2280 JUMP JUMPDEST PUSH1 0x40 MLOAD DUP1 SWAP2 SUB SWAP1 LOG1 POP POP POP POP POP POP POP POP JUMP JUMPDEST PUSH1 0x60 PUSH0 PUSH1 0x3 SLOAD DUP4 LT PUSH2 0xDDE JUMPI PUSH1 0x40 MLOAD PUSH32 0x8C379A000000000000000000000000000000000000000000000000000000000 DUP2 MSTORE PUSH1 0x4 ADD PUSH2 0xDD5 SWAP1 PUSH2 0x22FF JUMP JUMPDEST PUSH1 0x40 MLOAD DUP1 SWAP2 SUB SWAP1 REVERT JUMPDEST PUSH0 PUSH1 0x2 PUSH0 DUP6 DUP2 MSTORE PUSH1 0x20 ADD SWAP1 DUP2 MSTORE PUSH1 0x20 ADD PUSH0 KECCAK256 PUSH1 0x40 MLOAD DUP1 PUSH1 0x60 ADD PUSH1 0x40 MSTORE SWAP1 DUP2 PUSH0 DUP3 ADD DUP1 SLOAD PUSH2 0xE0A SWAP1 PUSH2 0x1CE1 JUMP JUMPDEST DUP1 PUSH1 0x1F ADD PUSH1 0x20 DUP1 SWAP2 DIV MUL PUSH1 0x20 ADD PUSH1 0x40 MLOAD SWAP1 DUP2 ADD PUSH1 0x40 MSTORE DUP1 SWAP3 SWAP2 SWAP1 DUP2 DUP2 MSTORE PUSH1 0x20 ADD DUP3 DUP1 SLOAD PUSH2 0xE36 SWAP1 PUSH2 0x1CE1 JUMP JUMPDEST DUP1 ISZERO PUSH2 0xE81 JUMPI DUP1 PUSH1 0x1F LT PUSH2 0xE58 JUMPI PUSH2 0x100 DUP1 DUP4 SLOAD DIV MUL DUP4 MSTORE SWAP2 PUSH1 0x20 ADD SWAP2 PUSH2 0xE81 JUMP JUMPDEST DUP3 ADD SWAP2 SWAP1 PUSH0 MSTORE PUSH1 0x20 PUSH0 KECCAK256 SWAP1 JUMPDEST DUP2 SLOAD DUP2 MSTORE SWAP1 PUSH1 0x1 ADD SWAP1 PUSH1 0x20 ADD DUP1 DUP4 GT PUSH2 0xE64 JUMPI DUP3 SWAP1 SUB PUSH1 0x1F AND DUP3 ADD SWAP2 JUMPDEST POP POP POP POP POP DUP2 MSTORE PUSH1 0x20 ADD PUSH1 0x1 DUP3 ADD SLOAD DUP2 MSTORE PUSH1 0x20 ADD PUSH1 0x2 DUP3 ADD DUP1 SLOAD PUSH2 0xEA4 SWAP1 PUSH2 0x1CE1 JUMP JUMPDEST DUP1 PUSH1 0x1F ADD PUSH1 0x20 DUP1 SWAP2 DIV MUL PUSH1 0x20 ADD PUSH1 0x40 MLOAD SWAP1 DUP2 ADD PUSH1 0x40 MSTORE DUP1 SWAP3 SWAP2 SWAP1 DUP2 DUP2 MSTORE PUSH1 0x20 ADD DUP3 DUP1 SLOAD PUSH2 0xED0 SWAP1 PUSH2 0x1CE1 JUMP JUMPDEST DUP1 ISZERO PUSH2 0xF1B JUMPI DUP1 PUSH1 0x1F LT PUSH2 0xEF2 JUMPI PUSH2 0x100 DUP1 DUP4 SLOAD DIV MUL DUP4 MSTORE SWAP2 PUSH1 0x20 ADD SWAP2 PUSH2 0xF1B JUMP JUMPDEST DUP3 ADD SWAP2 SWAP1 PUSH0 MSTORE PUSH1 0x20 PUSH0 KECCAK256 SWAP1 JUMPDEST DUP2 SLOAD DUP2 MSTORE SWAP1 PUSH1 0x1 ADD SWAP1 PUSH1 0x20 ADD DUP1 DUP4 GT PUSH2 0xEFE JUMPI DUP3 SWAP1 SUB PUSH1 0x1F AND DUP3 ADD SWAP2 JUMPDEST POP POP POP POP POP DUP2 MSTORE POP POP SWAP1 POP DUP1 PUSH0 ADD MLOAD DUP2 PUSH1 0x20 ADD MLOAD SWAP3 POP SWAP3 POP POP SWAP2 POP SWAP2 JUMP JUMPDEST PUSH1 0x1 SLOAD DUP2 JUMP JUMPDEST PUSH0 DUP1 SLOAD SWAP1 PUSH2 0x100 EXP SWAP1 DIV PUSH20 0xFFFFFFFFFFFFFFFFFFFFFFFFFFFFFFFFFFFFFFFF AND PUSH20 0xFFFFFFFFFFFFFFFFFFFFFFFFFFFFFFFFFFFFFFFF AND CALLER PUSH20 0xFFFFFFFFFFFFFFFFFFFFFFFFFFFFFFFFFFFFFFFF AND EQ PUSH2 0xFCC JUMPI PUSH1 0x40 MLOAD PUSH32 0x8C379A000000000000000000000000000000000000000000000000000000000 DUP2 MSTORE PUSH1 0x4 ADD PUSH2 0xFC3 SWAP1 PUSH2 0x2037 JUMP JUMPDEST PUSH1 0x40 MLOAD DUP1 SWAP2 SUB SWAP1 REVERT JUMPDEST PUSH1 0x40 MLOAD DUP1 PUSH1 0x60 ADD PUSH1 0x40 MSTORE DUP1 DUP5 DUP2 MSTORE PUSH1 0x20 ADD DUP4 DUP2 MSTORE PUSH1 0x20 ADD DUP3 DUP2 MSTORE POP PUSH1 0x2 PUSH0 PUSH1 0x3 SLOAD DUP2 MSTORE PUSH1 0x20 ADD SWAP1 DUP2 MSTORE PUSH1 0x20 ADD PUSH0 KECCAK256 PUSH0 DUP3 ADD MLOAD DUP2 PUSH0 ADD SWAP1 DUP2 PUSH2 0x100D SWAP2 SWAP1 PUSH2 0x1EAE JUMP JUMPDEST POP PUSH1 0x20 DUP3 ADD MLOAD DUP2 PUSH1 0x1 ADD SSTORE PUSH1 0x40 DUP3 ADD MLOAD DUP2 PUSH1 0x2 ADD SWAP1 DUP2 PUSH2 0x102D SWAP2 SWAP1 PUSH2 0x1EAE JUMP JUMPDEST POP SWAP1 POP POP PUSH32 0xB27E269517A15639F2624504558DAA9B3CEF5CCE6EB77F0A8A563ABF10838706 PUSH1 0x3 SLOAD DUP5 DUP5 DUP5 PUSH1 0x40 MLOAD PUSH2 0x1068 SWAP5 SWAP4 SWAP3 SWAP2 SWAP1 PUSH2 0x231D JUMP JUMPDEST PUSH1 0x40 MLOAD DUP1 SWAP2 SUB SWAP1 LOG1 PUSH1 0x3 PUSH0 DUP2 SLOAD DUP1 SWAP3 SWAP2 SWAP1 PUSH2 0x1082 SWAP1 PUSH2 0x236E JUMP JUMPDEST SWAP2 SWAP1 POP SSTORE POP POP POP POP JUMP JUMPDEST PUSH0 DUP1 SLOAD SWAP1 PUSH2 0x100 EXP SWAP1 DIV PUSH20 0xFFFFFFFFFFFFFFFFFFFFFFFFFFFFFFFFFFFFFFFF AND PUSH20 0xFFFFFFFFFFFFFFFFFFFFFFFFFFFFFFFFFFFFFFFF AND CALLER PUSH20 0xFFFFFFFFFFFFFFFFFFFFFFFFFFFFFFFFFFFFFFFF AND EQ PUSH2 0x1119 JUMPI PUSH1 0x40 MLOAD PUSH32 0x8C379A000000000000000000000000000000000000000000000000000000000 DUP2 MSTORE PUSH1 0x4 ADD PUSH2 0x1110 SWAP1 PUSH2 0x2037 JUMP JUMPDEST PUSH1 0x40 MLOAD DUP1 SWAP2 SUB SWAP1 REVERT JUMPDEST PUSH1 0x1 PUSH1 0x7 PUSH0 DUP4 PUSH20 0xFFFFFFFFFFFFFFFFFFFFFFFFFFFFFFFFFFFFFFFF AND PUSH20 0xFFFFFFFFFFFFFFFFFFFFFFFFFFFFFFFFFFFFFFFF AND DUP2 MSTORE PUSH1 0x20 ADD SWAP1 DUP2 MSTORE PUSH1 0x20 ADD PUSH0 KECCAK256 PUSH0 PUSH2 0x100 EXP DUP2 SLOAD DUP2 PUSH1 0xFF MUL NOT AND SWAP1 DUP4 ISZERO ISZERO MUL OR SWAP1 SSTORE POP POP JUMP JUMPDEST PUSH0 PUSH1 0x60 PUSH0 PUSH1 0x60 PUSH0 DUP1 PUSH1 0x60 PUSH1 0x7 PUSH0 CALLER PUSH20 0xFFFFFFFFFFFFFFFFFFFFFFFFFFFFFFFFFFFFFFFF AND PUSH20 0xFFFFFFFFFFFFFFFFFFFFFFFFFFFFFFFFFFFFFFFF AND DUP2 MSTORE PUSH1 0x20 ADD SWAP1 DUP2 MSTORE PUSH1 0x20 ADD PUSH0 KECCAK256 PUSH0 SWAP1 SLOAD SWAP1 PUSH2 0x100 EXP SWAP1 DIV PUSH1 0xFF AND PUSH2 0x1204 JUMPI PUSH1 0x40 MLOAD PUSH32 0x8C379A000000000000000000000000000000000000000000000000000000000 DUP2 MSTORE PUSH1 0x4 ADD PUSH2 0x11FB SWAP1 PUSH2 0x2425 JUMP JUMPDEST PUSH1 0x40 MLOAD DUP1 SWAP2 SUB SWAP1 REVERT JUMPDEST PUSH0 PUSH1 0x5 PUSH0 DUP11 DUP2 MSTORE PUSH1 0x20 ADD SWAP1 DUP2 MSTORE PUSH1 0x20 ADD PUSH0 KECCAK256 PUSH1 0x40 MLOAD DUP1 PUSH1 0xE0 ADD PUSH1 0x40 MSTORE SWAP1 DUP2 PUSH0 DUP3 ADD PUSH0 SWAP1 SLOAD SWAP1 PUSH2 0x100 EXP SWAP1 DIV PUSH20 0xFFFFFFFFFFFFFFFFFFFFFFFFFFFFFFFFFFFFFFFF AND PUSH20 0xFFFFFFFFFFFFFFFFFFFFFFFFFFFFFFFFFFFFFFFF AND PUSH20 0xFFFFFFFFFFFFFFFFFFFFFFFFFFFFFFFFFFFFFFFF AND DUP2 MSTORE PUSH1 0x20 ADD PUSH1 0x1 DUP3 ADD DUP1 SLOAD PUSH2 0x1285 SWAP1 PUSH2 0x1CE1 JUMP JUMPDEST DUP1 PUSH1 0x1F ADD PUSH1 0x20 DUP1 SWAP2 DIV MUL PUSH1 0x20 ADD PUSH1 0x40 MLOAD SWAP1 DUP2 ADD PUSH1 0x40 MSTORE DUP1 SWAP3 SWAP2 SWAP1 DUP2 DUP2 MSTORE PUSH1 0x20 ADD DUP3 DUP1 SLOAD PUSH2 0x12B1 SWAP1 PUSH2 0x1CE1 JUMP JUMPDEST DUP1 ISZERO PUSH2 0x12FC JUMPI DUP1 PUSH1 0x1F LT PUSH2 0x12D3 JUMPI PUSH2 0x100 DUP1 DUP4 SLOAD DIV MUL DUP4 MSTORE SWAP2 PUSH1 0x20 ADD SWAP2 PUSH2 0x12FC JUMP JUMPDEST DUP3 ADD SWAP2 SWAP1 PUSH0 MSTORE PUSH1 0x20 PUSH0 KECCAK256 SWAP1 JUMPDEST DUP2 SLOAD DUP2 MSTORE SWAP1 PUSH1 0x1 ADD SWAP1 PUSH1 0x20 ADD DUP1 DUP4 GT PUSH2 0x12DF JUMPI DUP3 SWAP1 SUB PUSH1 0x1F AND DUP3 ADD SWAP2 JUMPDEST POP POP POP POP POP DUP2 MSTORE PUSH1 0x20 ADD PUSH1 0x2 DUP3 ADD SLOAD DUP2 MSTORE PUSH1 0x20 ADD PUSH1 0x3 DUP3 ADD DUP1 SLOAD PUSH2 0x131F SWAP1 PUSH2 0x1CE1 JUMP JUMPDEST DUP1 PUSH1 0x1F ADD PUSH1 0x20 DUP1 SWAP2 DIV MUL PUSH1 0x20 ADD PUSH1 0x40 MLOAD SWAP1 DUP2 ADD PUSH1 0x40 MSTORE DUP1 SWAP3 SWAP2 SWAP1 DUP2 DUP2 MSTORE PUSH1 0x20 ADD DUP3 DUP1 SLOAD PUSH2 0x134B SWAP1 PUSH2 0x1CE1 JUMP JUMPDEST DUP1 ISZERO PUSH2 0x1396 JUMPI DUP1 PUSH1 0x1F LT PUSH2 0x136D JUMPI PUSH2 0x100 DUP1 DUP4 SLOAD DIV MUL DUP4 MSTORE SWAP2 PUSH1 0x20 ADD SWAP2 PUSH2 0x1396 JUMP JUMPDEST DUP3 ADD SWAP2 SWAP1 PUSH0 MSTORE PUSH1 0x20 PUSH0 KECCAK256 SWAP1 JUMPDEST DUP2 SLOAD DUP2 MSTORE SWAP1 PUSH1 0x1 ADD SWAP1 PUSH1 0x20 ADD DUP1 DUP4 GT PUSH2 0x1379 JUMPI DUP3 SWAP1 SUB PUSH1 0x1F AND DUP3 ADD SWAP2 JUMPDEST POP POP POP POP POP DUP2 MSTORE PUSH1 0x20 ADD PUSH1 0x4 DUP3 ADD SLOAD DUP2 MSTORE PUSH1 0x20 ADD PUSH1 0x5 DUP3 ADD SLOAD DUP2 MSTORE PUSH1 0x20 ADD PUSH1 0x6 DUP3 ADD DUP1 SLOAD PUSH2 0x13C3 SWAP1 PUSH2 0x1CE1 JUMP JUMPDEST DUP1 PUSH1 0x1F ADD PUSH1 0x20 DUP1 SWAP2 DIV MUL PUSH1 0x20 ADD PUSH1 0x40 MLOAD SWAP1 DUP2 ADD PUSH1 0x40 MSTORE DUP1 SWAP3 SWAP2 SWAP1 DUP2 DUP2 MSTORE PUSH1 0x20 ADD DUP3 DUP1 SLOAD PUSH2 0x13EF SWAP1 PUSH2 0x1CE1 JUMP JUMPDEST DUP1 ISZERO PUSH2 0x143A JUMPI DUP1 PUSH1 0x1F LT PUSH2 0x1411 JUMPI PUSH2 0x100 DUP1 DUP4 SLOAD DIV MUL DUP4 MSTORE SWAP2 PUSH1 0x20 ADD SWAP2 PUSH2 0x143A JUMP JUMPDEST DUP3 ADD SWAP2 SWAP1 PUSH0 MSTORE PUSH1 0x20 PUSH0 KECCAK256 SWAP1 JUMPDEST DUP2 SLOAD DUP2 MSTORE SWAP1 PUSH1 0x1 ADD SWAP1 PUSH1 0x20 ADD DUP1 DUP4 GT PUSH2 0x141D JUMPI DUP3 SWAP1 SUB PUSH1 0x1F AND DUP3 ADD SWAP2 JUMPDEST POP POP POP POP POP DUP2 MSTORE POP POP SWAP1 POP DUP1 PUSH0 ADD MLOAD DUP2 PUSH1 0x20 ADD MLOAD DUP3 PUSH1 0x40 ADD MLOAD DUP4 PUSH1 0x60 ADD MLOAD DUP5 PUSH1 0x80 ADD MLOAD DUP6 PUSH1 0xA0 ADD MLOAD DUP7 PUSH1 0xC0 ADD MLOAD SWAP8 POP SWAP8 POP SWAP8 POP SWAP8 POP SWAP8 POP SWAP8 POP SWAP8 POP POP SWAP2 SWAP4 SWAP6 SWAP8 SWAP1 SWAP3 SWAP5 SWAP7 POP JUMP JUMPDEST PUSH1 0x2 PUSH1 0x20 MSTORE DUP1 PUSH0 MSTORE PUSH1 0x40 PUSH0 KECCAK256 PUSH0 SWAP2 POP SWAP1 POP DUP1 PUSH0 ADD DUP1 SLOAD PUSH2 0x14A0 SWAP1 PUSH2 0x1CE1 JUMP JUMPDEST DUP1 PUSH1 0x1F ADD PUSH1 0x20 DUP1 SWAP2 DIV MUL PUSH1 0x20 ADD PUSH1 0x40 MLOAD SWAP1 DUP2 ADD PUSH1 0x40 MSTORE DUP1 SWAP3 SWAP2 SWAP1 DUP2 DUP2 MSTORE PUSH1 0x20 ADD DUP3 DUP1 SLOAD PUSH2 0x14CC SWAP1 PUSH2 0x1CE1 JUMP JUMPDEST DUP1 ISZERO PUSH2 0x1517 JUMPI DUP1 PUSH1 0x1F LT PUSH2 0x14EE JUMPI PUSH2 0x100 DUP1 DUP4 SLOAD DIV MUL DUP4 MSTORE SWAP2 PUSH1 0x20 ADD SWAP2 PUSH2 0x1517 JUMP JUMPDEST DUP3 ADD SWAP2 SWAP1 PUSH0 MSTORE PUSH1 0x20 PUSH0 KECCAK256 SWAP1 JUMPDEST DUP2 SLOAD DUP2 MSTORE SWAP1 PUSH1 0x1 ADD SWAP1 PUSH1 0x20 ADD DUP1 DUP4 GT PUSH2 0x14FA JUMPI DUP3 SWAP1 SUB PUSH1 0x1F AND DUP3 ADD SWAP2 JUMPDEST POP POP POP POP POP SWAP1 DUP1 PUSH1 0x1 ADD SLOAD SWAP1 DUP1 PUSH1 0x2 ADD DUP1 SLOAD PUSH2 0x1532 SWAP1 PUSH2 0x1CE1 JUMP JUMPDEST DUP1 PUSH1 0x1F ADD PUSH1 0x20 DUP1 SWAP2 DIV MUL PUSH1 0x20 ADD PUSH1 0x40 MLOAD SWAP1 DUP2 ADD PUSH1 0x40 MSTORE DUP1 SWAP3 SWAP2 SWAP1 DUP2 DUP2 MSTORE PUSH1 0x20 ADD DUP3 DUP1 SLOAD PUSH2 0x155E SWAP1 PUSH2 0x1CE1 JUMP JUMPDEST DUP1 ISZERO PUSH2 0x15A9 JUMPI DUP1 PUSH1 0x1F LT PUSH2 0x1580 JUMPI PUSH2 0x100 DUP1 DUP4 SLOAD DIV MUL DUP4 MSTORE SWAP2 PUSH1 0x20 ADD SWAP2 PUSH2 0x15A9 JUMP JUMPDEST DUP3 ADD SWAP2 SWAP1 PUSH0 MSTORE PUSH1 0x20 PUSH0 KECCAK256 SWAP1 JUMPDEST DUP2 SLOAD DUP2 MSTORE SWAP1 PUSH1 0x1 ADD SWAP1 PUSH1 0x20 ADD DUP1 DUP4 GT PUSH2 0x158C JUMPI DUP3 SWAP1 SUB PUSH1 0x1F AND DUP3 ADD SWAP2 JUMPDEST POP POP POP POP POP SWAP1 POP DUP4 JUMP JUMPDEST PUSH1 0x6 SLOAD DUP2 JUMP JUMPDEST PUSH0 DUP1 SLOAD SWAP1 PUSH2 0x100 EXP SWAP1 DIV PUSH20 0xFFFFFFFFFFFFFFFFFFFFFFFFFFFFFFFFFFFFFFFF AND DUP2 JUMP JUMPDEST PUSH0 PUSH1 0x40 MLOAD SWAP1 POP SWAP1 JUMP JUMPDEST PUSH0 DUP1 REVERT JUMPDEST PUSH0 DUP1 REVERT JUMPDEST PUSH0 DUP1 REVERT JUMPDEST PUSH0 DUP1 REVERT JUMPDEST PUSH0 PUSH1 0x1F NOT PUSH1 0x1F DUP4 ADD AND SWAP1 POP SWAP2 SWAP1 POP JUMP JUMPDEST PUSH32 0x4E487B7100000000000000000000000000000000000000000000000000000000 PUSH0 MSTORE PUSH1 0x41 PUSH1 0x4 MSTORE PUSH1 0x24 PUSH0 REVERT JUMPDEST PUSH2 0x163B DUP3 PUSH2 0x15F5 JUMP JUMPDEST DUP2 ADD DUP2 DUP2 LT PUSH8 0xFFFFFFFFFFFFFFFF DUP3 GT OR ISZERO PUSH2 0x165A JUMPI PUSH2 0x1659 PUSH2 0x1605 JUMP JUMPDEST JUMPDEST DUP1 PUSH1 0x40 MSTORE POP POP POP JUMP JUMPDEST PUSH0 PUSH2 0x166C PUSH2 0x15DC JUMP JUMPDEST SWAP1 POP PUSH2 0x1678 DUP3 DUP3 PUSH2 0x1632 JUMP JUMPDEST SWAP2 SWAP1 POP JUMP JUMPDEST PUSH0 PUSH8 0xFFFFFFFFFFFFFFFF DUP3 GT ISZERO PUSH2 0x1697 JUMPI PUSH2 0x1696 PUSH2 0x1605 JUMP JUMPDEST JUMPDEST PUSH2 0x16A0 DUP3 PUSH2 0x15F5 JUMP JUMPDEST SWAP1 POP PUSH1 0x20 DUP2 ADD SWAP1 POP SWAP2 SWAP1 POP JUMP JUMPDEST DUP3 DUP2 DUP4 CALLDATACOPY PUSH0 DUP4 DUP4 ADD MSTORE POP POP POP JUMP JUMPDEST PUSH0 PUSH2 0x16CD PUSH2 0x16C8 DUP5 PUSH2 0x167D JUMP JUMPDEST PUSH2 0x1663 JUMP JUMPDEST SWAP1 POP DUP3 DUP2 MSTORE PUSH1 0x20 DUP2 ADD DUP5 DUP5 DUP5 ADD GT ISZERO PUSH2 0x16E9 JUMPI PUSH2 0x16E8 PUSH2 0x15F1 JUMP JUMPDEST JUMPDEST PUSH2 0x16F4 DUP5 DUP3 DUP6 PUSH2 0x16AD JUMP JUMPDEST POP SWAP4 SWAP3 POP POP POP JUMP JUMPDEST PUSH0 DUP3 PUSH1 0x1F DUP4 ADD SLT PUSH2 0x1710 JUMPI PUSH2 0x170F PUSH2 0x15ED JUMP JUMPDEST JUMPDEST DUP2 CALLDATALOAD PUSH2 0x1720 DUP5 DUP3 PUSH1 0x20 DUP7 ADD PUSH2 0x16BB JUMP JUMPDEST SWAP2 POP POP SWAP3 SWAP2 POP POP JUMP JUMPDEST PUSH0 DUP2 SWAP1 POP SWAP2 SWAP1 POP JUMP JUMPDEST PUSH2 0x173B DUP2 PUSH2 0x1729 JUMP JUMPDEST DUP2 EQ PUSH2 0x1745 JUMPI PUSH0 DUP1 REVERT JUMPDEST POP JUMP JUMPDEST PUSH0 DUP2 CALLDATALOAD SWAP1 POP PUSH2 0x1756 DUP2 PUSH2 0x1732 JUMP JUMPDEST SWAP3 SWAP2 POP POP JUMP JUMPDEST PUSH0 DUP2 ISZERO ISZERO SWAP1 POP SWAP2 SWAP1 POP JUMP JUMPDEST PUSH2 0x1770 DUP2 PUSH2 0x175C JUMP JUMPDEST DUP2 EQ PUSH2 0x177A JUMPI PUSH0 DUP1 REVERT JUMPDEST POP JUMP JUMPDEST PUSH0 DUP2 CALLDATALOAD SWAP1 POP PUSH2 0x178B DUP2 PUSH2 0x1767 JUMP JUMPDEST SWAP3 SWAP2 POP POP JUMP JUMPDEST PUSH0 DUP1 PUSH0 DUP1 PUSH1 0x80 DUP6 DUP8 SUB SLT ISZERO PUSH2 0x17A9 JUMPI PUSH2 0x17A8 PUSH2 0x15E5 JUMP JUMPDEST JUMPDEST PUSH0 DUP6 ADD CALLDATALOAD PUSH8 0xFFFFFFFFFFFFFFFF DUP2 GT ISZERO PUSH2 0x17C6 JUMPI PUSH2 0x17C5 PUSH2 0x15E9 JUMP JUMPDEST JUMPDEST PUSH2 0x17D2 DUP8 DUP3 DUP9 ADD PUSH2 0x16FC JUMP JUMPDEST SWAP5 POP POP PUSH1 0x20 DUP6 ADD CALLDATALOAD PUSH8 0xFFFFFFFFFFFFFFFF DUP2 GT ISZERO PUSH2 0x17F3 JUMPI PUSH2 0x17F2 PUSH2 0x15E9 JUMP JUMPDEST JUMPDEST PUSH2 0x17FF DUP8 DUP3 DUP9 ADD PUSH2 0x16FC JUMP JUMPDEST SWAP4 POP POP PUSH1 0x40 PUSH2 0x1810 DUP8 DUP3 DUP9 ADD PUSH2 0x1748 JUMP JUMPDEST SWAP3 POP POP PUSH1 0x60 PUSH2 0x1821 DUP8 DUP3 DUP9 ADD PUSH2 0x177D JUMP JUMPDEST SWAP2 POP POP SWAP3 SWAP6 SWAP2 SWAP5 POP SWAP3 POP JUMP JUMPDEST PUSH0 PUSH20 0xFFFFFFFFFFFFFFFFFFFFFFFFFFFFFFFFFFFFFFFF DUP3 AND SWAP1 POP SWAP2 SWAP1 POP JUMP JUMPDEST PUSH0 PUSH2 0x1856 DUP3 PUSH2 0x182D JUMP JUMPDEST SWAP1 POP SWAP2 SWAP1 POP JUMP JUMPDEST PUSH2 0x1866 DUP2 PUSH2 0x184C JUMP JUMPDEST DUP2 EQ PUSH2 0x1870 JUMPI PUSH0 DUP1 REVERT JUMPDEST POP JUMP JUMPDEST PUSH0 DUP2 CALLDATALOAD SWAP1 POP PUSH2 0x1881 DUP2 PUSH2 0x185D JUMP JUMPDEST SWAP3 SWAP2 POP POP JUMP JUMPDEST PUSH0 PUSH1 0x20 DUP3 DUP5 SUB SLT ISZERO PUSH2 0x189C JUMPI PUSH2 0x189B PUSH2 0x15E5 JUMP JUMPDEST JUMPDEST PUSH0 PUSH2 0x18A9 DUP5 DUP3 DUP6 ADD PUSH2 0x1873 JUMP JUMPDEST SWAP2 POP POP SWAP3 SWAP2 POP POP JUMP JUMPDEST PUSH0 DUP2 MLOAD SWAP1 POP SWAP2 SWAP1 POP JUMP JUMPDEST PUSH0 DUP3 DUP3 MSTORE PUSH1 0x20 DUP3 ADD SWAP1 POP SWAP3 SWAP2 POP POP JUMP JUMPDEST DUP3 DUP2 DUP4 MCOPY PUSH0 DUP4 DUP4 ADD MSTORE POP POP POP JUMP JUMPDEST PUSH0 PUSH2 0x18E4 DUP3 PUSH2 0x18B2 JUMP JUMPDEST PUSH2 0x18EE DUP2 DUP6 PUSH2 0x18BC JUMP JUMPDEST SWAP4 POP PUSH2 0x18FE DUP2 DUP6 PUSH1 0x20 DUP7 ADD PUSH2 0x18CC JUMP JUMPDEST PUSH2 0x1907 DUP2 PUSH2 0x15F5 JUMP JUMPDEST DUP5 ADD SWAP2 POP POP SWAP3 SWAP2 POP POP JUMP JUMPDEST PUSH2 0x191B DUP2 PUSH2 0x1729 JUMP JUMPDEST DUP3 MSTORE POP POP JUMP JUMPDEST PUSH2 0x192A DUP2 PUSH2 0x175C JUMP JUMPDEST DUP3 MSTORE POP POP JUMP JUMPDEST PUSH0 PUSH1 0x80 DUP3 ADD SWAP1 POP DUP2 DUP2 SUB PUSH0 DUP4 ADD MSTORE PUSH2 0x1948 DUP2 DUP8 PUSH2 0x18DA JUMP JUMPDEST SWAP1 POP DUP2 DUP2 SUB PUSH1 0x20 DUP4 ADD MSTORE PUSH2 0x195C DUP2 DUP7 PUSH2 0x18DA JUMP JUMPDEST SWAP1 POP PUSH2 0x196B PUSH1 0x40 DUP4 ADD DUP6 PUSH2 0x1912 JUMP JUMPDEST PUSH2 0x1978 PUSH1 0x60 DUP4 ADD DUP5 PUSH2 0x1921 JUMP JUMPDEST SWAP6 SWAP5 POP POP POP POP POP JUMP JUMPDEST PUSH0 PUSH1 0x20 DUP3 ADD SWAP1 POP PUSH2 0x1994 PUSH0 DUP4 ADD DUP5 PUSH2 0x1912 JUMP JUMPDEST SWAP3 SWAP2 POP POP JUMP JUMPDEST PUSH0 PUSH1 0x20 DUP3 ADD SWAP1 POP PUSH2 0x19AD PUSH0 DUP4 ADD DUP5 PUSH2 0x1921 JUMP JUMPDEST SWAP3 SWAP2 POP POP JUMP JUMPDEST PUSH0 PUSH1 0x20 DUP3 DUP5 SUB SLT ISZERO PUSH2 0x19C8 JUMPI PUSH2 0x19C7 PUSH2 0x15E5 JUMP JUMPDEST JUMPDEST PUSH0 PUSH2 0x19D5 DUP5 DUP3 DUP6 ADD PUSH2 0x1748 JUMP JUMPDEST SWAP2 POP POP SWAP3 SWAP2 POP POP JUMP JUMPDEST PUSH2 0x19E7 DUP2 PUSH2 0x184C JUMP JUMPDEST DUP3 MSTORE POP POP JUMP JUMPDEST PUSH0 PUSH1 0xE0 DUP3 ADD SWAP1 POP PUSH2 0x1A00 PUSH0 DUP4 ADD DUP11 PUSH2 0x19DE JUMP JUMPDEST DUP2 DUP2 SUB PUSH1 0x20 DUP4 ADD MSTORE PUSH2 0x1A12 DUP2 DUP10 PUSH2 0x18DA JUMP JUMPDEST SWAP1 POP PUSH2 0x1A21 PUSH1 0x40 DUP4 ADD DUP9 PUSH2 0x1912 JUMP JUMPDEST DUP2 DUP2 SUB PUSH1 0x60 DUP4 ADD MSTORE PUSH2 0x1A33 DUP2 DUP8 PUSH2 0x18DA JUMP JUMPDEST SWAP1 POP PUSH2 0x1A42 PUSH1 0x80 DUP4 ADD DUP7 PUSH2 0x1912 JUMP JUMPDEST PUSH2 0x1A4F PUSH1 0xA0 DUP4 ADD DUP6 PUSH2 0x1912 JUMP JUMPDEST DUP2 DUP2 SUB PUSH1 0xC0 DUP4 ADD MSTORE PUSH2 0x1A61 DUP2 DUP5 PUSH2 0x18DA JUMP JUMPDEST SWAP1 POP SWAP9 SWAP8 POP POP POP POP POP POP POP POP JUMP JUMPDEST PUSH0 DUP1 PUSH0 DUP1 PUSH0 PUSH1 0xA0 DUP7 DUP9 SUB SLT ISZERO PUSH2 0x1A88 JUMPI PUSH2 0x1A87 PUSH2 0x15E5 JUMP JUMPDEST JUMPDEST PUSH0 PUSH2 0x1A95 DUP9 DUP3 DUP10 ADD PUSH2 0x1748 JUMP JUMPDEST SWAP6 POP POP PUSH1 0x20 DUP7 ADD CALLDATALOAD PUSH8 0xFFFFFFFFFFFFFFFF DUP2 GT ISZERO PUSH2 0x1AB6 JUMPI PUSH2 0x1AB5 PUSH2 0x15E9 JUMP JUMPDEST JUMPDEST PUSH2 0x1AC2 DUP9 DUP3 DUP10 ADD PUSH2 0x16FC JUMP JUMPDEST SWAP5 POP POP PUSH1 0x40 DUP7 ADD CALLDATALOAD PUSH8 0xFFFFFFFFFFFFFFFF DUP2 GT ISZERO PUSH2 0x1AE3 JUMPI PUSH2 0x1AE2 PUSH2 0x15E9 JUMP JUMPDEST JUMPDEST PUSH2 0x1AEF DUP9 DUP3 DUP10 ADD PUSH2 0x16FC JUMP JUMPDEST SWAP4 POP POP PUSH1 0x60 PUSH2 0x1B00 DUP9 DUP3 DUP10 ADD PUSH2 0x1748 JUMP JUMPDEST SWAP3 POP POP PUSH1 0x80 DUP7 ADD CALLDATALOAD PUSH8 0xFFFFFFFFFFFFFFFF DUP2 GT ISZERO PUSH2 0x1B21 JUMPI PUSH2 0x1B20 PUSH2 0x15E9 JUMP JUMPDEST JUMPDEST PUSH2 0x1B2D DUP9 DUP3 DUP10 ADD PUSH2 0x16FC JUMP JUMPDEST SWAP2 POP POP SWAP3 SWAP6 POP SWAP3 SWAP6 SWAP1 SWAP4 POP JUMP JUMPDEST PUSH0 PUSH1 0x40 DUP3 ADD SWAP1 POP DUP2 DUP2 SUB PUSH0 DUP4 ADD MSTORE PUSH2 0x1B52 DUP2 DUP6 PUSH2 0x18DA JUMP JUMPDEST SWAP1 POP PUSH2 0x1B61 PUSH1 0x20 DUP4 ADD DUP5 PUSH2 0x1912 JUMP JUMPDEST SWAP4 SWAP3 POP POP POP JUMP JUMPDEST PUSH0 DUP1 PUSH0 PUSH1 0x60 DUP5 DUP7 SUB SLT ISZERO PUSH2 0x1B7F JUMPI PUSH2 0x1B7E PUSH2 0x15E5 JUMP JUMPDEST JUMPDEST PUSH0 DUP5 ADD CALLDATALOAD PUSH8 0xFFFFFFFFFFFFFFFF DUP2 GT ISZERO PUSH2 0x1B9C JUMPI PUSH2 0x1B9B PUSH2 0x15E9 JUMP JUMPDEST JUMPDEST PUSH2 0x1BA8 DUP7 DUP3 DUP8 ADD PUSH2 0x16FC JUMP JUMPDEST SWAP4 POP POP PUSH1 0x20 PUSH2 0x1BB9 DUP7 DUP3 DUP8 ADD PUSH2 0x1748 JUMP JUMPDEST SWAP3 POP POP PUSH1 0x40 DUP5 ADD CALLDATALOAD PUSH8 0xFFFFFFFFFFFFFFFF DUP2 GT ISZERO PUSH2 0x1BDA JUMPI PUSH2 0x1BD9 PUSH2 0x15E9 JUMP JUMPDEST JUMPDEST PUSH2 0x1BE6 DUP7 DUP3 DUP8 ADD PUSH2 0x16FC JUMP JUMPDEST SWAP2 POP POP SWAP3 POP SWAP3 POP SWAP3 JUMP JUMPDEST PUSH0 PUSH1 0x60 DUP3 ADD SWAP1 POP DUP2 DUP2 SUB PUSH0 DUP4 ADD MSTORE PUSH2 0x1C08 DUP2 DUP7 PUSH2 0x18DA JUMP JUMPDEST SWAP1 POP PUSH2 0x1C17 PUSH1 0x20 DUP4 ADD DUP6 PUSH2 0x1912 JUMP JUMPDEST DUP2 DUP2 SUB PUSH1 0x40 DUP4 ADD MSTORE PUSH2 0x1C29 DUP2 DUP5 PUSH2 0x18DA JUMP JUMPDEST SWAP1 POP SWAP5 SWAP4 POP POP POP POP JUMP JUMPDEST PUSH0 PUSH1 0x20 DUP3 ADD SWAP1 POP PUSH2 0x1C46 PUSH0 DUP4 ADD DUP5 PUSH2 0x19DE JUMP JUMPDEST SWAP3 SWAP2 POP POP JUMP JUMPDEST PUSH32 0x50617469656E742070726F66696C6520616C7265616479206578697374730000 PUSH0 DUP3 ADD MSTORE POP JUMP JUMPDEST PUSH0 PUSH2 0x1C80 PUSH1 0x1E DUP4 PUSH2 0x18BC JUMP JUMPDEST SWAP2 POP PUSH2 0x1C8B DUP3 PUSH2 0x1C4C JUMP JUMPDEST PUSH1 0x20 DUP3 ADD SWAP1 POP SWAP2 SWAP1 POP JUMP JUMPDEST PUSH0 PUSH1 0x20 DUP3 ADD SWAP1 POP DUP2 DUP2 SUB PUSH0 DUP4 ADD MSTORE PUSH2 0x1CAD DUP2 PUSH2 0x1C74 JUMP JUMPDEST SWAP1 POP SWAP2 SWAP1 POP JUMP JUMPDEST PUSH32 0x4E487B7100000000000000000000000000000000000000000000000000000000 PUSH0 MSTORE PUSH1 0x22 PUSH1 0x4 MSTORE PUSH1 0x24 PUSH0 REVERT JUMPDEST PUSH0 PUSH1 0x2 DUP3 DIV SWAP1 POP PUSH1 0x1 DUP3 AND DUP1 PUSH2 0x1CF8 JUMPI PUSH1 0x7F DUP3 AND SWAP2 POP JUMPDEST PUSH1 0x20 DUP3 LT DUP2 SUB PUSH2 0x1D0B JUMPI PUSH2 0x1D0A PUSH2 0x1CB4 JUMP JUMPDEST JUMPDEST POP SWAP2 SWAP1 POP JUMP JUMPDEST PUSH0 DUP2 SWAP1 POP DUP2 PUSH0 MSTORE PUSH1 0x20 PUSH0 KECCAK256 SWAP1 POP SWAP2 SWAP1 POP JUMP JUMPDEST PUSH0 PUSH1 0x20 PUSH1 0x1F DUP4 ADD DIV SWAP1 POP SWAP2 SWAP1 POP JUMP JUMPDEST PUSH0 DUP3 DUP3 SHL SWAP1 POP SWAP3 SWAP2 POP POP JUMP JUMPDEST PUSH0 PUSH1 0x8 DUP4 MUL PUSH2 0x1D6D PUSH32 0xFFFFFFFFFFFFFFFFFFFFFFFFFFFFFFFFFFFFFFFFFFFFFFFFFFFFFFFFFFFFFFFF DUP3 PUSH2 0x1D32 JUMP JUMPDEST PUSH2 0x1D77 DUP7 DUP4 PUSH2 0x1D32 JUMP JUMPDEST SWAP6 POP DUP1 NOT DUP5 AND SWAP4 POP DUP1 DUP7 AND DUP5 OR SWAP3 POP POP POP SWAP4 SWAP3 POP POP POP JUMP JUMPDEST PUSH0 DUP2 SWAP1 POP SWAP2 SWAP1 POP JUMP JUMPDEST PUSH0 PUSH2 0x1DB2 PUSH2 0x1DAD PUSH2 0x1DA8 DUP5 PUSH2 0x1729 JUMP JUMPDEST PUSH2 0x1D8F JUMP JUMPDEST PUSH2 0x1729 JUMP JUMPDEST SWAP1 POP SWAP2 SWAP1 POP JUMP JUMPDEST PUSH0 DUP2 SWAP1 POP SWAP2 SWAP1 POP JUMP JUMPDEST PUSH2 0x1DCB DUP4 PUSH2 0x1D98 JUMP JUMPDEST PUSH2 0x1DDF PUSH2 0x1DD7 DUP3 PUSH2 0x1DB9 JUMP JUMPDEST DUP5 DUP5 SLOAD PUSH2 0x1D3E JUMP JUMPDEST DUP3 SSTORE POP POP POP POP JUMP JUMPDEST PUSH0 SWAP1 JUMP JUMPDEST PUSH2 0x1DF3 PUSH2 0x1DE7 JUMP JUMPDEST PUSH2 0x1DFE DUP2 DUP5 DUP5 PUSH2 0x1DC2 JUMP JUMPDEST POP POP POP JUMP JUMPDEST JUMPDEST DUP2 DUP2 LT ISZERO PUSH2 0x1E21 JUMPI PUSH2 0x1E16 PUSH0 DUP3 PUSH2 0x1DEB JUMP JUMPDEST PUSH1 0x1 DUP2 ADD SWAP1 POP PUSH2 0x1E04 JUMP JUMPDEST POP POP JUMP JUMPDEST PUSH1 0x1F DUP3 GT ISZERO PUSH2 0x1E66 JUMPI PUSH2 0x1E37 DUP2 PUSH2 0x1D11 JUMP JUMPDEST PUSH2 0x1E40 DUP5 PUSH2 0x1D23 JUMP JUMPDEST DUP2 ADD PUSH1 0x20 DUP6 LT ISZERO PUSH2 0x1E4F JUMPI DUP2 SWAP1 POP JUMPDEST PUSH2 0x1E63 PUSH2 0x1E5B DUP6 PUSH2 0x1D23 JUMP JUMPDEST DUP4 ADD DUP3 PUSH2 0x1E03 JUMP JUMPDEST POP POP JUMPDEST POP POP POP JUMP JUMPDEST PUSH0 DUP3 DUP3 SHR SWAP1 POP SWAP3 SWAP2 POP POP JUMP JUMPDEST PUSH0 PUSH2 0x1E86 PUSH0 NOT DUP5 PUSH1 0x8 MUL PUSH2 0x1E6B JUMP JUMPDEST NOT DUP1 DUP4 AND SWAP2 POP POP SWAP3 SWAP2 POP POP JUMP JUMPDEST PUSH0 PUSH2 0x1E9E DUP4 DUP4 PUSH2 0x1E77 JUMP JUMPDEST SWAP2 POP DUP3 PUSH1 0x2 MUL DUP3 OR SWAP1 POP SWAP3 SWAP2 POP POP JUMP JUMPDEST PUSH2 0x1EB7 DUP3 PUSH2 0x18B2 JUMP JUMPDEST PUSH8 0xFFFFFFFFFFFFFFFF DUP2 GT ISZERO PUSH2 0x1ED0 JUMPI PUSH2 0x1ECF PUSH2 0x1605 JUMP JUMPDEST JUMPDEST PUSH2 0x1EDA DUP3 SLOAD PUSH2 0x1CE1 JUMP JUMPDEST PUSH2 0x1EE5 DUP3 DUP3 DUP6 PUSH2 0x1E25 JUMP JUMPDEST PUSH0 PUSH1 0x20 SWAP1 POP PUSH1 0x1F DUP4 GT PUSH1 0x1 DUP2 EQ PUSH2 0x1F16 JUMPI PUSH0 DUP5 ISZERO PUSH2 0x1F04 JUMPI DUP3 DUP8 ADD MLOAD SWAP1 POP JUMPDEST PUSH2 0x1F0E DUP6 DUP3 PUSH2 0x1E93 JUMP JUMPDEST DUP7 SSTORE POP PUSH2 0x1F75 JUMP JUMPDEST PUSH1 0x1F NOT DUP5 AND PUSH2 0x1F24 DUP7 PUSH2 0x1D11 JUMP JUMPDEST PUSH0 JUMPDEST DUP3 DUP2 LT ISZERO PUSH2 0x1F4B JUMPI DUP5 DUP10 ADD MLOAD DUP3 SSTORE PUSH1 0x1 DUP3 ADD SWAP2 POP PUSH1 0x20 DUP6 ADD SWAP5 POP PUSH1 0x20 DUP2 ADD SWAP1 POP PUSH2 0x1F26 JUMP JUMPDEST DUP7 DUP4 LT ISZERO PUSH2 0x1F68 JUMPI DUP5 DUP10 ADD MLOAD PUSH2 0x1F64 PUSH1 0x1F DUP10 AND DUP3 PUSH2 0x1E77 JUMP JUMPDEST DUP4 SSTORE POP JUMPDEST PUSH1 0x1 PUSH1 0x2 DUP9 MUL ADD DUP9 SSTORE POP POP POP JUMPDEST POP POP POP POP POP POP JUMP JUMPDEST PUSH0 PUSH1 0x80 DUP3 ADD SWAP1 POP PUSH2 0x1F90 PUSH0 DUP4 ADD DUP8 PUSH2 0x19DE JUMP JUMPDEST DUP2 DUP2 SUB PUSH1 0x20 DUP4 ADD MSTORE PUSH2 0x1FA2 DUP2 DUP7 PUSH2 0x18DA JUMP JUMPDEST SWAP1 POP PUSH2 0x1FB1 PUSH1 0x40 DUP4 ADD DUP6 PUSH2 0x1912 JUMP JUMPDEST PUSH2 0x1FBE PUSH1 0x60 DUP4 ADD DUP5 PUSH2 0x1921 JUMP JUMPDEST SWAP6 SWAP5 POP POP POP POP POP JUMP JUMPDEST PUSH32 0x6F6E6C79207468652061646D696E2063616E20706572666F726D207468697320 PUSH0 DUP3 ADD MSTORE PUSH32 0x616374696F6E2E00000000000000000000000000000000000000000000000000 PUSH1 0x20 DUP3 ADD MSTORE POP JUMP JUMPDEST PUSH0 PUSH2 0x2021 PUSH1 0x27 DUP4 PUSH2 0x18BC JUMP JUMPDEST SWAP2 POP PUSH2 0x202C DUP3 PUSH2 0x1FC7 JUMP JUMPDEST PUSH1 0x40 DUP3 ADD SWAP1 POP SWAP2 SWAP1 POP JUMP JUMPDEST PUSH0 PUSH1 0x20 DUP3 ADD SWAP1 POP DUP2 DUP2 SUB PUSH0 DUP4 ADD MSTORE PUSH2 0x204E DUP2 PUSH2 0x2015 JUMP JUMPDEST SWAP1 POP SWAP2 SWAP1 POP JUMP JUMPDEST PUSH32 0x546869732070617469656E74206973206E6F7420726567697374657265642061 PUSH0 DUP3 ADD MSTORE PUSH32 0x6E6420636F756C64616E742062652066756E6400000000000000000000000000 PUSH1 0x20 DUP3 ADD MSTORE POP JUMP JUMPDEST PUSH0 PUSH2 0x20AF PUSH1 0x33 DUP4 PUSH2 0x18BC JUMP JUMPDEST SWAP2 POP PUSH2 0x20BA DUP3 PUSH2 0x2055 JUMP JUMPDEST PUSH1 0x40 DUP3 ADD SWAP1 POP SWAP2 SWAP1 POP JUMP JUMPDEST PUSH0 PUSH1 0x20 DUP3 ADD SWAP1 POP DUP2 DUP2 SUB PUSH0 DUP4 ADD MSTORE PUSH2 0x20DC DUP2 PUSH2 0x20A3 JUMP JUMPDEST SWAP1 POP SWAP2 SWAP1 POP JUMP JUMPDEST PUSH32 0x496E76616C696420736572766963650000000000000000000000000000000000 PUSH0 DUP3 ADD MSTORE POP JUMP JUMPDEST PUSH0 PUSH2 0x2117 PUSH1 0xF DUP4 PUSH2 0x18BC JUMP JUMPDEST SWAP2 POP PUSH2 0x2122 DUP3 PUSH2 0x20E3 JUMP JUMPDEST PUSH1 0x20 DUP3 ADD SWAP1 POP SWAP2 SWAP1 POP JUMP JUMPDEST PUSH0 PUSH1 0x20 DUP3 ADD SWAP1 POP DUP2 DUP2 SUB PUSH0 DUP4 ADD MSTORE PUSH2 0x2144 DUP2 PUSH2 0x210B JUMP JUMPDEST SWAP1 POP SWAP2 SWAP1 POP JUMP JUMPDEST PUSH32 0x696E636F7272656374207061796D656E7420616D6F756E742E00000000000000 PUSH0 DUP3 ADD MSTORE POP JUMP JUMPDEST PUSH0 PUSH2 0x217F PUSH1 0x19 DUP4 PUSH2 0x18BC JUMP JUMPDEST SWAP2 POP PUSH2 0x218A DUP3 PUSH2 0x214B JUMP JUMPDEST PUSH1 0x20 DUP3 ADD SWAP1 POP SWAP2 SWAP1 POP JUMP JUMPDEST PUSH0 PUSH1 0x20 DUP3 ADD SWAP1 POP DUP2 DUP2 SUB PUSH0 DUP4 ADD MSTORE PUSH2 0x21AC DUP2 PUSH2 0x2173 JUMP JUMPDEST SWAP1 POP SWAP2 SWAP1 POP JUMP JUMPDEST PUSH32 0x4E487B7100000000000000000000000000000000000000000000000000000000 PUSH0 MSTORE PUSH1 0x11 PUSH1 0x4 MSTORE PUSH1 0x24 PUSH0 REVERT JUMPDEST PUSH0 PUSH2 0x21EA DUP3 PUSH2 0x1729 JUMP JUMPDEST SWAP2 POP PUSH2 0x21F5 DUP4 PUSH2 0x1729 JUMP JUMPDEST SWAP3 POP DUP3 DUP3 ADD SWAP1 POP DUP1 DUP3 GT ISZERO PUSH2 0x220D JUMPI PUSH2 0x220C PUSH2 0x21B3 JUMP JUMPDEST JUMPDEST SWAP3 SWAP2 POP POP JUMP JUMPDEST PUSH0 PUSH1 0xC0 DUP3 ADD SWAP1 POP PUSH2 0x2226 PUSH0 DUP4 ADD DUP10 PUSH2 0x19DE JUMP JUMPDEST PUSH2 0x2233 PUSH1 0x20 DUP4 ADD DUP9 PUSH2 0x1912 JUMP JUMPDEST PUSH2 0x2240 PUSH1 0x40 DUP4 ADD DUP8 PUSH2 0x1912 JUMP JUMPDEST PUSH2 0x224D PUSH1 0x60 DUP4 ADD DUP7 PUSH2 0x1912 JUMP JUMPDEST DUP2 DUP2 SUB PUSH1 0x80 DUP4 ADD MSTORE PUSH2 0x225F DUP2 DUP6 PUSH2 0x18DA JUMP JUMPDEST SWAP1 POP DUP2 DUP2 SUB PUSH1 0xA0 DUP4 ADD MSTORE PUSH2 0x2273 DUP2 DUP5 PUSH2 0x18DA JUMP JUMPDEST SWAP1 POP SWAP8 SWAP7 POP POP POP POP POP POP POP JUMP JUMPDEST PUSH0 PUSH1 0x60 DUP3 ADD SWAP1 POP PUSH2 0x2293 PUSH0 DUP4 ADD DUP7 PUSH2 0x19DE JUMP JUMPDEST PUSH2 0x22A0 PUSH1 0x20 DUP4 ADD DUP6 PUSH2 0x1912 JUMP JUMPDEST PUSH2 0x22AD PUSH1 0x40 DUP4 ADD DUP5 PUSH2 0x1912 JUMP JUMPDEST SWAP5 SWAP4 POP POP POP POP JUMP JUMPDEST PUSH32 0x696E76616C696420736572766963652000000000000000000000000000000000 PUSH0 DUP3 ADD MSTORE POP JUMP JUMPDEST PUSH0 PUSH2 0x22E9 PUSH1 0x10 DUP4 PUSH2 0x18BC JUMP JUMPDEST SWAP2 POP PUSH2 0x22F4 DUP3 PUSH2 0x22B5 JUMP JUMPDEST PUSH1 0x20 DUP3 ADD SWAP1 POP SWAP2 SWAP1 POP JUMP JUMPDEST PUSH0 PUSH1 0x20 DUP3 ADD SWAP1 POP DUP2 DUP2 SUB PUSH0 DUP4 ADD MSTORE PUSH2 0x2316 DUP2 PUSH2 0x22DD JUMP JUMPDEST SWAP1 POP SWAP2 SWAP1 POP JUMP JUMPDEST PUSH0 PUSH1 0x80 DUP3 ADD SWAP1 POP PUSH2 0x2330 PUSH0 DUP4 ADD DUP8 PUSH2 0x1912 JUMP JUMPDEST DUP2 DUP2 SUB PUSH1 0x20 DUP4 ADD MSTORE PUSH2 0x2342 DUP2 DUP7 PUSH2 0x18DA JUMP JUMPDEST SWAP1 POP PUSH2 0x2351 PUSH1 0x40 DUP4 ADD DUP6 PUSH2 0x1912 JUMP JUMPDEST DUP2 DUP2 SUB PUSH1 0x60 DUP4 ADD MSTORE PUSH2 0x2363 DUP2 DUP5 PUSH2 0x18DA JUMP JUMPDEST SWAP1 POP SWAP6 SWAP5 POP POP POP POP POP JUMP JUMPDEST PUSH0 PUSH2 0x2378 DUP3 PUSH2 0x1729 JUMP JUMPDEST SWAP2 POP PUSH32 0xFFFFFFFFFFFFFFFFFFFFFFFFFFFFFFFFFFFFFFFFFFFFFFFFFFFFFFFFFFFFFFFF DUP3 SUB PUSH2 0x23AA JUMPI PUSH2 0x23A9 PUSH2 0x21B3 JUMP JUMPDEST JUMPDEST PUSH1 0x1 DUP3 ADD SWAP1 POP SWAP2 SWAP1 POP JUMP JUMPDEST PUSH32 0x796F75206D7573742062652061207265676973746572656420646F63746F7220 PUSH0 DUP3 ADD MSTORE PUSH32 0x746F20706572666F72207468697320616374696F6E0000000000000000000000 PUSH1 0x20 DUP3 ADD MSTORE POP JUMP JUMPDEST PUSH0 PUSH2 0x240F PUSH1 0x35 DUP4 PUSH2 0x18BC JUMP JUMPDEST SWAP2 POP PUSH2 0x241A DUP3 PUSH2 0x23B5 JUMP JUMPDEST PUSH1 0x40 DUP3 ADD SWAP1 POP SWAP2 SWAP1 POP JUMP JUMPDEST PUSH0 PUSH1 0x20 DUP3 ADD SWAP1 POP DUP2 DUP2 SUB PUSH0 DUP4 ADD MSTORE PUSH2 0x243C DUP2 PUSH2 0x2403 JUMP JUMPDEST SWAP1 POP SWAP2 SWAP1 POP JUMP INVALID LOG2 PUSH5 0x6970667358 0x22 SLT KECCAK256 PUSH13 0xD22575317AA9D7EF99E5E5A1A0 0xC PUSH12 0x6E27AD3301BAAA1F3D611279 0xC1 0xBF ISZERO PUSH27 0x64736F6C634300081A003300000000000000000000000000000000 "
				},
				"gasEstimates": {
					"creation": {
						"codeDepositCost": "1867400",
						"executionCost": "26232",
						"totalCost": "1893632"
					},
					"external": {
						"AppointmentSchedule(uint256)": "infinite",
						"RegisterPatient(string,string,uint256,bool)": "infinite",
						"addServiceMenu(string,uint256,string)": "infinite",
						"adminBalance()": "2470",
						"administrator()": "2593",
						"appointmentCount()": "2491",
						"getAppointments(uint256)": "infinite",
						"getServicesMenu(uint256)": "infinite",
						"makeAppointment(uint256,string,string,uint256,string)": "infinite",
						"newDoctor(address)": "27058",
						"patients(address)": "infinite",
						"registeredDoctors(address)": "2856",
						"serviceMenuCount()": "2493",
						"services(uint256)": "infinite",
						"withdrawBalance()": "infinite"
					}
				},
				"methodIdentifiers": {
					"AppointmentSchedule(uint256)": "59c9920a",
					"RegisterPatient(string,string,uint256,bool)": "006c174f",
					"addServiceMenu(string,uint256,string)": "a58190df",
					"adminBalance()": "9858befb",
					"administrator()": "f53d0a8e",
					"appointmentCount()": "eebc3fb2",
					"getAppointments(uint256)": "ac0f2f7c",
					"getServicesMenu(uint256)": "97da3119",
					"makeAppointment(uint256,string,string,uint256,string)": "6701a995",
					"newDoctor(address)": "a95ab538",
					"patients(address)": "0869cfbc",
					"registeredDoctors(address)": "3f308cd2",
					"serviceMenuCount()": "230a545a",
					"services(uint256)": "c22c4f43",
					"withdrawBalance()": "5fd8c710"
				}
			},
			"storageLayout": {
				"storage": [
					{
						"astId": 3,
						"contract": "contracts/hospital.sol:Hospital",
						"label": "administrator",
						"offset": 0,
						"slot": "0",
						"type": "t_address"
					},
					{
						"astId": 5,
						"contract": "contracts/hospital.sol:Hospital",
						"label": "adminBalance",
						"offset": 0,
						"slot": "1",
						"type": "t_uint256"
					},
					{
						"astId": 41,
						"contract": "contracts/hospital.sol:Hospital",
						"label": "services",
						"offset": 0,
						"slot": "2",
						"type": "t_mapping(t_uint256,t_struct(servicesMenu)12_storage)"
					},
					{
						"astId": 43,
						"contract": "contracts/hospital.sol:Hospital",
						"label": "serviceMenuCount",
						"offset": 0,
						"slot": "3",
						"type": "t_uint256"
					},
					{
						"astId": 48,
						"contract": "contracts/hospital.sol:Hospital",
						"label": "patients",
						"offset": 0,
						"slot": "4",
						"type": "t_mapping(t_address,t_struct(Patient)21_storage)"
					},
					{
						"astId": 53,
						"contract": "contracts/hospital.sol:Hospital",
						"label": "AppointmentSchedule",
						"offset": 0,
						"slot": "5",
						"type": "t_mapping(t_uint256,t_struct(Appointment)36_storage)"
					},
					{
						"astId": 55,
						"contract": "contracts/hospital.sol:Hospital",
						"label": "appointmentCount",
						"offset": 0,
						"slot": "6",
						"type": "t_uint256"
					},
					{
						"astId": 59,
						"contract": "contracts/hospital.sol:Hospital",
						"label": "registeredDoctors",
						"offset": 0,
						"slot": "7",
						"type": "t_mapping(t_address,t_bool)"
					}
				],
				"types": {
					"t_address": {
						"encoding": "inplace",
						"label": "address",
						"numberOfBytes": "20"
					},
					"t_bool": {
						"encoding": "inplace",
						"label": "bool",
						"numberOfBytes": "1"
					},
					"t_mapping(t_address,t_bool)": {
						"encoding": "mapping",
						"key": "t_address",
						"label": "mapping(address => bool)",
						"numberOfBytes": "32",
						"value": "t_bool"
					},
					"t_mapping(t_address,t_struct(Patient)21_storage)": {
						"encoding": "mapping",
						"key": "t_address",
						"label": "mapping(address => struct Hospital.Patient)",
						"numberOfBytes": "32",
						"value": "t_struct(Patient)21_storage"
					},
					"t_mapping(t_uint256,t_struct(Appointment)36_storage)": {
						"encoding": "mapping",
						"key": "t_uint256",
						"label": "mapping(uint256 => struct Hospital.Appointment)",
						"numberOfBytes": "32",
						"value": "t_struct(Appointment)36_storage"
					},
					"t_mapping(t_uint256,t_struct(servicesMenu)12_storage)": {
						"encoding": "mapping",
						"key": "t_uint256",
						"label": "mapping(uint256 => struct Hospital.servicesMenu)",
						"numberOfBytes": "32",
						"value": "t_struct(servicesMenu)12_storage"
					},
					"t_string_storage": {
						"encoding": "bytes",
						"label": "string",
						"numberOfBytes": "32"
					},
					"t_struct(Appointment)36_storage": {
						"encoding": "inplace",
						"label": "struct Hospital.Appointment",
						"members": [
							{
								"astId": 23,
								"contract": "contracts/hospital.sol:Hospital",
								"label": "patient",
								"offset": 0,
								"slot": "0",
								"type": "t_address"
							},
							{
								"astId": 25,
								"contract": "contracts/hospital.sol:Hospital",
								"label": "patientName",
								"offset": 0,
								"slot": "1",
								"type": "t_string_storage"
							},
							{
								"astId": 27,
								"contract": "contracts/hospital.sol:Hospital",
								"label": "amount",
								"offset": 0,
								"slot": "2",
								"type": "t_uint256"
							},
							{
								"astId": 29,
								"contract": "contracts/hospital.sol:Hospital",
								"label": "treatmentDetails",
								"offset": 0,
								"slot": "3",
								"type": "t_string_storage"
							},
							{
								"astId": 31,
								"contract": "contracts/hospital.sol:Hospital",
								"label": "serviceId",
								"offset": 0,
								"slot": "4",
								"type": "t_uint256"
							},
							{
								"astId": 33,
								"contract": "contracts/hospital.sol:Hospital",
								"label": "date",
								"offset": 0,
								"slot": "5",
								"type": "t_uint256"
							},
							{
								"astId": 35,
								"contract": "contracts/hospital.sol:Hospital",
								"label": "doctor",
								"offset": 0,
								"slot": "6",
								"type": "t_string_storage"
							}
						],
						"numberOfBytes": "224"
					},
					"t_struct(Patient)21_storage": {
						"encoding": "inplace",
						"label": "struct Hospital.Patient",
						"members": [
							{
								"astId": 14,
								"contract": "contracts/hospital.sol:Hospital",
								"label": "patientName",
								"offset": 0,
								"slot": "0",
								"type": "t_string_storage"
							},
							{
								"astId": 16,
								"contract": "contracts/hospital.sol:Hospital",
								"label": "medHistory",
								"offset": 0,
								"slot": "1",
								"type": "t_string_storage"
							},
							{
								"astId": 18,
								"contract": "contracts/hospital.sol:Hospital",
								"label": "age",
								"offset": 0,
								"slot": "2",
								"type": "t_uint256"
							},
							{
								"astId": 20,
								"contract": "contracts/hospital.sol:Hospital",
								"label": "registered",
								"offset": 0,
								"slot": "3",
								"type": "t_bool"
							}
						],
						"numberOfBytes": "128"
					},
					"t_struct(servicesMenu)12_storage": {
						"encoding": "inplace",
						"label": "struct Hospital.servicesMenu",
						"members": [
							{
								"astId": 7,
								"contract": "contracts/hospital.sol:Hospital",
								"label": "serviceName",
								"offset": 0,
								"slot": "0",
								"type": "t_string_storage"
							},
							{
								"astId": 9,
								"contract": "contracts/hospital.sol:Hospital",
								"label": "price",
								"offset": 0,
								"slot": "1",
								"type": "t_uint256"
							},
							{
								"astId": 11,
								"contract": "contracts/hospital.sol:Hospital",
								"label": "doctorName",
								"offset": 0,
								"slot": "2",
								"type": "t_string_storage"
							}
						],
						"numberOfBytes": "96"
					},
					"t_uint256": {
						"encoding": "inplace",
						"label": "uint256",
						"numberOfBytes": "32"
					}
				}
			},
			"userdoc": {
				"kind": "user",
				"methods": {},
				"version": 1
			}
		}
	}
}